{
  "_format": "hh-sol-artifact-1",
  "contractName": "IdentityRegistry",
  "sourceName": "contracts/IdentityRegistry.sol",
  "abi": [
    {
      "inputs": [],
      "name": "ReentrancyGuardReentrantCall",
      "type": "error"
    },
    {
      "anonymous": false,
      "inputs": [
        {
          "indexed": true,
          "internalType": "address",
          "name": "user",
          "type": "address"
        },
        {
          "indexed": false,
          "internalType": "string",
          "name": "ipfsHash",
          "type": "string"
        },
        {
          "indexed": false,
          "internalType": "uint256",
          "name": "timestamp",
          "type": "uint256"
        }
      ],
      "name": "IdentityRegistered",
      "type": "event"
    },
    {
      "anonymous": false,
      "inputs": [
        {
          "indexed": true,
          "internalType": "address",
          "name": "user",
          "type": "address"
        },
        {
          "indexed": false,
          "internalType": "uint256",
          "name": "timestamp",
          "type": "uint256"
        }
      ],
      "name": "IdentityRevoked",
      "type": "event"
    },
    {
      "anonymous": false,
      "inputs": [
        {
          "indexed": true,
          "internalType": "address",
          "name": "user",
          "type": "address"
        },
        {
          "indexed": false,
          "internalType": "string",
          "name": "newIpfsHash",
          "type": "string"
        },
        {
          "indexed": false,
          "internalType": "uint256",
          "name": "timestamp",
          "type": "uint256"
        }
      ],
      "name": "IdentityUpdated",
      "type": "event"
    },
    {
      "inputs": [
        {
          "internalType": "address",
          "name": "user",
          "type": "address"
        }
      ],
      "name": "getIdentity",
      "outputs": [
        {
          "internalType": "string",
          "name": "ipfsHash",
          "type": "string"
        },
        {
          "internalType": "bool",
          "name": "isActive",
          "type": "bool"
        },
        {
          "internalType": "uint256",
          "name": "createdAt",
          "type": "uint256"
        },
        {
          "internalType": "uint256",
          "name": "updatedAt",
          "type": "uint256"
        }
      ],
      "stateMutability": "view",
      "type": "function"
    },
    {
      "inputs": [
        {
          "internalType": "address",
          "name": "user",
          "type": "address"
        },
        {
          "internalType": "string",
          "name": "ipfsHash",
          "type": "string"
        }
      ],
      "name": "registerIdentity",
      "outputs": [],
      "stateMutability": "nonpayable",
      "type": "function"
    },
    {
      "inputs": [],
      "name": "revokeIdentity",
      "outputs": [],
      "stateMutability": "nonpayable",
      "type": "function"
    },
    {
      "inputs": [
        {
          "internalType": "bytes32",
          "name": "newHash",
          "type": "bytes32"
        }
      ],
      "name": "updateIdentity",
      "outputs": [],
      "stateMutability": "nonpayable",
      "type": "function"
    },
    {
      "inputs": [
        {
          "internalType": "string",
          "name": "newHash",
          "type": "string"
        }
      ],
      "name": "updateIdentity",
      "outputs": [],
      "stateMutability": "nonpayable",
      "type": "function"
    }
  ],
  "bytecode": "0x608060405234801561001057600080fd5b50600160008190555061171b806100286000396000f3fe608060405234801561001057600080fd5b50600436106100575760003560e01c80632fea7b811461005c57806362c3fc2e1461008f5780637aee1e13146100ab578063912d3c33146100c7578063dd4db94f146100e3575b600080fd5b61007660048036038101906100719190610cd8565b6100ed565b6040516100869493929190610dc9565b60405180910390f35b6100a960048036038101906100a49190610e4b565b610309565b005b6100c560048036038101906100c09190610edd565b61045c565b005b6100e160048036038101906100dc9190610f2a565b610676565b005b6100eb610a03565b005b60606000806000600260008673ffffffffffffffffffffffffffffffffffffffff1673ffffffffffffffffffffffffffffffffffffffff16815260200190815260200160002060009054906101000a900460ff16610180576040517f08c379a000000000000000000000000000000000000000000000000000000000815260040161017790610fd6565b60405180910390fd5b6000600160008773ffffffffffffffffffffffffffffffffffffffff1673ffffffffffffffffffffffffffffffffffffffff1681526020019081526020016000206040518060a00160405290816000820160009054906101000a900473ffffffffffffffffffffffffffffffffffffffff1673ffffffffffffffffffffffffffffffffffffffff1673ffffffffffffffffffffffffffffffffffffffff16815260200160018201805461023290611025565b80601f016020809104026020016040519081016040528092919081815260200182805461025e90611025565b80156102ab5780601f10610280576101008083540402835291602001916102ab565b820191906000526020600020905b81548152906001019060200180831161028e57829003601f168201915b505050505081526020016002820160009054906101000a900460ff1615151515815260200160038201548152602001600482015481525050905080602001518160400151826060015183608001519450945094509450509193509193565b610311610c20565b600260003373ffffffffffffffffffffffffffffffffffffffff1673ffffffffffffffffffffffffffffffffffffffff16815260200190815260200160002060009054906101000a900460ff1661039d576040517f08c379a000000000000000000000000000000000000000000000000000000000815260040161039490610fd6565b60405180910390fd5b600160003373ffffffffffffffffffffffffffffffffffffffff1673ffffffffffffffffffffffffffffffffffffffff16815260200190815260200160002060020160009054906101000a900460ff1661042c576040517f08c379a0000000000000000000000000000000000000000000000000000000008152600401610423906110a2565b60405180910390fd5b60008160405160200161043f91906110e3565b604051602081830303815290604052905050610459610c66565b50565b610464610c20565b600260003373ffffffffffffffffffffffffffffffffffffffff1673ffffffffffffffffffffffffffffffffffffffff16815260200190815260200160002060009054906101000a900460ff166104f0576040517f08c379a00000000000000000000000000000000000000000000000000000000081526004016104e790610fd6565b60405180910390fd5b600160003373ffffffffffffffffffffffffffffffffffffffff1673ffffffffffffffffffffffffffffffffffffffff16815260200190815260200160002060020160009054906101000a900460ff1661057f576040517f08c379a0000000000000000000000000000000000000000000000000000000008152600401610576906110a2565b60405180910390fd5b8181600160003373ffffffffffffffffffffffffffffffffffffffff1673ffffffffffffffffffffffffffffffffffffffff16815260200190815260200160002060010191826105d09291906112e4565b5042600160003373ffffffffffffffffffffffffffffffffffffffff1673ffffffffffffffffffffffffffffffffffffffff168152602001908152602001600020600401819055503373ffffffffffffffffffffffffffffffffffffffff167ff766cba52472f168bac76b83b02493bdd09c6e1462599e934b7ecead5950d1d9838342604051610662939291906113f0565b60405180910390a2610672610c66565b5050565b61067e610c20565b8273ffffffffffffffffffffffffffffffffffffffff163373ffffffffffffffffffffffffffffffffffffffff1614806106e357503073ffffffffffffffffffffffffffffffffffffffff163373ffffffffffffffffffffffffffffffffffffffff16145b610722576040517f08c379a000000000000000000000000000000000000000000000000000000000815260040161071990611494565b60405180910390fd5b600260008473ffffffffffffffffffffffffffffffffffffffff1673ffffffffffffffffffffffffffffffffffffffff16815260200190815260200160002060009054906101000a900460ff16156107af576040517f08c379a00000000000000000000000000000000000000000000000000000000081526004016107a690611500565b60405180910390fd5b600082829050116107f5576040517f08c379a00000000000000000000000000000000000000000000000000000000081526004016107ec9061156c565b60405180910390fd5b6040518060a001604052808473ffffffffffffffffffffffffffffffffffffffff16815260200183838080601f016020809104026020016040519081016040528093929190818152602001838380828437600081840152601f19601f82011690508083019250505050505050815260200160011515815260200142815260200142815250600160008573ffffffffffffffffffffffffffffffffffffffff1673ffffffffffffffffffffffffffffffffffffffff16815260200190815260200160002060008201518160000160006101000a81548173ffffffffffffffffffffffffffffffffffffffff021916908373ffffffffffffffffffffffffffffffffffffffff1602179055506020820151816001019081610914919061158c565b5060408201518160020160006101000a81548160ff02191690831515021790555060608201518160030155608082015181600401559050506001600260008573ffffffffffffffffffffffffffffffffffffffff1673ffffffffffffffffffffffffffffffffffffffff16815260200190815260200160002060006101000a81548160ff0219169083151502179055508273ffffffffffffffffffffffffffffffffffffffff167fd4fdac2cfdd2237cae850c44ae04c28c522db0046be8c55e19eab3849fbbbdec8383426040516109ee939291906113f0565b60405180910390a26109fe610c66565b505050565b610a0b610c20565b600260003373ffffffffffffffffffffffffffffffffffffffff1673ffffffffffffffffffffffffffffffffffffffff16815260200190815260200160002060009054906101000a900460ff16610a97576040517f08c379a0000000000000000000000000000000000000000000000000000000008152600401610a8e90610fd6565b60405180910390fd5b600160003373ffffffffffffffffffffffffffffffffffffffff1673ffffffffffffffffffffffffffffffffffffffff16815260200190815260200160002060020160009054906101000a900460ff16610b26576040517f08c379a0000000000000000000000000000000000000000000000000000000008152600401610b1d906116aa565b60405180910390fd5b6000600160003373ffffffffffffffffffffffffffffffffffffffff1673ffffffffffffffffffffffffffffffffffffffff16815260200190815260200160002060020160006101000a81548160ff02191690831515021790555042600160003373ffffffffffffffffffffffffffffffffffffffff1673ffffffffffffffffffffffffffffffffffffffff168152602001908152602001600020600401819055503373ffffffffffffffffffffffffffffffffffffffff167f3e3c59bb369a9da1f5c9df74adb044e1181c4e20448838f42d9e860bb0a18cdb42604051610c0e91906116ca565b60405180910390a2610c1e610c66565b565b600260005403610c5c576040517f3ee5aeb500000000000000000000000000000000000000000000000000000000815260040160405180910390fd5b6002600081905550565b6001600081905550565b600080fd5b600080fd5b600073ffffffffffffffffffffffffffffffffffffffff82169050919050565b6000610ca582610c7a565b9050919050565b610cb581610c9a565b8114610cc057600080fd5b50565b600081359050610cd281610cac565b92915050565b600060208284031215610cee57610ced610c70565b5b6000610cfc84828501610cc3565b91505092915050565b600081519050919050565b600082825260208201905092915050565b60005b83811015610d3f578082015181840152602081019050610d24565b60008484015250505050565b6000601f19601f8301169050919050565b6000610d6782610d05565b610d718185610d10565b9350610d81818560208601610d21565b610d8a81610d4b565b840191505092915050565b60008115159050919050565b610daa81610d95565b82525050565b6000819050919050565b610dc381610db0565b82525050565b60006080820190508181036000830152610de38187610d5c565b9050610df26020830186610da1565b610dff6040830185610dba565b610e0c6060830184610dba565b95945050505050565b6000819050919050565b610e2881610e15565b8114610e3357600080fd5b50565b600081359050610e4581610e1f565b92915050565b600060208284031215610e6157610e60610c70565b5b6000610e6f84828501610e36565b91505092915050565b600080fd5b600080fd5b600080fd5b60008083601f840112610e9d57610e9c610e78565b5b8235905067ffffffffffffffff811115610eba57610eb9610e7d565b5b602083019150836001820283011115610ed657610ed5610e82565b5b9250929050565b60008060208385031215610ef457610ef3610c70565b5b600083013567ffffffffffffffff811115610f1257610f11610c75565b5b610f1e85828601610e87565b92509250509250929050565b600080600060408486031215610f4357610f42610c70565b5b6000610f5186828701610cc3565b935050602084013567ffffffffffffffff811115610f7257610f71610c75565b5b610f7e86828701610e87565b92509250509250925092565b7f4964656e74697479206e6f7420666f756e640000000000000000000000000000600082015250565b6000610fc0601283610d10565b9150610fcb82610f8a565b602082019050919050565b60006020820190508181036000830152610fef81610fb3565b9050919050565b7f4e487b7100000000000000000000000000000000000000000000000000000000600052602260045260246000fd5b6000600282049050600182168061103d57607f821691505b6020821081036110505761104f610ff6565b5b50919050565b7f4964656e74697479206973207265766f6b656400000000000000000000000000600082015250565b600061108c601383610d10565b915061109782611056565b602082019050919050565b600060208201905081810360008301526110bb8161107f565b9050919050565b6000819050919050565b6110dd6110d882610e15565b6110c2565b82525050565b60006110ef82846110cc565b60208201915081905092915050565b600082905092915050565b7f4e487b7100000000000000000000000000000000000000000000000000000000600052604160045260246000fd5b60008190508160005260206000209050919050565b60006020601f8301049050919050565b600082821b905092915050565b60006008830261119a7fffffffffffffffffffffffffffffffffffffffffffffffffffffffffffffffff8261115d565b6111a4868361115d565b95508019841693508086168417925050509392505050565b6000819050919050565b60006111e16111dc6111d784610db0565b6111bc565b610db0565b9050919050565b6000819050919050565b6111fb836111c6565b61120f611207826111e8565b84845461116a565b825550505050565b600090565b611224611217565b61122f8184846111f2565b505050565b5b818110156112535761124860008261121c565b600181019050611235565b5050565b601f8211156112985761126981611138565b6112728461114d565b81016020851015611281578190505b61129561128d8561114d565b830182611234565b50505b505050565b600082821c905092915050565b60006112bb6000198460080261129d565b1980831691505092915050565b60006112d483836112aa565b9150826002028217905092915050565b6112ee83836110fe565b67ffffffffffffffff81111561130757611306611109565b5b6113118254611025565b61131c828285611257565b6000601f83116001811461134b5760008415611339578287013590505b61134385826112c8565b8655506113ab565b601f19841661135986611138565b60005b828110156113815784890135825560018201915060208501945060208101905061135c565b8683101561139e578489013561139a601f8916826112aa565b8355505b6001600288020188555050505b50505050505050565b82818337600083830152505050565b60006113cf8385610d10565b93506113dc8385846113b4565b6113e583610d4b565b840190509392505050565b6000604082019050818103600083015261140b8185876113c3565b905061141a6020830184610dba565b949350505050565b7f4f6e6c7920757365722063616e207265676973746572206f776e206964656e7460008201527f6974790000000000000000000000000000000000000000000000000000000000602082015250565b600061147e602383610d10565b915061148982611422565b604082019050919050565b600060208201905081810360008301526114ad81611471565b9050919050565b7f4964656e7469747920616c726561647920657869737473000000000000000000600082015250565b60006114ea601783610d10565b91506114f5826114b4565b602082019050919050565b60006020820190508181036000830152611519816114dd565b9050919050565b7f4950465320486173682063616e6e6f7420626520656d70747900000000000000600082015250565b6000611556601983610d10565b915061156182611520565b602082019050919050565b6000602082019050818103600083015261158581611549565b9050919050565b61159582610d05565b67ffffffffffffffff8111156115ae576115ad611109565b5b6115b88254611025565b6115c3828285611257565b600060209050601f8311600181146115f657600084156115e4578287015190505b6115ee85826112c8565b865550611656565b601f19841661160486611138565b60005b8281101561162c57848901518255600182019150602085019450602081019050611607565b868310156116495784890151611645601f8916826112aa565b8355505b6001600288020188555050505b505050505050565b7f416c7265616479207265766f6b65640000000000000000000000000000000000600082015250565b6000611694600f83610d10565b915061169f8261165e565b602082019050919050565b600060208201905081810360008301526116c381611687565b9050919050565b60006020820190506116df6000830184610dba565b9291505056fea26469706673582212206be94dc310292470418bf2522851682dc4fe00f6bf6c53e883d11130d9e7ae4864736f6c63430008140033",
  "linkReferences": {},
  "deployedLinkReferences": {}
}