{
  "_format": "hh-sol-artifact-1",
  "contractName": "VerificationRegistry",
  "sourceName": "contracts/VerificationRegistry.sol",
  "abi": [
    {
      "inputs": [
        {
          "internalType": "address",
          "name": "_identityRegistry",
          "type": "address"
        }
      ],
      "stateMutability": "nonpayable",
      "type": "constructor"
    },
    {
      "inputs": [],
      "name": "ReentrancyGuardReentrantCall",
      "type": "error"
    },
    {
      "anonymous": false,
      "inputs": [
        {
          "indexed": true,
          "internalType": "uint256",
          "name": "requestId",
          "type": "uint256"
        },
        {
          "indexed": true,
          "internalType": "address",
          "name": "user",
          "type": "address"
        }
      ],
      "name": "ConsentGranted",
      "type": "event"
    },
    {
      "anonymous": false,
      "inputs": [
        {
          "indexed": true,
          "internalType": "uint256",
          "name": "requestId",
          "type": "uint256"
        },
        {
          "indexed": true,
          "internalType": "address",
          "name": "verifier",
          "type": "address"
        },
        {
          "indexed": false,
          "internalType": "uint256",
          "name": "timestamp",
          "type": "uint256"
        }
      ],
      "name": "IdentityVerified",
      "type": "event"
    },
    {
      "anonymous": false,
      "inputs": [
        {
          "indexed": true,
          "internalType": "uint256",
          "name": "requestId",
          "type": "uint256"
        },
        {
          "indexed": true,
          "internalType": "address",
          "name": "verifier",
          "type": "address"
        },
        {
          "indexed": true,
          "internalType": "address",
          "name": "user",
          "type": "address"
        },
        {
          "indexed": false,
          "internalType": "string",
          "name": "purpose",
          "type": "string"
        }
      ],
      "name": "VerificationRequested",
      "type": "event"
    },
    {
      "inputs": [
        {
          "internalType": "address",
          "name": "user",
          "type": "address"
        }
      ],
      "name": "getUserRequests",
      "outputs": [
        {
          "components": [
            {
              "internalType": "uint256",
              "name": "id",
              "type": "uint256"
            },
            {
              "internalType": "address",
              "name": "verifier",
              "type": "address"
            },
            {
              "internalType": "address",
              "name": "user",
              "type": "address"
            },
            {
              "internalType": "string",
              "name": "purpose",
              "type": "string"
            },
            {
              "internalType": "enum VerificationRegistry.RequestStatus",
              "name": "status",
              "type": "uint8"
            },
            {
              "internalType": "uint256",
              "name": "timestamp",
              "type": "uint256"
            },
            {
              "internalType": "uint256",
              "name": "confirmedAt",
              "type": "uint256"
            }
          ],
          "internalType": "struct VerificationRegistry.VerificationRequest[]",
          "name": "",
          "type": "tuple[]"
        }
      ],
      "stateMutability": "view",
      "type": "function"
    },
    {
      "inputs": [
        {
          "internalType": "uint256",
          "name": "requestId",
          "type": "uint256"
        }
      ],
      "name": "grantConsent",
      "outputs": [],
      "stateMutability": "nonpayable",
      "type": "function"
    },
    {
      "inputs": [],
      "name": "identityRegistry",
      "outputs": [
        {
          "internalType": "contract IdentityRegistry",
          "name": "",
          "type": "address"
        }
      ],
      "stateMutability": "view",
      "type": "function"
    },
    {
      "inputs": [
        {
          "internalType": "address",
          "name": "user",
          "type": "address"
        },
        {
          "internalType": "string",
          "name": "purpose",
          "type": "string"
        }
      ],
      "name": "requestVerification",
      "outputs": [
        {
          "internalType": "uint256",
          "name": "",
          "type": "uint256"
        }
      ],
      "stateMutability": "nonpayable",
      "type": "function"
    },
    {
      "inputs": [
        {
          "internalType": "uint256",
          "name": "",
          "type": "uint256"
        }
      ],
      "name": "requests",
      "outputs": [
        {
          "internalType": "uint256",
          "name": "id",
          "type": "uint256"
        },
        {
          "internalType": "address",
          "name": "verifier",
          "type": "address"
        },
        {
          "internalType": "address",
          "name": "user",
          "type": "address"
        },
        {
          "internalType": "string",
          "name": "purpose",
          "type": "string"
        },
        {
          "internalType": "enum VerificationRegistry.RequestStatus",
          "name": "status",
          "type": "uint8"
        },
        {
          "internalType": "uint256",
          "name": "timestamp",
          "type": "uint256"
        },
        {
          "internalType": "uint256",
          "name": "confirmedAt",
          "type": "uint256"
        }
      ],
      "stateMutability": "view",
      "type": "function"
    },
    {
      "inputs": [
        {
          "internalType": "address",
          "name": "",
          "type": "address"
        },
        {
          "internalType": "uint256",
          "name": "",
          "type": "uint256"
        }
      ],
      "name": "userRequests",
      "outputs": [
        {
          "internalType": "uint256",
          "name": "",
          "type": "uint256"
        }
      ],
      "stateMutability": "view",
      "type": "function"
    },
    {
      "inputs": [
        {
          "internalType": "address",
          "name": "",
          "type": "address"
        },
        {
          "internalType": "uint256",
          "name": "",
          "type": "uint256"
        }
      ],
      "name": "verifierRequests",
      "outputs": [
        {
          "internalType": "uint256",
          "name": "",
          "type": "uint256"
        }
      ],
      "stateMutability": "view",
      "type": "function"
    },
    {
      "inputs": [
        {
          "internalType": "uint256",
          "name": "requestId",
          "type": "uint256"
        }
      ],
      "name": "verifyIdentity",
      "outputs": [],
      "stateMutability": "nonpayable",
      "type": "function"
    }
  ],
  "bytecode": "0x60806040523480156200001157600080fd5b5060405162001e5c38038062001e5c8339818101604052810190620000379190620000f1565b600160008190555080600160006101000a81548173ffffffffffffffffffffffffffffffffffffffff021916908373ffffffffffffffffffffffffffffffffffffffff1602179055505062000123565b600080fd5b600073ffffffffffffffffffffffffffffffffffffffff82169050919050565b6000620000b9826200008c565b9050919050565b620000cb81620000ac565b8114620000d757600080fd5b50565b600081519050620000eb81620000c0565b92915050565b6000602082840312156200010a576200010962000087565b5b60006200011a84828501620000da565b91505092915050565b611d2980620001336000396000f3fe608060405234801561001057600080fd5b50600436106100885760003560e01c806381d12c581161005b57806381d12c5814610127578063a179d1c21461015d578063b337cf741461018d578063babb55c5146101bd57610088565b8063134e18f41461008d578063263cb6b6146100ab5780632a26de85146100db578063577042cd146100f7575b600080fd5b6100956101d9565b6040516100a29190610f42565b60405180910390f35b6100c560048036038101906100c09190610fe5565b6101ff565b6040516100d29190611034565b60405180910390f35b6100f560048036038101906100f0919061104f565b610230565b005b610111600480360381019061010c9190610fe5565b6103d6565b60405161011e9190611034565b60405180910390f35b610141600480360381019061013c919061104f565b610407565b6040516101549796959493929190611192565b60405180910390f35b6101776004803603810190610172919061126d565b61051e565b6040516101849190611034565b60405180910390f35b6101a760048036038101906101a291906112cd565b61093a565b6040516101b491906114cf565b60405180910390f35b6101d760048036038101906101d2919061104f565b610c3e565b005b600160009054906101000a900473ffffffffffffffffffffffffffffffffffffffff1681565b6004602052816000526040600020818154811061021b57600080fd5b90600052602060002001600091509150505481565b610238610df8565b60006003600083815260200190815260200160002090508060020160009054906101000a900473ffffffffffffffffffffffffffffffffffffffff1673ffffffffffffffffffffffffffffffffffffffff163373ffffffffffffffffffffffffffffffffffffffff16146102e1576040517f08c379a00000000000000000000000000000000000000000000000000000000081526004016102d89061153d565b60405180910390fd5b600060038111156102f5576102f461111b565b5b8160040160009054906101000a900460ff1660038111156103195761031861111b565b5b14610359576040517f08c379a0000000000000000000000000000000000000000000000000000000008152600401610350906115a9565b60405180910390fd5b60018160040160006101000a81548160ff021916908360038111156103815761038061111b565b5b02179055503373ffffffffffffffffffffffffffffffffffffffff16827ff3a34a7a216f396897a5bd0483c3b0b288e703d61c3c0f3a1c1cf6e04cb3130a60405160405180910390a3506103d3610e3e565b50565b600560205281600052604060002081815481106103f257600080fd5b90600052602060002001600091509150505481565b60036020528060005260406000206000915090508060000154908060010160009054906101000a900473ffffffffffffffffffffffffffffffffffffffff16908060020160009054906101000a900473ffffffffffffffffffffffffffffffffffffffff169080600301805461047c906115f8565b80601f01602080910402602001604051908101604052809291908181526020018280546104a8906115f8565b80156104f55780601f106104ca576101008083540402835291602001916104f5565b820191906000526020600020905b8154815290600101906020018083116104d857829003601f168201915b5050505050908060040160009054906101000a900460ff16908060050154908060060154905087565b6000610528610df8565b6000600160009054906101000a900473ffffffffffffffffffffffffffffffffffffffff1673ffffffffffffffffffffffffffffffffffffffff16632fea7b81866040518263ffffffff1660e01b81526004016105859190611629565b600060405180830381865afa1580156105a2573d6000803e3d6000fd5b505050506040513d6000823e3d601f19601f820116820180604052508101906105cb91906117b2565b50505090506000815111610614576040517f08c379a000000000000000000000000000000000000000000000000000000000815260040161060b90611881565b60405180910390fd5b60026000815480929190610627906118d0565b9190505550600060025490506040518060e001604052808281526020013373ffffffffffffffffffffffffffffffffffffffff1681526020018773ffffffffffffffffffffffffffffffffffffffff16815260200186868080601f016020809104026020016040519081016040528093929190818152602001838380828437600081840152601f19601f820116905080830192505050505050508152602001600060038111156106da576106d961111b565b5b81526020014281526020016000815250600360008381526020019081526020016000206000820151816000015560208201518160010160006101000a81548173ffffffffffffffffffffffffffffffffffffffff021916908373ffffffffffffffffffffffffffffffffffffffff16021790555060408201518160020160006101000a81548173ffffffffffffffffffffffffffffffffffffffff021916908373ffffffffffffffffffffffffffffffffffffffff16021790555060608201518160030190816107aa9190611aba565b5060808201518160040160006101000a81548160ff021916908360038111156107d6576107d561111b565b5b021790555060a0820151816005015560c08201518160060155905050600460008773ffffffffffffffffffffffffffffffffffffffff1673ffffffffffffffffffffffffffffffffffffffff168152602001908152602001600020819080600181540180825580915050600190039060005260206000200160009091909190915055600560003373ffffffffffffffffffffffffffffffffffffffff1673ffffffffffffffffffffffffffffffffffffffff1681526020019081526020016000208190806001815401808255809150506001900390600052602060002001600090919091909150558573ffffffffffffffffffffffffffffffffffffffff163373ffffffffffffffffffffffffffffffffffffffff16827fbb1b2af268537914f3a2746c815a9776725ec55681e2bf1c206df55e92583b1a888860405161091e929190611bc8565b60405180910390a48092505050610933610e3e565b9392505050565b60606000600460008473ffffffffffffffffffffffffffffffffffffffff1673ffffffffffffffffffffffffffffffffffffffff1681526020019081526020016000208054806020026020016040519081016040528092919081815260200182805480156109c757602002820191906000526020600020905b8154815260200190600101908083116109b3575b505050505090506000815167ffffffffffffffff8111156109eb576109ea611649565b5b604051908082528060200260200182016040528015610a2457816020015b610a11610e48565b815260200190600190039081610a095790505b50905060005b8251811015610c335760036000848381518110610a4a57610a49611bec565b5b602002602001015181526020019081526020016000206040518060e0016040529081600082015481526020016001820160009054906101000a900473ffffffffffffffffffffffffffffffffffffffff1673ffffffffffffffffffffffffffffffffffffffff1673ffffffffffffffffffffffffffffffffffffffff1681526020016002820160009054906101000a900473ffffffffffffffffffffffffffffffffffffffff1673ffffffffffffffffffffffffffffffffffffffff1673ffffffffffffffffffffffffffffffffffffffff168152602001600382018054610b31906115f8565b80601f0160208091040260200160405190810160405280929190818152602001828054610b5d906115f8565b8015610baa5780601f10610b7f57610100808354040283529160200191610baa565b820191906000526020600020905b815481529060010190602001808311610b8d57829003601f168201915b505050505081526020016004820160009054906101000a900460ff166003811115610bd857610bd761111b565b5b6003811115610bea57610be961111b565b5b815260200160058201548152602001600682015481525050828281518110610c1557610c14611bec565b5b60200260200101819052508080610c2b906118d0565b915050610a2a565b508092505050919050565b610c46610df8565b60006003600083815260200190815260200160002090508060010160009054906101000a900473ffffffffffffffffffffffffffffffffffffffff1673ffffffffffffffffffffffffffffffffffffffff163373ffffffffffffffffffffffffffffffffffffffff1614610cef576040517f08c379a0000000000000000000000000000000000000000000000000000000008152600401610ce690611c67565b60405180910390fd5b60016003811115610d0357610d0261111b565b5b8160040160009054906101000a900460ff166003811115610d2757610d2661111b565b5b14610d67576040517f08c379a0000000000000000000000000000000000000000000000000000000008152600401610d5e90611cd3565b60405180910390fd5b60038160040160006101000a81548160ff02191690836003811115610d8f57610d8e61111b565b5b02179055504281600601819055503373ffffffffffffffffffffffffffffffffffffffff16827f0c8fb91c035460e77a706805907d40a549c7be443bace051edf7ed20b62936a142604051610de49190611034565b60405180910390a350610df5610e3e565b50565b600260005403610e34576040517f3ee5aeb500000000000000000000000000000000000000000000000000000000815260040160405180910390fd5b6002600081905550565b6001600081905550565b6040518060e0016040528060008152602001600073ffffffffffffffffffffffffffffffffffffffff168152602001600073ffffffffffffffffffffffffffffffffffffffff1681526020016060815260200160006003811115610eaf57610eae61111b565b5b815260200160008152602001600081525090565b600073ffffffffffffffffffffffffffffffffffffffff82169050919050565b6000819050919050565b6000610f08610f03610efe84610ec3565b610ee3565b610ec3565b9050919050565b6000610f1a82610eed565b9050919050565b6000610f2c82610f0f565b9050919050565b610f3c81610f21565b82525050565b6000602082019050610f576000830184610f33565b92915050565b6000604051905090565b600080fd5b600080fd5b6000610f7c82610ec3565b9050919050565b610f8c81610f71565b8114610f9757600080fd5b50565b600081359050610fa981610f83565b92915050565b6000819050919050565b610fc281610faf565b8114610fcd57600080fd5b50565b600081359050610fdf81610fb9565b92915050565b60008060408385031215610ffc57610ffb610f67565b5b600061100a85828601610f9a565b925050602061101b85828601610fd0565b9150509250929050565b61102e81610faf565b82525050565b60006020820190506110496000830184611025565b92915050565b60006020828403121561106557611064610f67565b5b600061107384828501610fd0565b91505092915050565b61108581610f71565b82525050565b600081519050919050565b600082825260208201905092915050565b60005b838110156110c55780820151818401526020810190506110aa565b60008484015250505050565b6000601f19601f8301169050919050565b60006110ed8261108b565b6110f78185611096565b93506111078185602086016110a7565b611110816110d1565b840191505092915050565b7f4e487b7100000000000000000000000000000000000000000000000000000000600052602160045260246000fd5b6004811061115b5761115a61111b565b5b50565b600081905061116c8261114a565b919050565b600061117c8261115e565b9050919050565b61118c81611171565b82525050565b600060e0820190506111a7600083018a611025565b6111b4602083018961107c565b6111c1604083018861107c565b81810360608301526111d381876110e2565b90506111e26080830186611183565b6111ef60a0830185611025565b6111fc60c0830184611025565b98975050505050505050565b600080fd5b600080fd5b600080fd5b60008083601f84011261122d5761122c611208565b5b8235905067ffffffffffffffff81111561124a5761124961120d565b5b60208301915083600182028301111561126657611265611212565b5b9250929050565b60008060006040848603121561128657611285610f67565b5b600061129486828701610f9a565b935050602084013567ffffffffffffffff8111156112b5576112b4610f6c565b5b6112c186828701611217565b92509250509250925092565b6000602082840312156112e3576112e2610f67565b5b60006112f184828501610f9a565b91505092915050565b600081519050919050565b600082825260208201905092915050565b6000819050602082019050919050565b61132f81610faf565b82525050565b61133e81610f71565b82525050565b600082825260208201905092915050565b60006113608261108b565b61136a8185611344565b935061137a8185602086016110a7565b611383816110d1565b840191505092915050565b61139781611171565b82525050565b600060e0830160008301516113b56000860182611326565b5060208301516113c86020860182611335565b5060408301516113db6040860182611335565b50606083015184820360608601526113f38282611355565b9150506080830151611408608086018261138e565b5060a083015161141b60a0860182611326565b5060c083015161142e60c0860182611326565b508091505092915050565b6000611445838361139d565b905092915050565b6000602082019050919050565b6000611465826112fa565b61146f8185611305565b93508360208202850161148185611316565b8060005b858110156114bd578484038952815161149e8582611439565b94506114a98361144d565b925060208a01995050600181019050611485565b50829750879550505050505092915050565b600060208201905081810360008301526114e9818461145a565b905092915050565b7f4e6f7420617574686f72697a6564000000000000000000000000000000000000600082015250565b6000611527600e83611096565b9150611532826114f1565b602082019050919050565b600060208201905081810360008301526115568161151a565b9050919050565b7f52657175657374206e6f742070656e64696e6700000000000000000000000000600082015250565b6000611593601383611096565b915061159e8261155d565b602082019050919050565b600060208201905081810360008301526115c281611586565b9050919050565b7f4e487b7100000000000000000000000000000000000000000000000000000000600052602260045260246000fd5b6000600282049050600182168061161057607f821691505b602082108103611623576116226115c9565b5b50919050565b600060208201905061163e600083018461107c565b92915050565b600080fd5b7f4e487b7100000000000000000000000000000000000000000000000000000000600052604160045260246000fd5b611681826110d1565b810181811067ffffffffffffffff821117156116a05761169f611649565b5b80604052505050565b60006116b3610f5d565b90506116bf8282611678565b919050565b600067ffffffffffffffff8211156116df576116de611649565b5b6116e8826110d1565b9050602081019050919050565b6000611708611703846116c4565b6116a9565b90508281526020810184848401111561172457611723611644565b5b61172f8482856110a7565b509392505050565b600082601f83011261174c5761174b611208565b5b815161175c8482602086016116f5565b91505092915050565b60008115159050919050565b61177a81611765565b811461178557600080fd5b50565b60008151905061179781611771565b92915050565b6000815190506117ac81610fb9565b92915050565b600080600080608085870312156117cc576117cb610f67565b5b600085015167ffffffffffffffff8111156117ea576117e9610f6c565b5b6117f687828801611737565b945050602061180787828801611788565b93505060406118188782880161179d565b92505060606118298782880161179d565b91505092959194509250565b7f5573657220686173206e6f206964656e74697479000000000000000000000000600082015250565b600061186b601483611096565b915061187682611835565b602082019050919050565b6000602082019050818103600083015261189a8161185e565b9050919050565b7f4e487b7100000000000000000000000000000000000000000000000000000000600052601160045260246000fd5b60006118db82610faf565b91507fffffffffffffffffffffffffffffffffffffffffffffffffffffffffffffffff820361190d5761190c6118a1565b5b600182019050919050565b60008190508160005260206000209050919050565b60006020601f8301049050919050565b600082821b905092915050565b60006008830261197a7fffffffffffffffffffffffffffffffffffffffffffffffffffffffffffffffff8261193d565b611984868361193d565b95508019841693508086168417925050509392505050565b60006119b76119b26119ad84610faf565b610ee3565b610faf565b9050919050565b6000819050919050565b6119d18361199c565b6119e56119dd826119be565b84845461194a565b825550505050565b600090565b6119fa6119ed565b611a058184846119c8565b505050565b5b81811015611a2957611a1e6000826119f2565b600181019050611a0b565b5050565b601f821115611a6e57611a3f81611918565b611a488461192d565b81016020851015611a57578190505b611a6b611a638561192d565b830182611a0a565b50505b505050565b600082821c905092915050565b6000611a9160001984600802611a73565b1980831691505092915050565b6000611aaa8383611a80565b9150826002028217905092915050565b611ac38261108b565b67ffffffffffffffff811115611adc57611adb611649565b5b611ae682546115f8565b611af1828285611a2d565b600060209050601f831160018114611b245760008415611b12578287015190505b611b1c8582611a9e565b865550611b84565b601f198416611b3286611918565b60005b82811015611b5a57848901518255600182019150602085019450602081019050611b35565b86831015611b775784890151611b73601f891682611a80565b8355505b6001600288020188555050505b505050505050565b82818337600083830152505050565b6000611ba78385611096565b9350611bb4838584611b8c565b611bbd836110d1565b840190509392505050565b60006020820190508181036000830152611be3818486611b9b565b90509392505050565b7f4e487b7100000000000000000000000000000000000000000000000000000000600052603260045260246000fd5b7f4e6f7420746865206f726967696e616c20766572696669657200000000000000600082015250565b6000611c51601983611096565b9150611c5c82611c1b565b602082019050919050565b60006020820190508181036000830152611c8081611c44565b9050919050565b7f436f6e73656e74206e6f74206772616e74656400000000000000000000000000600082015250565b6000611cbd601383611096565b9150611cc882611c87565b602082019050919050565b60006020820190508181036000830152611cec81611cb0565b905091905056fea26469706673582212204ea800d2a747ec245b41318140b23256797d3c382a0f4bee64a8a8a6ab79639764736f6c63430008140033",
  "linkReferences": {},
  "deployedLinkReferences": {}
}