{
  "_format": "hh-sol-artifact-1",
  "contractName": "CredentialRegistry",
  "sourceName": "contracts/CredentialRegistry.sol",
  "abi": [
    {
      "inputs": [],
      "stateMutability": "nonpayable",
      "type": "constructor"
    },
    {
      "inputs": [
        {
          "internalType": "address",
          "name": "owner",
          "type": "address"
        }
      ],
      "name": "OwnableInvalidOwner",
      "type": "error"
    },
    {
      "inputs": [
        {
          "internalType": "address",
          "name": "account",
          "type": "address"
        }
      ],
      "name": "OwnableUnauthorizedAccount",
      "type": "error"
    },
    {
      "inputs": [],
      "name": "ReentrancyGuardReentrantCall",
      "type": "error"
    },
    {
      "anonymous": false,
      "inputs": [
        {
          "indexed": true,
          "internalType": "bytes32",
          "name": "credId",
          "type": "bytes32"
        },
        {
          "indexed": true,
          "internalType": "address",
          "name": "issuer",
          "type": "address"
        },
        {
          "indexed": true,
          "internalType": "address",
          "name": "holder",
          "type": "address"
        },
        {
          "indexed": false,
          "internalType": "string",
          "name": "credentialType",
          "type": "string"
        }
      ],
      "name": "CredentialIssued",
      "type": "event"
    },
    {
      "anonymous": false,
      "inputs": [
        {
          "indexed": true,
          "internalType": "bytes32",
          "name": "credId",
          "type": "bytes32"
        }
      ],
      "name": "CredentialRevoked",
      "type": "event"
    },
    {
      "anonymous": false,
      "inputs": [
        {
          "indexed": true,
          "internalType": "address",
          "name": "issuer",
          "type": "address"
        },
        {
          "indexed": false,
          "internalType": "bool",
          "name": "authorized",
          "type": "bool"
        }
      ],
      "name": "IssuerAuthorized",
      "type": "event"
    },
    {
      "anonymous": false,
      "inputs": [
        {
          "indexed": true,
          "internalType": "address",
          "name": "previousOwner",
          "type": "address"
        },
        {
          "indexed": true,
          "internalType": "address",
          "name": "newOwner",
          "type": "address"
        }
      ],
      "name": "OwnershipTransferred",
      "type": "event"
    },
    {
      "inputs": [
        {
          "internalType": "address",
          "name": "",
          "type": "address"
        }
      ],
      "name": "authorizedIssuers",
      "outputs": [
        {
          "internalType": "bool",
          "name": "",
          "type": "bool"
        }
      ],
      "stateMutability": "view",
      "type": "function"
    },
    {
      "inputs": [
        {
          "internalType": "bytes32",
          "name": "",
          "type": "bytes32"
        }
      ],
      "name": "credentials",
      "outputs": [
        {
          "internalType": "bytes32",
          "name": "id",
          "type": "bytes32"
        },
        {
          "internalType": "address",
          "name": "issuer",
          "type": "address"
        },
        {
          "internalType": "address",
          "name": "holder",
          "type": "address"
        },
        {
          "internalType": "string",
          "name": "credentialType",
          "type": "string"
        },
        {
          "internalType": "string",
          "name": "ipfsHash",
          "type": "string"
        },
        {
          "internalType": "bool",
          "name": "isRevoked",
          "type": "bool"
        },
        {
          "internalType": "uint256",
          "name": "issuedAt",
          "type": "uint256"
        },
        {
          "internalType": "uint256",
          "name": "expiresAt",
          "type": "uint256"
        }
      ],
      "stateMutability": "view",
      "type": "function"
    },
    {
      "inputs": [
        {
          "internalType": "address",
          "name": "holder",
          "type": "address"
        }
      ],
      "name": "getHolderCredentials",
      "outputs": [
        {
          "internalType": "bytes32[]",
          "name": "",
          "type": "bytes32[]"
        }
      ],
      "stateMutability": "view",
      "type": "function"
    },
    {
      "inputs": [
        {
          "internalType": "address",
          "name": "",
          "type": "address"
        },
        {
          "internalType": "uint256",
          "name": "",
          "type": "uint256"
        }
      ],
      "name": "holderCredentials",
      "outputs": [
        {
          "internalType": "bytes32",
          "name": "",
          "type": "bytes32"
        }
      ],
      "stateMutability": "view",
      "type": "function"
    },
    {
      "inputs": [
        {
          "internalType": "address",
          "name": "holder",
          "type": "address"
        },
        {
          "internalType": "string",
          "name": "credentialType",
          "type": "string"
        },
        {
          "internalType": "string",
          "name": "ipfsHash",
          "type": "string"
        },
        {
          "internalType": "uint256",
          "name": "expiration",
          "type": "uint256"
        }
      ],
      "name": "issueCredential",
      "outputs": [
        {
          "internalType": "bytes32",
          "name": "",
          "type": "bytes32"
        }
      ],
      "stateMutability": "nonpayable",
      "type": "function"
    },
    {
      "inputs": [],
      "name": "owner",
      "outputs": [
        {
          "internalType": "address",
          "name": "",
          "type": "address"
        }
      ],
      "stateMutability": "view",
      "type": "function"
    },
    {
      "inputs": [],
      "name": "renounceOwnership",
      "outputs": [],
      "stateMutability": "nonpayable",
      "type": "function"
    },
    {
      "inputs": [
        {
          "internalType": "bytes32",
          "name": "credId",
          "type": "bytes32"
        }
      ],
      "name": "revokeCredential",
      "outputs": [],
      "stateMutability": "nonpayable",
      "type": "function"
    },
    {
      "inputs": [
        {
          "internalType": "address",
          "name": "issuer",
          "type": "address"
        },
        {
          "internalType": "bool",
          "name": "status",
          "type": "bool"
        }
      ],
      "name": "setIssuerStatus",
      "outputs": [],
      "stateMutability": "nonpayable",
      "type": "function"
    },
    {
      "inputs": [
        {
          "internalType": "address",
          "name": "newOwner",
          "type": "address"
        }
      ],
      "name": "transferOwnership",
      "outputs": [],
      "stateMutability": "nonpayable",
      "type": "function"
    },
    {
      "inputs": [
        {
          "internalType": "bytes32",
          "name": "credId",
          "type": "bytes32"
        },
        {
          "internalType": "bytes",
          "name": "proof",
          "type": "bytes"
        }
      ],
      "name": "verifyZKProof",
      "outputs": [
        {
          "internalType": "bool",
          "name": "",
          "type": "bool"
        }
      ],
      "stateMutability": "view",
      "type": "function"
    }
  ],
  "bytecode": "0x60806040523480156200001157600080fd5b50336001600081905550600073ffffffffffffffffffffffffffffffffffffffff168173ffffffffffffffffffffffffffffffffffffffff1603620000905760006040517f1e4fbdf70000000000000000000000000000000000000000000000000000000081526004016200008791906200020b565b60405180910390fd5b620000a1816200010060201b60201c565b506001600460003373ffffffffffffffffffffffffffffffffffffffff1673ffffffffffffffffffffffffffffffffffffffff16815260200190815260200160002060006101000a81548160ff02191690831515021790555062000228565b6000600160009054906101000a900473ffffffffffffffffffffffffffffffffffffffff16905081600160006101000a81548173ffffffffffffffffffffffffffffffffffffffff021916908373ffffffffffffffffffffffffffffffffffffffff1602179055508173ffffffffffffffffffffffffffffffffffffffff168173ffffffffffffffffffffffffffffffffffffffff167f8be0079c531659141344cd1fd0a4f28419497f9722a3daafe3b4186f6b6457e060405160405180910390a35050565b600073ffffffffffffffffffffffffffffffffffffffff82169050919050565b6000620001f382620001c6565b9050919050565b6200020581620001e6565b82525050565b6000602082019050620002226000830184620001fa565b92915050565b611c3580620002386000396000f3fe608060405234801561001057600080fd5b50600436106100a95760003560e01c80638da5cb5b116100715780638da5cb5b1461017f578063c1e481e31461019d578063ca6eec78146101b9578063e41f7d0d146101d5578063f2fde38b14610205578063f731fa0f14610221576100a9565b80631e48169d146100ae578063299d0348146100de5780632c34a81714610115578063715018a6146101455780638d1844321461014f575b600080fd5b6100c860048036038101906100c3919061106a565b610251565b6040516100d591906110c3565b60405180910390f35b6100f860048036038101906100f3919061110a565b610282565b60405161010c989796959493929190611200565b60405180910390f35b61012f600480360381019061012a91906112f1565b610427565b60405161013c91906110c3565b60405180910390f35b61014d6107d3565b005b61016960048036038101906101649190611398565b6107e7565b6040516101769190611483565b60405180910390f35b61018761087e565b60405161019491906114a5565b60405180910390f35b6101b760048036038101906101b291906114ec565b6108a8565b005b6101d360048036038101906101ce919061110a565b610959565b005b6101ef60048036038101906101ea9190611582565b610aa9565b6040516101fc91906115e2565b60405180910390f35b61021f600480360381019061021a9190611398565b610d81565b005b61023b60048036038101906102369190611398565b610e07565b60405161024891906115e2565b60405180910390f35b6003602052816000526040600020818154811061026d57600080fd5b90600052602060002001600091509150505481565b60026020528060005260406000206000915090508060000154908060010160009054906101000a900473ffffffffffffffffffffffffffffffffffffffff16908060020160009054906101000a900473ffffffffffffffffffffffffffffffffffffffff16908060030180546102f79061162c565b80601f01602080910402602001604051908101604052809291908181526020018280546103239061162c565b80156103705780601f1061034557610100808354040283529160200191610370565b820191906000526020600020905b81548152906001019060200180831161035357829003601f168201915b5050505050908060040180546103859061162c565b80601f01602080910402602001604051908101604052809291908181526020018280546103b19061162c565b80156103fe5780601f106103d3576101008083540402835291602001916103fe565b820191906000526020600020905b8154815290600101906020018083116103e157829003601f168201915b5050505050908060050160009054906101000a900460ff16908060060154908060070154905088565b6000600460003373ffffffffffffffffffffffffffffffffffffffff1673ffffffffffffffffffffffffffffffffffffffff16815260200190815260200160002060009054906101000a900460ff166104b5576040517f08c379a00000000000000000000000000000000000000000000000000000000081526004016104ac906116a9565b60405180910390fd5b6104bd610e27565b600033888888426040516020016104d8959493929190611771565b6040516020818303038152906040528051906020012090506040518061010001604052808281526020013373ffffffffffffffffffffffffffffffffffffffff1681526020018973ffffffffffffffffffffffffffffffffffffffff16815260200188888080601f016020809104026020016040519081016040528093929190818152602001838380828437600081840152601f19601f82011690508083019250505050505050815260200186868080601f016020809104026020016040519081016040528093929190818152602001838380828437600081840152601f19601f82011690508083019250505050505050815260200160001515815260200142815260200184815250600260008381526020019081526020016000206000820151816000015560208201518160010160006101000a81548173ffffffffffffffffffffffffffffffffffffffff021916908373ffffffffffffffffffffffffffffffffffffffff16021790555060408201518160020160006101000a81548173ffffffffffffffffffffffffffffffffffffffff021916908373ffffffffffffffffffffffffffffffffffffffff16021790555060608201518160030190816106a19190611998565b5060808201518160040190816106b79190611998565b5060a08201518160050160006101000a81548160ff02191690831515021790555060c0820151816006015560e08201518160070155905050600360008973ffffffffffffffffffffffffffffffffffffffff1673ffffffffffffffffffffffffffffffffffffffff1681526020019081526020016000208190806001815401808255809150506001900390600052602060002001600090919091909150558773ffffffffffffffffffffffffffffffffffffffff163373ffffffffffffffffffffffffffffffffffffffff16827f8fbd2b7cfb4db91a4f4b683fc96c73b5adc9f9aee31b983df603621b12c549878a8a6040516107b5929190611a97565b60405180910390a4809150506107c9610e6d565b9695505050505050565b6107db610e77565b6107e56000610efe565b565b6060600360008373ffffffffffffffffffffffffffffffffffffffff1673ffffffffffffffffffffffffffffffffffffffff16815260200190815260200160002080548060200260200160405190810160405280929190818152602001828054801561087257602002820191906000526020600020905b81548152602001906001019080831161085e575b50505050509050919050565b6000600160009054906101000a900473ffffffffffffffffffffffffffffffffffffffff16905090565b6108b0610e77565b80600460008473ffffffffffffffffffffffffffffffffffffffff1673ffffffffffffffffffffffffffffffffffffffff16815260200190815260200160002060006101000a81548160ff0219169083151502179055508173ffffffffffffffffffffffffffffffffffffffff167f323f1985f95ab4281ac5356feae087f07598411565971dd57673e77bf9aecea88260405161094d91906115e2565b60405180910390a25050565b610961610e27565b3373ffffffffffffffffffffffffffffffffffffffff166002600083815260200190815260200160002060010160009054906101000a900473ffffffffffffffffffffffffffffffffffffffff1673ffffffffffffffffffffffffffffffffffffffff161480610a0357503373ffffffffffffffffffffffffffffffffffffffff166109eb61087e565b73ffffffffffffffffffffffffffffffffffffffff16145b610a42576040517f08c379a0000000000000000000000000000000000000000000000000000000008152600401610a3990611b07565b60405180910390fd5b60016002600083815260200190815260200160002060050160006101000a81548160ff021916908315150217905550807f3cc2375f3fc7711ba27361cde93880f578742f9f050acee766bed662d117ba7260405160405180910390a2610aa6610e6d565b50565b6000806002600086815260200190815260200160002060405180610100016040529081600082015481526020016001820160009054906101000a900473ffffffffffffffffffffffffffffffffffffffff1673ffffffffffffffffffffffffffffffffffffffff1673ffffffffffffffffffffffffffffffffffffffff1681526020016002820160009054906101000a900473ffffffffffffffffffffffffffffffffffffffff1673ffffffffffffffffffffffffffffffffffffffff1673ffffffffffffffffffffffffffffffffffffffff168152602001600382018054610b919061162c565b80601f0160208091040260200160405190810160405280929190818152602001828054610bbd9061162c565b8015610c0a5780601f10610bdf57610100808354040283529160200191610c0a565b820191906000526020600020905b815481529060010190602001808311610bed57829003601f168201915b50505050508152602001600482018054610c239061162c565b80601f0160208091040260200160405190810160405280929190818152602001828054610c4f9061162c565b8015610c9c5780601f10610c7157610100808354040283529160200191610c9c565b820191906000526020600020905b815481529060010190602001808311610c7f57829003601f168201915b505050505081526020016005820160009054906101000a900460ff161515151581526020016006820154815260200160078201548152505090508060a0015115610d1b576040517f08c379a0000000000000000000000000000000000000000000000000000000008152600401610d1290611b73565b60405180910390fd5b60008160e001511480610d315750428160e00151115b610d70576040517f08c379a0000000000000000000000000000000000000000000000000000000008152600401610d6790611bdf565b60405180910390fd5b600084849050119150509392505050565b610d89610e77565b600073ffffffffffffffffffffffffffffffffffffffff168173ffffffffffffffffffffffffffffffffffffffff1603610dfb5760006040517f1e4fbdf7000000000000000000000000000000000000000000000000000000008152600401610df291906114a5565b60405180910390fd5b610e0481610efe565b50565b60046020528060005260406000206000915054906101000a900460ff1681565b600260005403610e63576040517f3ee5aeb500000000000000000000000000000000000000000000000000000000815260040160405180910390fd5b6002600081905550565b6001600081905550565b610e7f610fc4565b73ffffffffffffffffffffffffffffffffffffffff16610e9d61087e565b73ffffffffffffffffffffffffffffffffffffffff1614610efc57610ec0610fc4565b6040517f118cdaa7000000000000000000000000000000000000000000000000000000008152600401610ef391906114a5565b60405180910390fd5b565b6000600160009054906101000a900473ffffffffffffffffffffffffffffffffffffffff16905081600160006101000a81548173ffffffffffffffffffffffffffffffffffffffff021916908373ffffffffffffffffffffffffffffffffffffffff1602179055508173ffffffffffffffffffffffffffffffffffffffff168173ffffffffffffffffffffffffffffffffffffffff167f8be0079c531659141344cd1fd0a4f28419497f9722a3daafe3b4186f6b6457e060405160405180910390a35050565b600033905090565b600080fd5b600080fd5b600073ffffffffffffffffffffffffffffffffffffffff82169050919050565b600061100182610fd6565b9050919050565b61101181610ff6565b811461101c57600080fd5b50565b60008135905061102e81611008565b92915050565b6000819050919050565b61104781611034565b811461105257600080fd5b50565b6000813590506110648161103e565b92915050565b6000806040838503121561108157611080610fcc565b5b600061108f8582860161101f565b92505060206110a085828601611055565b9150509250929050565b6000819050919050565b6110bd816110aa565b82525050565b60006020820190506110d860008301846110b4565b92915050565b6110e7816110aa565b81146110f257600080fd5b50565b600081359050611104816110de565b92915050565b6000602082840312156111205761111f610fcc565b5b600061112e848285016110f5565b91505092915050565b61114081610ff6565b82525050565b600081519050919050565b600082825260208201905092915050565b60005b83811015611180578082015181840152602081019050611165565b60008484015250505050565b6000601f19601f8301169050919050565b60006111a882611146565b6111b28185611151565b93506111c2818560208601611162565b6111cb8161118c565b840191505092915050565b60008115159050919050565b6111eb816111d6565b82525050565b6111fa81611034565b82525050565b600061010082019050611216600083018b6110b4565b611223602083018a611137565b6112306040830189611137565b8181036060830152611242818861119d565b90508181036080830152611256818761119d565b905061126560a08301866111e2565b61127260c08301856111f1565b61127f60e08301846111f1565b9998505050505050505050565b600080fd5b600080fd5b600080fd5b60008083601f8401126112b1576112b061128c565b5b8235905067ffffffffffffffff8111156112ce576112cd611291565b5b6020830191508360018202830111156112ea576112e9611296565b5b9250929050565b6000806000806000806080878903121561130e5761130d610fcc565b5b600061131c89828a0161101f565b965050602087013567ffffffffffffffff81111561133d5761133c610fd1565b5b61134989828a0161129b565b9550955050604087013567ffffffffffffffff81111561136c5761136b610fd1565b5b61137889828a0161129b565b9350935050606061138b89828a01611055565b9150509295509295509295565b6000602082840312156113ae576113ad610fcc565b5b60006113bc8482850161101f565b91505092915050565b600081519050919050565b600082825260208201905092915050565b6000819050602082019050919050565b6113fa816110aa565b82525050565b600061140c83836113f1565b60208301905092915050565b6000602082019050919050565b6000611430826113c5565b61143a81856113d0565b9350611445836113e1565b8060005b8381101561147657815161145d8882611400565b975061146883611418565b925050600181019050611449565b5085935050505092915050565b6000602082019050818103600083015261149d8184611425565b905092915050565b60006020820190506114ba6000830184611137565b92915050565b6114c9816111d6565b81146114d457600080fd5b50565b6000813590506114e6816114c0565b92915050565b6000806040838503121561150357611502610fcc565b5b60006115118582860161101f565b9250506020611522858286016114d7565b9150509250929050565b60008083601f8401126115425761154161128c565b5b8235905067ffffffffffffffff81111561155f5761155e611291565b5b60208301915083600182028301111561157b5761157a611296565b5b9250929050565b60008060006040848603121561159b5761159a610fcc565b5b60006115a9868287016110f5565b935050602084013567ffffffffffffffff8111156115ca576115c9610fd1565b5b6115d68682870161152c565b92509250509250925092565b60006020820190506115f760008301846111e2565b92915050565b7f4e487b7100000000000000000000000000000000000000000000000000000000600052602260045260246000fd5b6000600282049050600182168061164457607f821691505b602082108103611657576116566115fd565b5b50919050565b7f4e6f7420616e20617574686f72697a6564206973737565720000000000000000600082015250565b6000611693601883611151565b915061169e8261165d565b602082019050919050565b600060208201905081810360008301526116c281611686565b9050919050565b60008160601b9050919050565b60006116e1826116c9565b9050919050565b60006116f3826116d6565b9050919050565b61170b61170682610ff6565b6116e8565b82525050565b600081905092915050565b82818337600083830152505050565b60006117378385611711565b935061174483858461171c565b82840190509392505050565b6000819050919050565b61176b61176682611034565b611750565b82525050565b600061177d82886116fa565b60148201915061178d82876116fa565b60148201915061179e82858761172b565b91506117aa828461175a565b6020820191508190509695505050505050565b7f4e487b7100000000000000000000000000000000000000000000000000000000600052604160045260246000fd5b60008190508160005260206000209050919050565b60006020601f8301049050919050565b600082821b905092915050565b60006008830261184e7fffffffffffffffffffffffffffffffffffffffffffffffffffffffffffffffff82611811565b6118588683611811565b95508019841693508086168417925050509392505050565b6000819050919050565b600061189561189061188b84611034565b611870565b611034565b9050919050565b6000819050919050565b6118af8361187a565b6118c36118bb8261189c565b84845461181e565b825550505050565b600090565b6118d86118cb565b6118e38184846118a6565b505050565b5b81811015611907576118fc6000826118d0565b6001810190506118e9565b5050565b601f82111561194c5761191d816117ec565b61192684611801565b81016020851015611935578190505b61194961194185611801565b8301826118e8565b50505b505050565b600082821c905092915050565b600061196f60001984600802611951565b1980831691505092915050565b6000611988838361195e565b9150826002028217905092915050565b6119a182611146565b67ffffffffffffffff8111156119ba576119b96117bd565b5b6119c4825461162c565b6119cf82828561190b565b600060209050601f831160018114611a0257600084156119f0578287015190505b6119fa858261197c565b865550611a62565b601f198416611a10866117ec565b60005b82811015611a3857848901518255600182019150602085019450602081019050611a13565b86831015611a555784890151611a51601f89168261195e565b8355505b6001600288020188555050505b505050505050565b6000611a768385611151565b9350611a8383858461171c565b611a8c8361118c565b840190509392505050565b60006020820190508181036000830152611ab2818486611a6a565b90509392505050565b7f4e6f7420617574686f72697a656420746f207265766f6b650000000000000000600082015250565b6000611af1601883611151565b9150611afc82611abb565b602082019050919050565b60006020820190508181036000830152611b2081611ae4565b9050919050565b7f43726564656e7469616c206973207265766f6b65640000000000000000000000600082015250565b6000611b5d601583611151565b9150611b6882611b27565b602082019050919050565b60006020820190508181036000830152611b8c81611b50565b9050919050565b7f43726564656e7469616c20657870697265640000000000000000000000000000600082015250565b6000611bc9601283611151565b9150611bd482611b93565b602082019050919050565b60006020820190508181036000830152611bf881611bbc565b905091905056fea264697066735822122003dc3eb0d2cf04dae07fefcfda921946fd2c294a9a3ecc5fd0a6070dbf6a536a64736f6c63430008140033",
  "linkReferences": {},
  "deployedLinkReferences": {}
}