{"contracts/DecentraID.sol":{"DecentraID":{"abi":[{"inputs":[],"name":"ReentrancyGuardReentrantCall","type":"error"},{"anonymous":false,"inputs":[{"indexed":true,"internalType":"address","name":"user","type":"address"},{"indexed":false,"internalType":"string","name":"did","type":"string"},{"indexed":false,"internalType":"string","name":"metadataHash","type":"string"},{"indexed":false,"internalType":"uint256","name":"timestamp","type":"uint256"}],"name":"IdentityRegistered","type":"event"},{"anonymous":false,"inputs":[{"indexed":true,"internalType":"address","name":"user","type":"address"},{"indexed":false,"internalType":"uint256","name":"timestamp","type":"uint256"}],"name":"IdentityRevoked","type":"event"},{"anonymous":false,"inputs":[{"indexed":true,"internalType":"address","name":"user","type":"address"},{"indexed":false,"internalType":"string","name":"newMetadataHash","type":"string"},{"indexed":false,"internalType":"uint256","name":"timestamp","type":"uint256"}],"name":"IdentityUpdated","type":"event"},{"inputs":[{"internalType":"address","name":"user","type":"address"}],"name":"getIdentity","outputs":[{"internalType":"string","name":"did","type":"string"},{"internalType":"string","name":"metadataHash","type":"string"},{"internalType":"bool","name":"isActive","type":"bool"},{"internalType":"uint256","name":"createdAt","type":"uint256"},{"internalType":"uint256","name":"updatedAt","type":"uint256"}],"stateMutability":"view","type":"function"},{"inputs":[{"internalType":"address","name":"user","type":"address"}],"name":"isIdentityActive","outputs":[{"internalType":"bool","name":"","type":"bool"}],"stateMutability":"view","type":"function"},{"inputs":[{"internalType":"string","name":"did","type":"string"},{"internalType":"string","name":"metadataHash","type":"string"}],"name":"registerIdentity","outputs":[],"stateMutability":"nonpayable","type":"function"},{"inputs":[],"name":"revokeIdentity","outputs":[],"stateMutability":"nonpayable","type":"function"},{"inputs":[{"internalType":"string","name":"newMetadataHash","type":"string"}],"name":"updateIdentity","outputs":[],"stateMutability":"nonpayable","type":"function"}],"evm":{"bytecode":{"linkReferences":{},"object":"608060405234801561001057600080fd5b5060016000819055506115bb806100286000396000f3fe608060405234801561001057600080fd5b50600436106100575760003560e01c80630be8293f1461005c5780632fea7b81146100785780637aee1e13146100ac578063dd4db94f146100c8578063f130f571146100d2575b600080fd5b61007660048036038101906100719190610af5565b610102565b005b610092600480360381019061008d9190610bd4565b6104ec565b6040516100a3959493929190610cc5565b60405180910390f35b6100c660048036038101906100c19190610d26565b610705565b005b6100d0610893565b005b6100ec60048036038101906100e79190610bd4565b6109dd565b6040516100f99190610d73565b60405180910390f35b61010a610a36565b60008484905011610150576040517f08c379a000000000000000000000000000000000000000000000000000000000815260040161014790610dda565b60405180910390fd5b60008282905011610196576040517f08c379a000000000000000000000000000000000000000000000000000000000815260040161018d90610e46565b60405180910390fd5b600160003373ffffffffffffffffffffffffffffffffffffffff1673ffffffffffffffffffffffffffffffffffffffff16815260200190815260200160002060020160009054906101000a900460ff1615610226576040517f08c379a000000000000000000000000000000000000000000000000000000000815260040161021d90610eb2565b60405180910390fd5b600073ffffffffffffffffffffffffffffffffffffffff1660028585604051610250929190610f11565b908152602001604051809103902060009054906101000a900473ffffffffffffffffffffffffffffffffffffffff1673ffffffffffffffffffffffffffffffffffffffff16146102d5576040517f08c379a00000000000000000000000000000000000000000000000000000000081526004016102cc90610f76565b60405180910390fd5b6040518060a0016040528085858080601f016020809104026020016040519081016040528093929190818152602001838380828437600081840152601f19601f82011690508083019250505050505050815260200183838080601f016020809104026020016040519081016040528093929190818152602001838380828437600081840152601f19601f82011690508083019250505050505050815260200160011515815260200142815260200142815250600160003373ffffffffffffffffffffffffffffffffffffffff1673ffffffffffffffffffffffffffffffffffffffff16815260200190815260200160002060008201518160000190816103db91906111d1565b5060208201518160010190816103f191906111d1565b5060408201518160020160006101000a81548160ff0219169083151502179055506060820151816003015560808201518160040155905050336002858560405161043c929190610f11565b908152602001604051809103902060006101000a81548173ffffffffffffffffffffffffffffffffffffffff021916908373ffffffffffffffffffffffffffffffffffffffff1602179055503373ffffffffffffffffffffffffffffffffffffffff167f85a5b01aa82568108addba6f06de4e85e18aca0bdfe69e41fca7e6e75ccf8cd285858585426040516104d69594939291906112d0565b60405180910390a26104e6610a7c565b50505050565b606080600080600080600160008873ffffffffffffffffffffffffffffffffffffffff1673ffffffffffffffffffffffffffffffffffffffff1681526020019081526020016000206040518060a001604052908160008201805461054f90610ff4565b80601f016020809104026020016040519081016040528092919081815260200182805461057b90610ff4565b80156105c85780601f1061059d576101008083540402835291602001916105c8565b820191906000526020600020905b8154815290600101906020018083116105ab57829003601f168201915b505050505081526020016001820180546105e190610ff4565b80601f016020809104026020016040519081016040528092919081815260200182805461060d90610ff4565b801561065a5780601f1061062f5761010080835404028352916020019161065a565b820191906000526020600020905b81548152906001019060200180831161063d57829003601f168201915b505050505081526020016002820160009054906101000a900460ff1615151515815260200160038201548152602001600482015481525050905080604001516106d8576040517f08c379a00000000000000000000000000000000000000000000000000000000081526004016106cf90611365565b60405180910390fd5b80600001518160200151826040015183606001518460800151955095509550955095505091939590929450565b61070d610a36565b600160003373ffffffffffffffffffffffffffffffffffffffff1673ffffffffffffffffffffffffffffffffffffffff16815260200190815260200160002060020160009054906101000a900460ff1661079c576040517f08c379a0000000000000000000000000000000000000000000000000000000008152600401610793906113d1565b60405180910390fd5b8181600160003373ffffffffffffffffffffffffffffffffffffffff1673ffffffffffffffffffffffffffffffffffffffff16815260200190815260200160002060010191826107ed9291906113fc565b5042600160003373ffffffffffffffffffffffffffffffffffffffff1673ffffffffffffffffffffffffffffffffffffffff168152602001908152602001600020600401819055503373ffffffffffffffffffffffffffffffffffffffff167ff766cba52472f168bac76b83b02493bdd09c6e1462599e934b7ecead5950d1d983834260405161087f939291906114cc565b60405180910390a261088f610a7c565b5050565b61089b610a36565b600160003373ffffffffffffffffffffffffffffffffffffffff1673ffffffffffffffffffffffffffffffffffffffff16815260200190815260200160002060020160009054906101000a900460ff1661092a576040517f08c379a00000000000000000000000000000000000000000000000000000000081526004016109219061154a565b60405180910390fd5b6000600160003373ffffffffffffffffffffffffffffffffffffffff1673ffffffffffffffffffffffffffffffffffffffff16815260200190815260200160002060020160006101000a81548160ff0219169083151502179055503373ffffffffffffffffffffffffffffffffffffffff167f3e3c59bb369a9da1f5c9df74adb044e1181c4e20448838f42d9e860bb0a18cdb426040516109cb919061156a565b60405180910390a26109db610a7c565b565b6000600160008373ffffffffffffffffffffffffffffffffffffffff1673ffffffffffffffffffffffffffffffffffffffff16815260200190815260200160002060020160009054906101000a900460ff169050919050565b600260005403610a72576040517f3ee5aeb500000000000000000000000000000000000000000000000000000000815260040160405180910390fd5b6002600081905550565b6001600081905550565b600080fd5b600080fd5b600080fd5b600080fd5b600080fd5b60008083601f840112610ab557610ab4610a90565b5b8235905067ffffffffffffffff811115610ad257610ad1610a95565b5b602083019150836001820283011115610aee57610aed610a9a565b5b9250929050565b60008060008060408587031215610b0f57610b0e610a86565b5b600085013567ffffffffffffffff811115610b2d57610b2c610a8b565b5b610b3987828801610a9f565b9450945050602085013567ffffffffffffffff811115610b5c57610b5b610a8b565b5b610b6887828801610a9f565b925092505092959194509250565b600073ffffffffffffffffffffffffffffffffffffffff82169050919050565b6000610ba182610b76565b9050919050565b610bb181610b96565b8114610bbc57600080fd5b50565b600081359050610bce81610ba8565b92915050565b600060208284031215610bea57610be9610a86565b5b6000610bf884828501610bbf565b91505092915050565b600081519050919050565b600082825260208201905092915050565b60005b83811015610c3b578082015181840152602081019050610c20565b60008484015250505050565b6000601f19601f8301169050919050565b6000610c6382610c01565b610c6d8185610c0c565b9350610c7d818560208601610c1d565b610c8681610c47565b840191505092915050565b60008115159050919050565b610ca681610c91565b82525050565b6000819050919050565b610cbf81610cac565b82525050565b600060a0820190508181036000830152610cdf8188610c58565b90508181036020830152610cf38187610c58565b9050610d026040830186610c9d565b610d0f6060830185610cb6565b610d1c6080830184610cb6565b9695505050505050565b60008060208385031215610d3d57610d3c610a86565b5b600083013567ffffffffffffffff811115610d5b57610d5a610a8b565b5b610d6785828601610a9f565b92509250509250929050565b6000602082019050610d886000830184610c9d565b92915050565b7f456d707479204449440000000000000000000000000000000000000000000000600082015250565b6000610dc4600983610c0c565b9150610dcf82610d8e565b602082019050919050565b60006020820190508181036000830152610df381610db7565b9050919050565b7f456d707479204d65746164617461204861736800000000000000000000000000600082015250565b6000610e30601383610c0c565b9150610e3b82610dfa565b602082019050919050565b60006020820190508181036000830152610e5f81610e23565b9050919050565b7f4964656e7469747920616c726561647920616374697665000000000000000000600082015250565b6000610e9c601783610c0c565b9150610ea782610e66565b602082019050919050565b60006020820190508181036000830152610ecb81610e8f565b9050919050565b600081905092915050565b82818337600083830152505050565b6000610ef88385610ed2565b9350610f05838584610edd565b82840190509392505050565b6000610f1e828486610eec565b91508190509392505050565b7f44494420616c7265616479207265676973746572656400000000000000000000600082015250565b6000610f60601683610c0c565b9150610f6b82610f2a565b602082019050919050565b60006020820190508181036000830152610f8f81610f53565b9050919050565b7f4e487b7100000000000000000000000000000000000000000000000000000000600052604160045260246000fd5b7f4e487b7100000000000000000000000000000000000000000000000000000000600052602260045260246000fd5b6000600282049050600182168061100c57607f821691505b60208210810361101f5761101e610fc5565b5b50919050565b60008190508160005260206000209050919050565b60006020601f8301049050919050565b600082821b905092915050565b6000600883026110877fffffffffffffffffffffffffffffffffffffffffffffffffffffffffffffffff8261104a565b611091868361104a565b95508019841693508086168417925050509392505050565b6000819050919050565b60006110ce6110c96110c484610cac565b6110a9565b610cac565b9050919050565b6000819050919050565b6110e8836110b3565b6110fc6110f4826110d5565b848454611057565b825550505050565b600090565b611111611104565b61111c8184846110df565b505050565b5b8181101561114057611135600082611109565b600181019050611122565b5050565b601f8211156111855761115681611025565b61115f8461103a565b8101602085101561116e578190505b61118261117a8561103a565b830182611121565b50505b505050565b600082821c905092915050565b60006111a86000198460080261118a565b1980831691505092915050565b60006111c18383611197565b9150826002028217905092915050565b6111da82610c01565b67ffffffffffffffff8111156111f3576111f2610f96565b5b6111fd8254610ff4565b611208828285611144565b600060209050601f83116001811461123b5760008415611229578287015190505b61123385826111b5565b86555061129b565b601f19841661124986611025565b60005b828110156112715784890151825560018201915060208501945060208101905061124c565b8683101561128e578489015161128a601f891682611197565b8355505b6001600288020188555050505b505050505050565b60006112af8385610c0c565b93506112bc838584610edd565b6112c583610c47565b840190509392505050565b600060608201905081810360008301526112eb8187896112a3565b905081810360208301526113008185876112a3565b905061130f6040830184610cb6565b9695505050505050565b7f4964656e7469747920696e616374697665000000000000000000000000000000600082015250565b600061134f601183610c0c565b915061135a82611319565b602082019050919050565b6000602082019050818103600083015261137e81611342565b9050919050565b7f4964656e74697479206e6f7420666f756e640000000000000000000000000000600082015250565b60006113bb601283610c0c565b91506113c682611385565b602082019050919050565b600060208201905081810360008301526113ea816113ae565b9050919050565b600082905092915050565b61140683836113f1565b67ffffffffffffffff81111561141f5761141e610f96565b5b6114298254610ff4565b611434828285611144565b6000601f8311600181146114635760008415611451578287013590505b61145b85826111b5565b8655506114c3565b601f19841661147186611025565b60005b8281101561149957848901358255600182019150602085019450602081019050611474565b868310156114b657848901356114b2601f891682611197565b8355505b6001600288020188555050505b50505050505050565b600060408201905081810360008301526114e78185876112a3565b90506114f66020830184610cb6565b949350505050565b7f4e6f20616374697665206964656e746974790000000000000000000000000000600082015250565b6000611534601283610c0c565b915061153f826114fe565b602082019050919050565b6000602082019050818103600083015261156381611527565b9050919050565b600060208201905061157f6000830184610cb6565b9291505056fea264697066735822122099d0a5f2c711d6ab0b26d1021f6000c324f5be57864136274582a09d21e363b364736f6c63430008140033","opcodes":"PUSH1 0x80 PUSH1 0x40 MSTORE CALLVALUE DUP1 ISZERO PUSH2 0x10 JUMPI PUSH1 0x0 DUP1 REVERT JUMPDEST POP PUSH1 0x1 PUSH1 0x0 DUP2 SWAP1 SSTORE POP PUSH2 0x15BB DUP1 PUSH2 0x28 PUSH1 0x0 CODECOPY PUSH1 0x0 RETURN INVALID PUSH1 0x80 PUSH1 0x40 MSTORE CALLVALUE DUP1 ISZERO PUSH2 0x10 JUMPI PUSH1 0x0 DUP1 REVERT JUMPDEST POP PUSH1 0x4 CALLDATASIZE LT PUSH2 0x57 JUMPI PUSH1 0x0 CALLDATALOAD PUSH1 0xE0 SHR DUP1 PUSH4 0xBE8293F EQ PUSH2 0x5C JUMPI DUP1 PUSH4 0x2FEA7B81 EQ PUSH2 0x78 JUMPI DUP1 PUSH4 0x7AEE1E13 EQ PUSH2 0xAC JUMPI DUP1 PUSH4 0xDD4DB94F EQ PUSH2 0xC8 JUMPI DUP1 PUSH4 0xF130F571 EQ PUSH2 0xD2 JUMPI JUMPDEST PUSH1 0x0 DUP1 REVERT JUMPDEST PUSH2 0x76 PUSH1 0x4 DUP1 CALLDATASIZE SUB DUP2 ADD SWAP1 PUSH2 0x71 SWAP2 SWAP1 PUSH2 0xAF5 JUMP JUMPDEST PUSH2 0x102 JUMP JUMPDEST STOP JUMPDEST PUSH2 0x92 PUSH1 0x4 DUP1 CALLDATASIZE SUB DUP2 ADD SWAP1 PUSH2 0x8D SWAP2 SWAP1 PUSH2 0xBD4 JUMP JUMPDEST PUSH2 0x4EC JUMP JUMPDEST PUSH1 0x40 MLOAD PUSH2 0xA3 SWAP6 SWAP5 SWAP4 SWAP3 SWAP2 SWAP1 PUSH2 0xCC5 JUMP JUMPDEST PUSH1 0x40 MLOAD DUP1 SWAP2 SUB SWAP1 RETURN JUMPDEST PUSH2 0xC6 PUSH1 0x4 DUP1 CALLDATASIZE SUB DUP2 ADD SWAP1 PUSH2 0xC1 SWAP2 SWAP1 PUSH2 0xD26 JUMP JUMPDEST PUSH2 0x705 JUMP JUMPDEST STOP JUMPDEST PUSH2 0xD0 PUSH2 0x893 JUMP JUMPDEST STOP JUMPDEST PUSH2 0xEC PUSH1 0x4 DUP1 CALLDATASIZE SUB DUP2 ADD SWAP1 PUSH2 0xE7 SWAP2 SWAP1 PUSH2 0xBD4 JUMP JUMPDEST PUSH2 0x9DD JUMP JUMPDEST PUSH1 0x40 MLOAD PUSH2 0xF9 SWAP2 SWAP1 PUSH2 0xD73 JUMP JUMPDEST PUSH1 0x40 MLOAD DUP1 SWAP2 SUB SWAP1 RETURN JUMPDEST PUSH2 0x10A PUSH2 0xA36 JUMP JUMPDEST PUSH1 0x0 DUP5 DUP5 SWAP1 POP GT PUSH2 0x150 JUMPI PUSH1 0x40 MLOAD PUSH32 0x8C379A000000000000000000000000000000000000000000000000000000000 DUP2 MSTORE PUSH1 0x4 ADD PUSH2 0x147 SWAP1 PUSH2 0xDDA JUMP JUMPDEST PUSH1 0x40 MLOAD DUP1 SWAP2 SUB SWAP1 REVERT JUMPDEST PUSH1 0x0 DUP3 DUP3 SWAP1 POP GT PUSH2 0x196 JUMPI PUSH1 0x40 MLOAD PUSH32 0x8C379A000000000000000000000000000000000000000000000000000000000 DUP2 MSTORE PUSH1 0x4 ADD PUSH2 0x18D SWAP1 PUSH2 0xE46 JUMP JUMPDEST PUSH1 0x40 MLOAD DUP1 SWAP2 SUB SWAP1 REVERT JUMPDEST PUSH1 0x1 PUSH1 0x0 CALLER PUSH20 0xFFFFFFFFFFFFFFFFFFFFFFFFFFFFFFFFFFFFFFFF AND PUSH20 0xFFFFFFFFFFFFFFFFFFFFFFFFFFFFFFFFFFFFFFFF AND DUP2 MSTORE PUSH1 0x20 ADD SWAP1 DUP2 MSTORE PUSH1 0x20 ADD PUSH1 0x0 KECCAK256 PUSH1 0x2 ADD PUSH1 0x0 SWAP1 SLOAD SWAP1 PUSH2 0x100 EXP SWAP1 DIV PUSH1 0xFF AND ISZERO PUSH2 0x226 JUMPI PUSH1 0x40 MLOAD PUSH32 0x8C379A000000000000000000000000000000000000000000000000000000000 DUP2 MSTORE PUSH1 0x4 ADD PUSH2 0x21D SWAP1 PUSH2 0xEB2 JUMP JUMPDEST PUSH1 0x40 MLOAD DUP1 SWAP2 SUB SWAP1 REVERT JUMPDEST PUSH1 0x0 PUSH20 0xFFFFFFFFFFFFFFFFFFFFFFFFFFFFFFFFFFFFFFFF AND PUSH1 0x2 DUP6 DUP6 PUSH1 0x40 MLOAD PUSH2 0x250 SWAP3 SWAP2 SWAP1 PUSH2 0xF11 JUMP JUMPDEST SWAP1 DUP2 MSTORE PUSH1 0x20 ADD PUSH1 0x40 MLOAD DUP1 SWAP2 SUB SWAP1 KECCAK256 PUSH1 0x0 SWAP1 SLOAD SWAP1 PUSH2 0x100 EXP SWAP1 DIV PUSH20 0xFFFFFFFFFFFFFFFFFFFFFFFFFFFFFFFFFFFFFFFF AND PUSH20 0xFFFFFFFFFFFFFFFFFFFFFFFFFFFFFFFFFFFFFFFF AND EQ PUSH2 0x2D5 JUMPI PUSH1 0x40 MLOAD PUSH32 0x8C379A000000000000000000000000000000000000000000000000000000000 DUP2 MSTORE PUSH1 0x4 ADD PUSH2 0x2CC SWAP1 PUSH2 0xF76 JUMP JUMPDEST PUSH1 0x40 MLOAD DUP1 SWAP2 SUB SWAP1 REVERT JUMPDEST PUSH1 0x40 MLOAD DUP1 PUSH1 0xA0 ADD PUSH1 0x40 MSTORE DUP1 DUP6 DUP6 DUP1 DUP1 PUSH1 0x1F ADD PUSH1 0x20 DUP1 SWAP2 DIV MUL PUSH1 0x20 ADD PUSH1 0x40 MLOAD SWAP1 DUP2 ADD PUSH1 0x40 MSTORE DUP1 SWAP4 SWAP3 SWAP2 SWAP1 DUP2 DUP2 MSTORE PUSH1 0x20 ADD DUP4 DUP4 DUP1 DUP3 DUP5 CALLDATACOPY PUSH1 0x0 DUP2 DUP5 ADD MSTORE PUSH1 0x1F NOT PUSH1 0x1F DUP3 ADD AND SWAP1 POP DUP1 DUP4 ADD SWAP3 POP POP POP POP POP POP POP DUP2 MSTORE PUSH1 0x20 ADD DUP4 DUP4 DUP1 DUP1 PUSH1 0x1F ADD PUSH1 0x20 DUP1 SWAP2 DIV MUL PUSH1 0x20 ADD PUSH1 0x40 MLOAD SWAP1 DUP2 ADD PUSH1 0x40 MSTORE DUP1 SWAP4 SWAP3 SWAP2 SWAP1 DUP2 DUP2 MSTORE PUSH1 0x20 ADD DUP4 DUP4 DUP1 DUP3 DUP5 CALLDATACOPY PUSH1 0x0 DUP2 DUP5 ADD MSTORE PUSH1 0x1F NOT PUSH1 0x1F DUP3 ADD AND SWAP1 POP DUP1 DUP4 ADD SWAP3 POP POP POP POP POP POP POP DUP2 MSTORE PUSH1 0x20 ADD PUSH1 0x1 ISZERO ISZERO DUP2 MSTORE PUSH1 0x20 ADD TIMESTAMP DUP2 MSTORE PUSH1 0x20 ADD TIMESTAMP DUP2 MSTORE POP PUSH1 0x1 PUSH1 0x0 CALLER PUSH20 0xFFFFFFFFFFFFFFFFFFFFFFFFFFFFFFFFFFFFFFFF AND PUSH20 0xFFFFFFFFFFFFFFFFFFFFFFFFFFFFFFFFFFFFFFFF AND DUP2 MSTORE PUSH1 0x20 ADD SWAP1 DUP2 MSTORE PUSH1 0x20 ADD PUSH1 0x0 KECCAK256 PUSH1 0x0 DUP3 ADD MLOAD DUP2 PUSH1 0x0 ADD SWAP1 DUP2 PUSH2 0x3DB SWAP2 SWAP1 PUSH2 0x11D1 JUMP JUMPDEST POP PUSH1 0x20 DUP3 ADD MLOAD DUP2 PUSH1 0x1 ADD SWAP1 DUP2 PUSH2 0x3F1 SWAP2 SWAP1 PUSH2 0x11D1 JUMP JUMPDEST POP PUSH1 0x40 DUP3 ADD MLOAD DUP2 PUSH1 0x2 ADD PUSH1 0x0 PUSH2 0x100 EXP DUP2 SLOAD DUP2 PUSH1 0xFF MUL NOT AND SWAP1 DUP4 ISZERO ISZERO MUL OR SWAP1 SSTORE POP PUSH1 0x60 DUP3 ADD MLOAD DUP2 PUSH1 0x3 ADD SSTORE PUSH1 0x80 DUP3 ADD MLOAD DUP2 PUSH1 0x4 ADD SSTORE SWAP1 POP POP CALLER PUSH1 0x2 DUP6 DUP6 PUSH1 0x40 MLOAD PUSH2 0x43C SWAP3 SWAP2 SWAP1 PUSH2 0xF11 JUMP JUMPDEST SWAP1 DUP2 MSTORE PUSH1 0x20 ADD PUSH1 0x40 MLOAD DUP1 SWAP2 SUB SWAP1 KECCAK256 PUSH1 0x0 PUSH2 0x100 EXP DUP2 SLOAD DUP2 PUSH20 0xFFFFFFFFFFFFFFFFFFFFFFFFFFFFFFFFFFFFFFFF MUL NOT AND SWAP1 DUP4 PUSH20 0xFFFFFFFFFFFFFFFFFFFFFFFFFFFFFFFFFFFFFFFF AND MUL OR SWAP1 SSTORE POP CALLER PUSH20 0xFFFFFFFFFFFFFFFFFFFFFFFFFFFFFFFFFFFFFFFF AND PUSH32 0x85A5B01AA82568108ADDBA6F06DE4E85E18ACA0BDFE69E41FCA7E6E75CCF8CD2 DUP6 DUP6 DUP6 DUP6 TIMESTAMP PUSH1 0x40 MLOAD PUSH2 0x4D6 SWAP6 SWAP5 SWAP4 SWAP3 SWAP2 SWAP1 PUSH2 0x12D0 JUMP JUMPDEST PUSH1 0x40 MLOAD DUP1 SWAP2 SUB SWAP1 LOG2 PUSH2 0x4E6 PUSH2 0xA7C JUMP JUMPDEST POP POP POP POP JUMP JUMPDEST PUSH1 0x60 DUP1 PUSH1 0x0 DUP1 PUSH1 0x0 DUP1 PUSH1 0x1 PUSH1 0x0 DUP9 PUSH20 0xFFFFFFFFFFFFFFFFFFFFFFFFFFFFFFFFFFFFFFFF AND PUSH20 0xFFFFFFFFFFFFFFFFFFFFFFFFFFFFFFFFFFFFFFFF AND DUP2 MSTORE PUSH1 0x20 ADD SWAP1 DUP2 MSTORE PUSH1 0x20 ADD PUSH1 0x0 KECCAK256 PUSH1 0x40 MLOAD DUP1 PUSH1 0xA0 ADD PUSH1 0x40 MSTORE SWAP1 DUP2 PUSH1 0x0 DUP3 ADD DUP1 SLOAD PUSH2 0x54F SWAP1 PUSH2 0xFF4 JUMP JUMPDEST DUP1 PUSH1 0x1F ADD PUSH1 0x20 DUP1 SWAP2 DIV MUL PUSH1 0x20 ADD PUSH1 0x40 MLOAD SWAP1 DUP2 ADD PUSH1 0x40 MSTORE DUP1 SWAP3 SWAP2 SWAP1 DUP2 DUP2 MSTORE PUSH1 0x20 ADD DUP3 DUP1 SLOAD PUSH2 0x57B SWAP1 PUSH2 0xFF4 JUMP JUMPDEST DUP1 ISZERO PUSH2 0x5C8 JUMPI DUP1 PUSH1 0x1F LT PUSH2 0x59D JUMPI PUSH2 0x100 DUP1 DUP4 SLOAD DIV MUL DUP4 MSTORE SWAP2 PUSH1 0x20 ADD SWAP2 PUSH2 0x5C8 JUMP JUMPDEST DUP3 ADD SWAP2 SWAP1 PUSH1 0x0 MSTORE PUSH1 0x20 PUSH1 0x0 KECCAK256 SWAP1 JUMPDEST DUP2 SLOAD DUP2 MSTORE SWAP1 PUSH1 0x1 ADD SWAP1 PUSH1 0x20 ADD DUP1 DUP4 GT PUSH2 0x5AB JUMPI DUP3 SWAP1 SUB PUSH1 0x1F AND DUP3 ADD SWAP2 JUMPDEST POP POP POP POP POP DUP2 MSTORE PUSH1 0x20 ADD PUSH1 0x1 DUP3 ADD DUP1 SLOAD PUSH2 0x5E1 SWAP1 PUSH2 0xFF4 JUMP JUMPDEST DUP1 PUSH1 0x1F ADD PUSH1 0x20 DUP1 SWAP2 DIV MUL PUSH1 0x20 ADD PUSH1 0x40 MLOAD SWAP1 DUP2 ADD PUSH1 0x40 MSTORE DUP1 SWAP3 SWAP2 SWAP1 DUP2 DUP2 MSTORE PUSH1 0x20 ADD DUP3 DUP1 SLOAD PUSH2 0x60D SWAP1 PUSH2 0xFF4 JUMP JUMPDEST DUP1 ISZERO PUSH2 0x65A JUMPI DUP1 PUSH1 0x1F LT PUSH2 0x62F JUMPI PUSH2 0x100 DUP1 DUP4 SLOAD DIV MUL DUP4 MSTORE SWAP2 PUSH1 0x20 ADD SWAP2 PUSH2 0x65A JUMP JUMPDEST DUP3 ADD SWAP2 SWAP1 PUSH1 0x0 MSTORE PUSH1 0x20 PUSH1 0x0 KECCAK256 SWAP1 JUMPDEST DUP2 SLOAD DUP2 MSTORE SWAP1 PUSH1 0x1 ADD SWAP1 PUSH1 0x20 ADD DUP1 DUP4 GT PUSH2 0x63D JUMPI DUP3 SWAP1 SUB PUSH1 0x1F AND DUP3 ADD SWAP2 JUMPDEST POP POP POP POP POP DUP2 MSTORE PUSH1 0x20 ADD PUSH1 0x2 DUP3 ADD PUSH1 0x0 SWAP1 SLOAD SWAP1 PUSH2 0x100 EXP SWAP1 DIV PUSH1 0xFF AND ISZERO ISZERO ISZERO ISZERO DUP2 MSTORE PUSH1 0x20 ADD PUSH1 0x3 DUP3 ADD SLOAD DUP2 MSTORE PUSH1 0x20 ADD PUSH1 0x4 DUP3 ADD SLOAD DUP2 MSTORE POP POP SWAP1 POP DUP1 PUSH1 0x40 ADD MLOAD PUSH2 0x6D8 JUMPI PUSH1 0x40 MLOAD PUSH32 0x8C379A000000000000000000000000000000000000000000000000000000000 DUP2 MSTORE PUSH1 0x4 ADD PUSH2 0x6CF SWAP1 PUSH2 0x1365 JUMP JUMPDEST PUSH1 0x40 MLOAD DUP1 SWAP2 SUB SWAP1 REVERT JUMPDEST DUP1 PUSH1 0x0 ADD MLOAD DUP2 PUSH1 0x20 ADD MLOAD DUP3 PUSH1 0x40 ADD MLOAD DUP4 PUSH1 0x60 ADD MLOAD DUP5 PUSH1 0x80 ADD MLOAD SWAP6 POP SWAP6 POP SWAP6 POP SWAP6 POP SWAP6 POP POP SWAP2 SWAP4 SWAP6 SWAP1 SWAP3 SWAP5 POP JUMP JUMPDEST PUSH2 0x70D PUSH2 0xA36 JUMP JUMPDEST PUSH1 0x1 PUSH1 0x0 CALLER PUSH20 0xFFFFFFFFFFFFFFFFFFFFFFFFFFFFFFFFFFFFFFFF AND PUSH20 0xFFFFFFFFFFFFFFFFFFFFFFFFFFFFFFFFFFFFFFFF AND DUP2 MSTORE PUSH1 0x20 ADD SWAP1 DUP2 MSTORE PUSH1 0x20 ADD PUSH1 0x0 KECCAK256 PUSH1 0x2 ADD PUSH1 0x0 SWAP1 SLOAD SWAP1 PUSH2 0x100 EXP SWAP1 DIV PUSH1 0xFF AND PUSH2 0x79C JUMPI PUSH1 0x40 MLOAD PUSH32 0x8C379A000000000000000000000000000000000000000000000000000000000 DUP2 MSTORE PUSH1 0x4 ADD PUSH2 0x793 SWAP1 PUSH2 0x13D1 JUMP JUMPDEST PUSH1 0x40 MLOAD DUP1 SWAP2 SUB SWAP1 REVERT JUMPDEST DUP2 DUP2 PUSH1 0x1 PUSH1 0x0 CALLER PUSH20 0xFFFFFFFFFFFFFFFFFFFFFFFFFFFFFFFFFFFFFFFF AND PUSH20 0xFFFFFFFFFFFFFFFFFFFFFFFFFFFFFFFFFFFFFFFF AND DUP2 MSTORE PUSH1 0x20 ADD SWAP1 DUP2 MSTORE PUSH1 0x20 ADD PUSH1 0x0 KECCAK256 PUSH1 0x1 ADD SWAP2 DUP3 PUSH2 0x7ED SWAP3 SWAP2 SWAP1 PUSH2 0x13FC JUMP JUMPDEST POP TIMESTAMP PUSH1 0x1 PUSH1 0x0 CALLER PUSH20 0xFFFFFFFFFFFFFFFFFFFFFFFFFFFFFFFFFFFFFFFF AND PUSH20 0xFFFFFFFFFFFFFFFFFFFFFFFFFFFFFFFFFFFFFFFF AND DUP2 MSTORE PUSH1 0x20 ADD SWAP1 DUP2 MSTORE PUSH1 0x20 ADD PUSH1 0x0 KECCAK256 PUSH1 0x4 ADD DUP2 SWAP1 SSTORE POP CALLER PUSH20 0xFFFFFFFFFFFFFFFFFFFFFFFFFFFFFFFFFFFFFFFF AND PUSH32 0xF766CBA52472F168BAC76B83B02493BDD09C6E1462599E934B7ECEAD5950D1D9 DUP4 DUP4 TIMESTAMP PUSH1 0x40 MLOAD PUSH2 0x87F SWAP4 SWAP3 SWAP2 SWAP1 PUSH2 0x14CC JUMP JUMPDEST PUSH1 0x40 MLOAD DUP1 SWAP2 SUB SWAP1 LOG2 PUSH2 0x88F PUSH2 0xA7C JUMP JUMPDEST POP POP JUMP JUMPDEST PUSH2 0x89B PUSH2 0xA36 JUMP JUMPDEST PUSH1 0x1 PUSH1 0x0 CALLER PUSH20 0xFFFFFFFFFFFFFFFFFFFFFFFFFFFFFFFFFFFFFFFF AND PUSH20 0xFFFFFFFFFFFFFFFFFFFFFFFFFFFFFFFFFFFFFFFF AND DUP2 MSTORE PUSH1 0x20 ADD SWAP1 DUP2 MSTORE PUSH1 0x20 ADD PUSH1 0x0 KECCAK256 PUSH1 0x2 ADD PUSH1 0x0 SWAP1 SLOAD SWAP1 PUSH2 0x100 EXP SWAP1 DIV PUSH1 0xFF AND PUSH2 0x92A JUMPI PUSH1 0x40 MLOAD PUSH32 0x8C379A000000000000000000000000000000000000000000000000000000000 DUP2 MSTORE PUSH1 0x4 ADD PUSH2 0x921 SWAP1 PUSH2 0x154A JUMP JUMPDEST PUSH1 0x40 MLOAD DUP1 SWAP2 SUB SWAP1 REVERT JUMPDEST PUSH1 0x0 PUSH1 0x1 PUSH1 0x0 CALLER PUSH20 0xFFFFFFFFFFFFFFFFFFFFFFFFFFFFFFFFFFFFFFFF AND PUSH20 0xFFFFFFFFFFFFFFFFFFFFFFFFFFFFFFFFFFFFFFFF AND DUP2 MSTORE PUSH1 0x20 ADD SWAP1 DUP2 MSTORE PUSH1 0x20 ADD PUSH1 0x0 KECCAK256 PUSH1 0x2 ADD PUSH1 0x0 PUSH2 0x100 EXP DUP2 SLOAD DUP2 PUSH1 0xFF MUL NOT AND SWAP1 DUP4 ISZERO ISZERO MUL OR SWAP1 SSTORE POP CALLER PUSH20 0xFFFFFFFFFFFFFFFFFFFFFFFFFFFFFFFFFFFFFFFF AND PUSH32 0x3E3C59BB369A9DA1F5C9DF74ADB044E1181C4E20448838F42D9E860BB0A18CDB TIMESTAMP PUSH1 0x40 MLOAD PUSH2 0x9CB SWAP2 SWAP1 PUSH2 0x156A JUMP JUMPDEST PUSH1 0x40 MLOAD DUP1 SWAP2 SUB SWAP1 LOG2 PUSH2 0x9DB PUSH2 0xA7C JUMP JUMPDEST JUMP JUMPDEST PUSH1 0x0 PUSH1 0x1 PUSH1 0x0 DUP4 PUSH20 0xFFFFFFFFFFFFFFFFFFFFFFFFFFFFFFFFFFFFFFFF AND PUSH20 0xFFFFFFFFFFFFFFFFFFFFFFFFFFFFFFFFFFFFFFFF AND DUP2 MSTORE PUSH1 0x20 ADD SWAP1 DUP2 MSTORE PUSH1 0x20 ADD PUSH1 0x0 KECCAK256 PUSH1 0x2 ADD PUSH1 0x0 SWAP1 SLOAD SWAP1 PUSH2 0x100 EXP SWAP1 DIV PUSH1 0xFF AND SWAP1 POP SWAP2 SWAP1 POP JUMP JUMPDEST PUSH1 0x2 PUSH1 0x0 SLOAD SUB PUSH2 0xA72 JUMPI PUSH1 0x40 MLOAD PUSH32 0x3EE5AEB500000000000000000000000000000000000000000000000000000000 DUP2 MSTORE PUSH1 0x4 ADD PUSH1 0x40 MLOAD DUP1 SWAP2 SUB SWAP1 REVERT JUMPDEST PUSH1 0x2 PUSH1 0x0 DUP2 SWAP1 SSTORE POP JUMP JUMPDEST PUSH1 0x1 PUSH1 0x0 DUP2 SWAP1 SSTORE POP JUMP JUMPDEST PUSH1 0x0 DUP1 REVERT JUMPDEST PUSH1 0x0 DUP1 REVERT JUMPDEST PUSH1 0x0 DUP1 REVERT JUMPDEST PUSH1 0x0 DUP1 REVERT JUMPDEST PUSH1 0x0 DUP1 REVERT JUMPDEST PUSH1 0x0 DUP1 DUP4 PUSH1 0x1F DUP5 ADD SLT PUSH2 0xAB5 JUMPI PUSH2 0xAB4 PUSH2 0xA90 JUMP JUMPDEST JUMPDEST DUP3 CALLDATALOAD SWAP1 POP PUSH8 0xFFFFFFFFFFFFFFFF DUP2 GT ISZERO PUSH2 0xAD2 JUMPI PUSH2 0xAD1 PUSH2 0xA95 JUMP JUMPDEST JUMPDEST PUSH1 0x20 DUP4 ADD SWAP2 POP DUP4 PUSH1 0x1 DUP3 MUL DUP4 ADD GT ISZERO PUSH2 0xAEE JUMPI PUSH2 0xAED PUSH2 0xA9A JUMP JUMPDEST JUMPDEST SWAP3 POP SWAP3 SWAP1 POP JUMP JUMPDEST PUSH1 0x0 DUP1 PUSH1 0x0 DUP1 PUSH1 0x40 DUP6 DUP8 SUB SLT ISZERO PUSH2 0xB0F JUMPI PUSH2 0xB0E PUSH2 0xA86 JUMP JUMPDEST JUMPDEST PUSH1 0x0 DUP6 ADD CALLDATALOAD PUSH8 0xFFFFFFFFFFFFFFFF DUP2 GT ISZERO PUSH2 0xB2D JUMPI PUSH2 0xB2C PUSH2 0xA8B JUMP JUMPDEST JUMPDEST PUSH2 0xB39 DUP8 DUP3 DUP9 ADD PUSH2 0xA9F JUMP JUMPDEST SWAP5 POP SWAP5 POP POP PUSH1 0x20 DUP6 ADD CALLDATALOAD PUSH8 0xFFFFFFFFFFFFFFFF DUP2 GT ISZERO PUSH2 0xB5C JUMPI PUSH2 0xB5B PUSH2 0xA8B JUMP JUMPDEST JUMPDEST PUSH2 0xB68 DUP8 DUP3 DUP9 ADD PUSH2 0xA9F JUMP JUMPDEST SWAP3 POP SWAP3 POP POP SWAP3 SWAP6 SWAP2 SWAP5 POP SWAP3 POP JUMP JUMPDEST PUSH1 0x0 PUSH20 0xFFFFFFFFFFFFFFFFFFFFFFFFFFFFFFFFFFFFFFFF DUP3 AND SWAP1 POP SWAP2 SWAP1 POP JUMP JUMPDEST PUSH1 0x0 PUSH2 0xBA1 DUP3 PUSH2 0xB76 JUMP JUMPDEST SWAP1 POP SWAP2 SWAP1 POP JUMP JUMPDEST PUSH2 0xBB1 DUP2 PUSH2 0xB96 JUMP JUMPDEST DUP2 EQ PUSH2 0xBBC JUMPI PUSH1 0x0 DUP1 REVERT JUMPDEST POP JUMP JUMPDEST PUSH1 0x0 DUP2 CALLDATALOAD SWAP1 POP PUSH2 0xBCE DUP2 PUSH2 0xBA8 JUMP JUMPDEST SWAP3 SWAP2 POP POP JUMP JUMPDEST PUSH1 0x0 PUSH1 0x20 DUP3 DUP5 SUB SLT ISZERO PUSH2 0xBEA JUMPI PUSH2 0xBE9 PUSH2 0xA86 JUMP JUMPDEST JUMPDEST PUSH1 0x0 PUSH2 0xBF8 DUP5 DUP3 DUP6 ADD PUSH2 0xBBF JUMP JUMPDEST SWAP2 POP POP SWAP3 SWAP2 POP POP JUMP JUMPDEST PUSH1 0x0 DUP2 MLOAD SWAP1 POP SWAP2 SWAP1 POP JUMP JUMPDEST PUSH1 0x0 DUP3 DUP3 MSTORE PUSH1 0x20 DUP3 ADD SWAP1 POP SWAP3 SWAP2 POP POP JUMP JUMPDEST PUSH1 0x0 JUMPDEST DUP4 DUP2 LT ISZERO PUSH2 0xC3B JUMPI DUP1 DUP3 ADD MLOAD DUP2 DUP5 ADD MSTORE PUSH1 0x20 DUP2 ADD SWAP1 POP PUSH2 0xC20 JUMP JUMPDEST PUSH1 0x0 DUP5 DUP5 ADD MSTORE POP POP POP POP JUMP JUMPDEST PUSH1 0x0 PUSH1 0x1F NOT PUSH1 0x1F DUP4 ADD AND SWAP1 POP SWAP2 SWAP1 POP JUMP JUMPDEST PUSH1 0x0 PUSH2 0xC63 DUP3 PUSH2 0xC01 JUMP JUMPDEST PUSH2 0xC6D DUP2 DUP6 PUSH2 0xC0C JUMP JUMPDEST SWAP4 POP PUSH2 0xC7D DUP2 DUP6 PUSH1 0x20 DUP7 ADD PUSH2 0xC1D JUMP JUMPDEST PUSH2 0xC86 DUP2 PUSH2 0xC47 JUMP JUMPDEST DUP5 ADD SWAP2 POP POP SWAP3 SWAP2 POP POP JUMP JUMPDEST PUSH1 0x0 DUP2 ISZERO ISZERO SWAP1 POP SWAP2 SWAP1 POP JUMP JUMPDEST PUSH2 0xCA6 DUP2 PUSH2 0xC91 JUMP JUMPDEST DUP3 MSTORE POP POP JUMP JUMPDEST PUSH1 0x0 DUP2 SWAP1 POP SWAP2 SWAP1 POP JUMP JUMPDEST PUSH2 0xCBF DUP2 PUSH2 0xCAC JUMP JUMPDEST DUP3 MSTORE POP POP JUMP JUMPDEST PUSH1 0x0 PUSH1 0xA0 DUP3 ADD SWAP1 POP DUP2 DUP2 SUB PUSH1 0x0 DUP4 ADD MSTORE PUSH2 0xCDF DUP2 DUP9 PUSH2 0xC58 JUMP JUMPDEST SWAP1 POP DUP2 DUP2 SUB PUSH1 0x20 DUP4 ADD MSTORE PUSH2 0xCF3 DUP2 DUP8 PUSH2 0xC58 JUMP JUMPDEST SWAP1 POP PUSH2 0xD02 PUSH1 0x40 DUP4 ADD DUP7 PUSH2 0xC9D JUMP JUMPDEST PUSH2 0xD0F PUSH1 0x60 DUP4 ADD DUP6 PUSH2 0xCB6 JUMP JUMPDEST PUSH2 0xD1C PUSH1 0x80 DUP4 ADD DUP5 PUSH2 0xCB6 JUMP JUMPDEST SWAP7 SWAP6 POP POP POP POP POP POP JUMP JUMPDEST PUSH1 0x0 DUP1 PUSH1 0x20 DUP4 DUP6 SUB SLT ISZERO PUSH2 0xD3D JUMPI PUSH2 0xD3C PUSH2 0xA86 JUMP JUMPDEST JUMPDEST PUSH1 0x0 DUP4 ADD CALLDATALOAD PUSH8 0xFFFFFFFFFFFFFFFF DUP2 GT ISZERO PUSH2 0xD5B JUMPI PUSH2 0xD5A PUSH2 0xA8B JUMP JUMPDEST JUMPDEST PUSH2 0xD67 DUP6 DUP3 DUP7 ADD PUSH2 0xA9F JUMP JUMPDEST SWAP3 POP SWAP3 POP POP SWAP3 POP SWAP3 SWAP1 POP JUMP JUMPDEST PUSH1 0x0 PUSH1 0x20 DUP3 ADD SWAP1 POP PUSH2 0xD88 PUSH1 0x0 DUP4 ADD DUP5 PUSH2 0xC9D JUMP JUMPDEST SWAP3 SWAP2 POP POP JUMP JUMPDEST PUSH32 0x456D707479204449440000000000000000000000000000000000000000000000 PUSH1 0x0 DUP3 ADD MSTORE POP JUMP JUMPDEST PUSH1 0x0 PUSH2 0xDC4 PUSH1 0x9 DUP4 PUSH2 0xC0C JUMP JUMPDEST SWAP2 POP PUSH2 0xDCF DUP3 PUSH2 0xD8E JUMP JUMPDEST PUSH1 0x20 DUP3 ADD SWAP1 POP SWAP2 SWAP1 POP JUMP JUMPDEST PUSH1 0x0 PUSH1 0x20 DUP3 ADD SWAP1 POP DUP2 DUP2 SUB PUSH1 0x0 DUP4 ADD MSTORE PUSH2 0xDF3 DUP2 PUSH2 0xDB7 JUMP JUMPDEST SWAP1 POP SWAP2 SWAP1 POP JUMP JUMPDEST PUSH32 0x456D707479204D65746164617461204861736800000000000000000000000000 PUSH1 0x0 DUP3 ADD MSTORE POP JUMP JUMPDEST PUSH1 0x0 PUSH2 0xE30 PUSH1 0x13 DUP4 PUSH2 0xC0C JUMP JUMPDEST SWAP2 POP PUSH2 0xE3B DUP3 PUSH2 0xDFA JUMP JUMPDEST PUSH1 0x20 DUP3 ADD SWAP1 POP SWAP2 SWAP1 POP JUMP JUMPDEST PUSH1 0x0 PUSH1 0x20 DUP3 ADD SWAP1 POP DUP2 DUP2 SUB PUSH1 0x0 DUP4 ADD MSTORE PUSH2 0xE5F DUP2 PUSH2 0xE23 JUMP JUMPDEST SWAP1 POP SWAP2 SWAP1 POP JUMP JUMPDEST PUSH32 0x4964656E7469747920616C726561647920616374697665000000000000000000 PUSH1 0x0 DUP3 ADD MSTORE POP JUMP JUMPDEST PUSH1 0x0 PUSH2 0xE9C PUSH1 0x17 DUP4 PUSH2 0xC0C JUMP JUMPDEST SWAP2 POP PUSH2 0xEA7 DUP3 PUSH2 0xE66 JUMP JUMPDEST PUSH1 0x20 DUP3 ADD SWAP1 POP SWAP2 SWAP1 POP JUMP JUMPDEST PUSH1 0x0 PUSH1 0x20 DUP3 ADD SWAP1 POP DUP2 DUP2 SUB PUSH1 0x0 DUP4 ADD MSTORE PUSH2 0xECB DUP2 PUSH2 0xE8F JUMP JUMPDEST SWAP1 POP SWAP2 SWAP1 POP JUMP JUMPDEST PUSH1 0x0 DUP2 SWAP1 POP SWAP3 SWAP2 POP POP JUMP JUMPDEST DUP3 DUP2 DUP4 CALLDATACOPY PUSH1 0x0 DUP4 DUP4 ADD MSTORE POP POP POP JUMP JUMPDEST PUSH1 0x0 PUSH2 0xEF8 DUP4 DUP6 PUSH2 0xED2 JUMP JUMPDEST SWAP4 POP PUSH2 0xF05 DUP4 DUP6 DUP5 PUSH2 0xEDD JUMP JUMPDEST DUP3 DUP5 ADD SWAP1 POP SWAP4 SWAP3 POP POP POP JUMP JUMPDEST PUSH1 0x0 PUSH2 0xF1E DUP3 DUP5 DUP7 PUSH2 0xEEC JUMP JUMPDEST SWAP2 POP DUP2 SWAP1 POP SWAP4 SWAP3 POP POP POP JUMP JUMPDEST PUSH32 0x44494420616C7265616479207265676973746572656400000000000000000000 PUSH1 0x0 DUP3 ADD MSTORE POP JUMP JUMPDEST PUSH1 0x0 PUSH2 0xF60 PUSH1 0x16 DUP4 PUSH2 0xC0C JUMP JUMPDEST SWAP2 POP PUSH2 0xF6B DUP3 PUSH2 0xF2A JUMP JUMPDEST PUSH1 0x20 DUP3 ADD SWAP1 POP SWAP2 SWAP1 POP JUMP JUMPDEST PUSH1 0x0 PUSH1 0x20 DUP3 ADD SWAP1 POP DUP2 DUP2 SUB PUSH1 0x0 DUP4 ADD MSTORE PUSH2 0xF8F DUP2 PUSH2 0xF53 JUMP JUMPDEST SWAP1 POP SWAP2 SWAP1 POP JUMP JUMPDEST PUSH32 0x4E487B7100000000000000000000000000000000000000000000000000000000 PUSH1 0x0 MSTORE PUSH1 0x41 PUSH1 0x4 MSTORE PUSH1 0x24 PUSH1 0x0 REVERT JUMPDEST PUSH32 0x4E487B7100000000000000000000000000000000000000000000000000000000 PUSH1 0x0 MSTORE PUSH1 0x22 PUSH1 0x4 MSTORE PUSH1 0x24 PUSH1 0x0 REVERT JUMPDEST PUSH1 0x0 PUSH1 0x2 DUP3 DIV SWAP1 POP PUSH1 0x1 DUP3 AND DUP1 PUSH2 0x100C JUMPI PUSH1 0x7F DUP3 AND SWAP2 POP JUMPDEST PUSH1 0x20 DUP3 LT DUP2 SUB PUSH2 0x101F JUMPI PUSH2 0x101E PUSH2 0xFC5 JUMP JUMPDEST JUMPDEST POP SWAP2 SWAP1 POP JUMP JUMPDEST PUSH1 0x0 DUP2 SWAP1 POP DUP2 PUSH1 0x0 MSTORE PUSH1 0x20 PUSH1 0x0 KECCAK256 SWAP1 POP SWAP2 SWAP1 POP JUMP JUMPDEST PUSH1 0x0 PUSH1 0x20 PUSH1 0x1F DUP4 ADD DIV SWAP1 POP SWAP2 SWAP1 POP JUMP JUMPDEST PUSH1 0x0 DUP3 DUP3 SHL SWAP1 POP SWAP3 SWAP2 POP POP JUMP JUMPDEST PUSH1 0x0 PUSH1 0x8 DUP4 MUL PUSH2 0x1087 PUSH32 0xFFFFFFFFFFFFFFFFFFFFFFFFFFFFFFFFFFFFFFFFFFFFFFFFFFFFFFFFFFFFFFFF DUP3 PUSH2 0x104A JUMP JUMPDEST PUSH2 0x1091 DUP7 DUP4 PUSH2 0x104A JUMP JUMPDEST SWAP6 POP DUP1 NOT DUP5 AND SWAP4 POP DUP1 DUP7 AND DUP5 OR SWAP3 POP POP POP SWAP4 SWAP3 POP POP POP JUMP JUMPDEST PUSH1 0x0 DUP2 SWAP1 POP SWAP2 SWAP1 POP JUMP JUMPDEST PUSH1 0x0 PUSH2 0x10CE PUSH2 0x10C9 PUSH2 0x10C4 DUP5 PUSH2 0xCAC JUMP JUMPDEST PUSH2 0x10A9 JUMP JUMPDEST PUSH2 0xCAC JUMP JUMPDEST SWAP1 POP SWAP2 SWAP1 POP JUMP JUMPDEST PUSH1 0x0 DUP2 SWAP1 POP SWAP2 SWAP1 POP JUMP JUMPDEST PUSH2 0x10E8 DUP4 PUSH2 0x10B3 JUMP JUMPDEST PUSH2 0x10FC PUSH2 0x10F4 DUP3 PUSH2 0x10D5 JUMP JUMPDEST DUP5 DUP5 SLOAD PUSH2 0x1057 JUMP JUMPDEST DUP3 SSTORE POP POP POP POP JUMP JUMPDEST PUSH1 0x0 SWAP1 JUMP JUMPDEST PUSH2 0x1111 PUSH2 0x1104 JUMP JUMPDEST PUSH2 0x111C DUP2 DUP5 DUP5 PUSH2 0x10DF JUMP JUMPDEST POP POP POP JUMP JUMPDEST JUMPDEST DUP2 DUP2 LT ISZERO PUSH2 0x1140 JUMPI PUSH2 0x1135 PUSH1 0x0 DUP3 PUSH2 0x1109 JUMP JUMPDEST PUSH1 0x1 DUP2 ADD SWAP1 POP PUSH2 0x1122 JUMP JUMPDEST POP POP JUMP JUMPDEST PUSH1 0x1F DUP3 GT ISZERO PUSH2 0x1185 JUMPI PUSH2 0x1156 DUP2 PUSH2 0x1025 JUMP JUMPDEST PUSH2 0x115F DUP5 PUSH2 0x103A JUMP JUMPDEST DUP2 ADD PUSH1 0x20 DUP6 LT ISZERO PUSH2 0x116E JUMPI DUP2 SWAP1 POP JUMPDEST PUSH2 0x1182 PUSH2 0x117A DUP6 PUSH2 0x103A JUMP JUMPDEST DUP4 ADD DUP3 PUSH2 0x1121 JUMP JUMPDEST POP POP JUMPDEST POP POP POP JUMP JUMPDEST PUSH1 0x0 DUP3 DUP3 SHR SWAP1 POP SWAP3 SWAP2 POP POP JUMP JUMPDEST PUSH1 0x0 PUSH2 0x11A8 PUSH1 0x0 NOT DUP5 PUSH1 0x8 MUL PUSH2 0x118A JUMP JUMPDEST NOT DUP1 DUP4 AND SWAP2 POP POP SWAP3 SWAP2 POP POP JUMP JUMPDEST PUSH1 0x0 PUSH2 0x11C1 DUP4 DUP4 PUSH2 0x1197 JUMP JUMPDEST SWAP2 POP DUP3 PUSH1 0x2 MUL DUP3 OR SWAP1 POP SWAP3 SWAP2 POP POP JUMP JUMPDEST PUSH2 0x11DA DUP3 PUSH2 0xC01 JUMP JUMPDEST PUSH8 0xFFFFFFFFFFFFFFFF DUP2 GT ISZERO PUSH2 0x11F3 JUMPI PUSH2 0x11F2 PUSH2 0xF96 JUMP JUMPDEST JUMPDEST PUSH2 0x11FD DUP3 SLOAD PUSH2 0xFF4 JUMP JUMPDEST PUSH2 0x1208 DUP3 DUP3 DUP6 PUSH2 0x1144 JUMP JUMPDEST PUSH1 0x0 PUSH1 0x20 SWAP1 POP PUSH1 0x1F DUP4 GT PUSH1 0x1 DUP2 EQ PUSH2 0x123B JUMPI PUSH1 0x0 DUP5 ISZERO PUSH2 0x1229 JUMPI DUP3 DUP8 ADD MLOAD SWAP1 POP JUMPDEST PUSH2 0x1233 DUP6 DUP3 PUSH2 0x11B5 JUMP JUMPDEST DUP7 SSTORE POP PUSH2 0x129B JUMP JUMPDEST PUSH1 0x1F NOT DUP5 AND PUSH2 0x1249 DUP7 PUSH2 0x1025 JUMP JUMPDEST PUSH1 0x0 JUMPDEST DUP3 DUP2 LT ISZERO PUSH2 0x1271 JUMPI DUP5 DUP10 ADD MLOAD DUP3 SSTORE PUSH1 0x1 DUP3 ADD SWAP2 POP PUSH1 0x20 DUP6 ADD SWAP5 POP PUSH1 0x20 DUP2 ADD SWAP1 POP PUSH2 0x124C JUMP JUMPDEST DUP7 DUP4 LT ISZERO PUSH2 0x128E JUMPI DUP5 DUP10 ADD MLOAD PUSH2 0x128A PUSH1 0x1F DUP10 AND DUP3 PUSH2 0x1197 JUMP JUMPDEST DUP4 SSTORE POP JUMPDEST PUSH1 0x1 PUSH1 0x2 DUP9 MUL ADD DUP9 SSTORE POP POP POP JUMPDEST POP POP POP POP POP POP JUMP JUMPDEST PUSH1 0x0 PUSH2 0x12AF DUP4 DUP6 PUSH2 0xC0C JUMP JUMPDEST SWAP4 POP PUSH2 0x12BC DUP4 DUP6 DUP5 PUSH2 0xEDD JUMP JUMPDEST PUSH2 0x12C5 DUP4 PUSH2 0xC47 JUMP JUMPDEST DUP5 ADD SWAP1 POP SWAP4 SWAP3 POP POP POP JUMP JUMPDEST PUSH1 0x0 PUSH1 0x60 DUP3 ADD SWAP1 POP DUP2 DUP2 SUB PUSH1 0x0 DUP4 ADD MSTORE PUSH2 0x12EB DUP2 DUP8 DUP10 PUSH2 0x12A3 JUMP JUMPDEST SWAP1 POP DUP2 DUP2 SUB PUSH1 0x20 DUP4 ADD MSTORE PUSH2 0x1300 DUP2 DUP6 DUP8 PUSH2 0x12A3 JUMP JUMPDEST SWAP1 POP PUSH2 0x130F PUSH1 0x40 DUP4 ADD DUP5 PUSH2 0xCB6 JUMP JUMPDEST SWAP7 SWAP6 POP POP POP POP POP POP JUMP JUMPDEST PUSH32 0x4964656E7469747920696E616374697665000000000000000000000000000000 PUSH1 0x0 DUP3 ADD MSTORE POP JUMP JUMPDEST PUSH1 0x0 PUSH2 0x134F PUSH1 0x11 DUP4 PUSH2 0xC0C JUMP JUMPDEST SWAP2 POP PUSH2 0x135A DUP3 PUSH2 0x1319 JUMP JUMPDEST PUSH1 0x20 DUP3 ADD SWAP1 POP SWAP2 SWAP1 POP JUMP JUMPDEST PUSH1 0x0 PUSH1 0x20 DUP3 ADD SWAP1 POP DUP2 DUP2 SUB PUSH1 0x0 DUP4 ADD MSTORE PUSH2 0x137E DUP2 PUSH2 0x1342 JUMP JUMPDEST SWAP1 POP SWAP2 SWAP1 POP JUMP JUMPDEST PUSH32 0x4964656E74697479206E6F7420666F756E640000000000000000000000000000 PUSH1 0x0 DUP3 ADD MSTORE POP JUMP JUMPDEST PUSH1 0x0 PUSH2 0x13BB PUSH1 0x12 DUP4 PUSH2 0xC0C JUMP JUMPDEST SWAP2 POP PUSH2 0x13C6 DUP3 PUSH2 0x1385 JUMP JUMPDEST PUSH1 0x20 DUP3 ADD SWAP1 POP SWAP2 SWAP1 POP JUMP JUMPDEST PUSH1 0x0 PUSH1 0x20 DUP3 ADD SWAP1 POP DUP2 DUP2 SUB PUSH1 0x0 DUP4 ADD MSTORE PUSH2 0x13EA DUP2 PUSH2 0x13AE JUMP JUMPDEST SWAP1 POP SWAP2 SWAP1 POP JUMP JUMPDEST PUSH1 0x0 DUP3 SWAP1 POP SWAP3 SWAP2 POP POP JUMP JUMPDEST PUSH2 0x1406 DUP4 DUP4 PUSH2 0x13F1 JUMP JUMPDEST PUSH8 0xFFFFFFFFFFFFFFFF DUP2 GT ISZERO PUSH2 0x141F JUMPI PUSH2 0x141E PUSH2 0xF96 JUMP JUMPDEST JUMPDEST PUSH2 0x1429 DUP3 SLOAD PUSH2 0xFF4 JUMP JUMPDEST PUSH2 0x1434 DUP3 DUP3 DUP6 PUSH2 0x1144 JUMP JUMPDEST PUSH1 0x0 PUSH1 0x1F DUP4 GT PUSH1 0x1 DUP2 EQ PUSH2 0x1463 JUMPI PUSH1 0x0 DUP5 ISZERO PUSH2 0x1451 JUMPI DUP3 DUP8 ADD CALLDATALOAD SWAP1 POP JUMPDEST PUSH2 0x145B DUP6 DUP3 PUSH2 0x11B5 JUMP JUMPDEST DUP7 SSTORE POP PUSH2 0x14C3 JUMP JUMPDEST PUSH1 0x1F NOT DUP5 AND PUSH2 0x1471 DUP7 PUSH2 0x1025 JUMP JUMPDEST PUSH1 0x0 JUMPDEST DUP3 DUP2 LT ISZERO PUSH2 0x1499 JUMPI DUP5 DUP10 ADD CALLDATALOAD DUP3 SSTORE PUSH1 0x1 DUP3 ADD SWAP2 POP PUSH1 0x20 DUP6 ADD SWAP5 POP PUSH1 0x20 DUP2 ADD SWAP1 POP PUSH2 0x1474 JUMP JUMPDEST DUP7 DUP4 LT ISZERO PUSH2 0x14B6 JUMPI DUP5 DUP10 ADD CALLDATALOAD PUSH2 0x14B2 PUSH1 0x1F DUP10 AND DUP3 PUSH2 0x1197 JUMP JUMPDEST DUP4 SSTORE POP JUMPDEST PUSH1 0x1 PUSH1 0x2 DUP9 MUL ADD DUP9 SSTORE POP POP POP JUMPDEST POP POP POP POP POP POP POP JUMP JUMPDEST PUSH1 0x0 PUSH1 0x40 DUP3 ADD SWAP1 POP DUP2 DUP2 SUB PUSH1 0x0 DUP4 ADD MSTORE PUSH2 0x14E7 DUP2 DUP6 DUP8 PUSH2 0x12A3 JUMP JUMPDEST SWAP1 POP PUSH2 0x14F6 PUSH1 0x20 DUP4 ADD DUP5 PUSH2 0xCB6 JUMP JUMPDEST SWAP5 SWAP4 POP POP POP POP JUMP JUMPDEST PUSH32 0x4E6F20616374697665206964656E746974790000000000000000000000000000 PUSH1 0x0 DUP3 ADD MSTORE POP JUMP JUMPDEST PUSH1 0x0 PUSH2 0x1534 PUSH1 0x12 DUP4 PUSH2 0xC0C JUMP JUMPDEST SWAP2 POP PUSH2 0x153F DUP3 PUSH2 0x14FE JUMP JUMPDEST PUSH1 0x20 DUP3 ADD SWAP1 POP SWAP2 SWAP1 POP JUMP JUMPDEST PUSH1 0x0 PUSH1 0x20 DUP3 ADD SWAP1 POP DUP2 DUP2 SUB PUSH1 0x0 DUP4 ADD MSTORE PUSH2 0x1563 DUP2 PUSH2 0x1527 JUMP JUMPDEST SWAP1 POP SWAP2 SWAP1 POP JUMP JUMPDEST PUSH1 0x0 PUSH1 0x20 DUP3 ADD SWAP1 POP PUSH2 0x157F PUSH1 0x0 DUP4 ADD DUP5 PUSH2 0xCB6 JUMP JUMPDEST SWAP3 SWAP2 POP POP JUMP INVALID LOG2 PUSH5 0x6970667358 0x22 SLT KECCAK256 SWAP10 0xD0 0xA5 CALLCODE 0xC7 GT 0xD6 0xAB SIGNEXTEND 0x26 0xD1 MUL 0x1F PUSH1 0x0 0xC3 0x24 CREATE2 0xBE JUMPI DUP7 COINBASE CALLDATASIZE 0x27 GASLIMIT DUP3 LOG0 SWAP14 0x21 0xE3 PUSH4 0xB364736F PUSH13 0x63430008140033000000000000 "},"methodIdentifiers":{"getIdentity(address)":"2fea7b81","isIdentityActive(address)":"f130f571","registerIdentity(string,string)":"0be8293f","revokeIdentity()":"dd4db94f","updateIdentity(string)":"7aee1e13"}}}}}