{"contracts/VerificationRegistry.sol":{"VerificationRegistry":{"abi":[{"inputs":[{"internalType":"address","name":"_identityRegistry","type":"address"}],"stateMutability":"nonpayable","type":"constructor"},{"inputs":[],"name":"ReentrancyGuardReentrantCall","type":"error"},{"anonymous":false,"inputs":[{"indexed":true,"internalType":"uint256","name":"requestId","type":"uint256"},{"indexed":true,"internalType":"address","name":"user","type":"address"}],"name":"ConsentGranted","type":"event"},{"anonymous":false,"inputs":[{"indexed":true,"internalType":"uint256","name":"requestId","type":"uint256"},{"indexed":true,"internalType":"address","name":"verifier","type":"address"},{"indexed":false,"internalType":"uint256","name":"timestamp","type":"uint256"}],"name":"IdentityVerified","type":"event"},{"anonymous":false,"inputs":[{"indexed":true,"internalType":"uint256","name":"requestId","type":"uint256"},{"indexed":true,"internalType":"address","name":"verifier","type":"address"},{"indexed":true,"internalType":"address","name":"user","type":"address"},{"indexed":false,"internalType":"string","name":"purpose","type":"string"}],"name":"VerificationRequested","type":"event"},{"inputs":[{"internalType":"address","name":"user","type":"address"}],"name":"getUserRequests","outputs":[{"components":[{"internalType":"uint256","name":"id","type":"uint256"},{"internalType":"address","name":"verifier","type":"address"},{"internalType":"address","name":"user","type":"address"},{"internalType":"string","name":"purpose","type":"string"},{"internalType":"enum VerificationRegistry.RequestStatus","name":"status","type":"uint8"},{"internalType":"uint256","name":"timestamp","type":"uint256"},{"internalType":"uint256","name":"confirmedAt","type":"uint256"}],"internalType":"struct VerificationRegistry.VerificationRequest[]","name":"","type":"tuple[]"}],"stateMutability":"view","type":"function"},{"inputs":[{"internalType":"uint256","name":"requestId","type":"uint256"}],"name":"grantConsent","outputs":[],"stateMutability":"nonpayable","type":"function"},{"inputs":[],"name":"identityRegistry","outputs":[{"internalType":"contract IdentityRegistry","name":"","type":"address"}],"stateMutability":"view","type":"function"},{"inputs":[{"internalType":"address","name":"user","type":"address"},{"internalType":"string","name":"purpose","type":"string"}],"name":"requestVerification","outputs":[{"internalType":"uint256","name":"","type":"uint256"}],"stateMutability":"nonpayable","type":"function"},{"inputs":[{"internalType":"uint256","name":"","type":"uint256"}],"name":"requests","outputs":[{"internalType":"uint256","name":"id","type":"uint256"},{"internalType":"address","name":"verifier","type":"address"},{"internalType":"address","name":"user","type":"address"},{"internalType":"string","name":"purpose","type":"string"},{"internalType":"enum VerificationRegistry.RequestStatus","name":"status","type":"uint8"},{"internalType":"uint256","name":"timestamp","type":"uint256"},{"internalType":"uint256","name":"confirmedAt","type":"uint256"}],"stateMutability":"view","type":"function"},{"inputs":[{"internalType":"address","name":"","type":"address"},{"internalType":"uint256","name":"","type":"uint256"}],"name":"userRequests","outputs":[{"internalType":"uint256","name":"","type":"uint256"}],"stateMutability":"view","type":"function"},{"inputs":[{"internalType":"address","name":"","type":"address"},{"internalType":"uint256","name":"","type":"uint256"}],"name":"verifierRequests","outputs":[{"internalType":"uint256","name":"","type":"uint256"}],"stateMutability":"view","type":"function"},{"inputs":[{"internalType":"uint256","name":"requestId","type":"uint256"}],"name":"verifyIdentity","outputs":[],"stateMutability":"nonpayable","type":"function"}],"evm":{"bytecode":{"linkReferences":{},"object":"60806040523480156200001157600080fd5b5060405162001e5c38038062001e5c8339818101604052810190620000379190620000f1565b600160008190555080600160006101000a81548173ffffffffffffffffffffffffffffffffffffffff021916908373ffffffffffffffffffffffffffffffffffffffff1602179055505062000123565b600080fd5b600073ffffffffffffffffffffffffffffffffffffffff82169050919050565b6000620000b9826200008c565b9050919050565b620000cb81620000ac565b8114620000d757600080fd5b50565b600081519050620000eb81620000c0565b92915050565b6000602082840312156200010a576200010962000087565b5b60006200011a84828501620000da565b91505092915050565b611d2980620001336000396000f3fe608060405234801561001057600080fd5b50600436106100885760003560e01c806381d12c581161005b57806381d12c5814610127578063a179d1c21461015d578063b337cf741461018d578063babb55c5146101bd57610088565b8063134e18f41461008d578063263cb6b6146100ab5780632a26de85146100db578063577042cd146100f7575b600080fd5b6100956101d9565b6040516100a29190610f42565b60405180910390f35b6100c560048036038101906100c09190610fe5565b6101ff565b6040516100d29190611034565b60405180910390f35b6100f560048036038101906100f0919061104f565b610230565b005b610111600480360381019061010c9190610fe5565b6103d6565b60405161011e9190611034565b60405180910390f35b610141600480360381019061013c919061104f565b610407565b6040516101549796959493929190611192565b60405180910390f35b6101776004803603810190610172919061126d565b61051e565b6040516101849190611034565b60405180910390f35b6101a760048036038101906101a291906112cd565b61093a565b6040516101b491906114cf565b60405180910390f35b6101d760048036038101906101d2919061104f565b610c3e565b005b600160009054906101000a900473ffffffffffffffffffffffffffffffffffffffff1681565b6004602052816000526040600020818154811061021b57600080fd5b90600052602060002001600091509150505481565b610238610df8565b60006003600083815260200190815260200160002090508060020160009054906101000a900473ffffffffffffffffffffffffffffffffffffffff1673ffffffffffffffffffffffffffffffffffffffff163373ffffffffffffffffffffffffffffffffffffffff16146102e1576040517f08c379a00000000000000000000000000000000000000000000000000000000081526004016102d89061153d565b60405180910390fd5b600060038111156102f5576102f461111b565b5b8160040160009054906101000a900460ff1660038111156103195761031861111b565b5b14610359576040517f08c379a0000000000000000000000000000000000000000000000000000000008152600401610350906115a9565b60405180910390fd5b60018160040160006101000a81548160ff021916908360038111156103815761038061111b565b5b02179055503373ffffffffffffffffffffffffffffffffffffffff16827ff3a34a7a216f396897a5bd0483c3b0b288e703d61c3c0f3a1c1cf6e04cb3130a60405160405180910390a3506103d3610e3e565b50565b600560205281600052604060002081815481106103f257600080fd5b90600052602060002001600091509150505481565b60036020528060005260406000206000915090508060000154908060010160009054906101000a900473ffffffffffffffffffffffffffffffffffffffff16908060020160009054906101000a900473ffffffffffffffffffffffffffffffffffffffff169080600301805461047c906115f8565b80601f01602080910402602001604051908101604052809291908181526020018280546104a8906115f8565b80156104f55780601f106104ca576101008083540402835291602001916104f5565b820191906000526020600020905b8154815290600101906020018083116104d857829003601f168201915b5050505050908060040160009054906101000a900460ff16908060050154908060060154905087565b6000610528610df8565b6000600160009054906101000a900473ffffffffffffffffffffffffffffffffffffffff1673ffffffffffffffffffffffffffffffffffffffff16632fea7b81866040518263ffffffff1660e01b81526004016105859190611629565b600060405180830381865afa1580156105a2573d6000803e3d6000fd5b505050506040513d6000823e3d601f19601f820116820180604052508101906105cb91906117b2565b50505090506000815111610614576040517f08c379a000000000000000000000000000000000000000000000000000000000815260040161060b90611881565b60405180910390fd5b60026000815480929190610627906118d0565b9190505550600060025490506040518060e001604052808281526020013373ffffffffffffffffffffffffffffffffffffffff1681526020018773ffffffffffffffffffffffffffffffffffffffff16815260200186868080601f016020809104026020016040519081016040528093929190818152602001838380828437600081840152601f19601f820116905080830192505050505050508152602001600060038111156106da576106d961111b565b5b81526020014281526020016000815250600360008381526020019081526020016000206000820151816000015560208201518160010160006101000a81548173ffffffffffffffffffffffffffffffffffffffff021916908373ffffffffffffffffffffffffffffffffffffffff16021790555060408201518160020160006101000a81548173ffffffffffffffffffffffffffffffffffffffff021916908373ffffffffffffffffffffffffffffffffffffffff16021790555060608201518160030190816107aa9190611aba565b5060808201518160040160006101000a81548160ff021916908360038111156107d6576107d561111b565b5b021790555060a0820151816005015560c08201518160060155905050600460008773ffffffffffffffffffffffffffffffffffffffff1673ffffffffffffffffffffffffffffffffffffffff168152602001908152602001600020819080600181540180825580915050600190039060005260206000200160009091909190915055600560003373ffffffffffffffffffffffffffffffffffffffff1673ffffffffffffffffffffffffffffffffffffffff1681526020019081526020016000208190806001815401808255809150506001900390600052602060002001600090919091909150558573ffffffffffffffffffffffffffffffffffffffff163373ffffffffffffffffffffffffffffffffffffffff16827fbb1b2af268537914f3a2746c815a9776725ec55681e2bf1c206df55e92583b1a888860405161091e929190611bc8565b60405180910390a48092505050610933610e3e565b9392505050565b60606000600460008473ffffffffffffffffffffffffffffffffffffffff1673ffffffffffffffffffffffffffffffffffffffff1681526020019081526020016000208054806020026020016040519081016040528092919081815260200182805480156109c757602002820191906000526020600020905b8154815260200190600101908083116109b3575b505050505090506000815167ffffffffffffffff8111156109eb576109ea611649565b5b604051908082528060200260200182016040528015610a2457816020015b610a11610e48565b815260200190600190039081610a095790505b50905060005b8251811015610c335760036000848381518110610a4a57610a49611bec565b5b602002602001015181526020019081526020016000206040518060e0016040529081600082015481526020016001820160009054906101000a900473ffffffffffffffffffffffffffffffffffffffff1673ffffffffffffffffffffffffffffffffffffffff1673ffffffffffffffffffffffffffffffffffffffff1681526020016002820160009054906101000a900473ffffffffffffffffffffffffffffffffffffffff1673ffffffffffffffffffffffffffffffffffffffff1673ffffffffffffffffffffffffffffffffffffffff168152602001600382018054610b31906115f8565b80601f0160208091040260200160405190810160405280929190818152602001828054610b5d906115f8565b8015610baa5780601f10610b7f57610100808354040283529160200191610baa565b820191906000526020600020905b815481529060010190602001808311610b8d57829003601f168201915b505050505081526020016004820160009054906101000a900460ff166003811115610bd857610bd761111b565b5b6003811115610bea57610be961111b565b5b815260200160058201548152602001600682015481525050828281518110610c1557610c14611bec565b5b60200260200101819052508080610c2b906118d0565b915050610a2a565b508092505050919050565b610c46610df8565b60006003600083815260200190815260200160002090508060010160009054906101000a900473ffffffffffffffffffffffffffffffffffffffff1673ffffffffffffffffffffffffffffffffffffffff163373ffffffffffffffffffffffffffffffffffffffff1614610cef576040517f08c379a0000000000000000000000000000000000000000000000000000000008152600401610ce690611c67565b60405180910390fd5b60016003811115610d0357610d0261111b565b5b8160040160009054906101000a900460ff166003811115610d2757610d2661111b565b5b14610d67576040517f08c379a0000000000000000000000000000000000000000000000000000000008152600401610d5e90611cd3565b60405180910390fd5b60038160040160006101000a81548160ff02191690836003811115610d8f57610d8e61111b565b5b02179055504281600601819055503373ffffffffffffffffffffffffffffffffffffffff16827f0c8fb91c035460e77a706805907d40a549c7be443bace051edf7ed20b62936a142604051610de49190611034565b60405180910390a350610df5610e3e565b50565b600260005403610e34576040517f3ee5aeb500000000000000000000000000000000000000000000000000000000815260040160405180910390fd5b6002600081905550565b6001600081905550565b6040518060e0016040528060008152602001600073ffffffffffffffffffffffffffffffffffffffff168152602001600073ffffffffffffffffffffffffffffffffffffffff1681526020016060815260200160006003811115610eaf57610eae61111b565b5b815260200160008152602001600081525090565b600073ffffffffffffffffffffffffffffffffffffffff82169050919050565b6000819050919050565b6000610f08610f03610efe84610ec3565b610ee3565b610ec3565b9050919050565b6000610f1a82610eed565b9050919050565b6000610f2c82610f0f565b9050919050565b610f3c81610f21565b82525050565b6000602082019050610f576000830184610f33565b92915050565b6000604051905090565b600080fd5b600080fd5b6000610f7c82610ec3565b9050919050565b610f8c81610f71565b8114610f9757600080fd5b50565b600081359050610fa981610f83565b92915050565b6000819050919050565b610fc281610faf565b8114610fcd57600080fd5b50565b600081359050610fdf81610fb9565b92915050565b60008060408385031215610ffc57610ffb610f67565b5b600061100a85828601610f9a565b925050602061101b85828601610fd0565b9150509250929050565b61102e81610faf565b82525050565b60006020820190506110496000830184611025565b92915050565b60006020828403121561106557611064610f67565b5b600061107384828501610fd0565b91505092915050565b61108581610f71565b82525050565b600081519050919050565b600082825260208201905092915050565b60005b838110156110c55780820151818401526020810190506110aa565b60008484015250505050565b6000601f19601f8301169050919050565b60006110ed8261108b565b6110f78185611096565b93506111078185602086016110a7565b611110816110d1565b840191505092915050565b7f4e487b7100000000000000000000000000000000000000000000000000000000600052602160045260246000fd5b6004811061115b5761115a61111b565b5b50565b600081905061116c8261114a565b919050565b600061117c8261115e565b9050919050565b61118c81611171565b82525050565b600060e0820190506111a7600083018a611025565b6111b4602083018961107c565b6111c1604083018861107c565b81810360608301526111d381876110e2565b90506111e26080830186611183565b6111ef60a0830185611025565b6111fc60c0830184611025565b98975050505050505050565b600080fd5b600080fd5b600080fd5b60008083601f84011261122d5761122c611208565b5b8235905067ffffffffffffffff81111561124a5761124961120d565b5b60208301915083600182028301111561126657611265611212565b5b9250929050565b60008060006040848603121561128657611285610f67565b5b600061129486828701610f9a565b935050602084013567ffffffffffffffff8111156112b5576112b4610f6c565b5b6112c186828701611217565b92509250509250925092565b6000602082840312156112e3576112e2610f67565b5b60006112f184828501610f9a565b91505092915050565b600081519050919050565b600082825260208201905092915050565b6000819050602082019050919050565b61132f81610faf565b82525050565b61133e81610f71565b82525050565b600082825260208201905092915050565b60006113608261108b565b61136a8185611344565b935061137a8185602086016110a7565b611383816110d1565b840191505092915050565b61139781611171565b82525050565b600060e0830160008301516113b56000860182611326565b5060208301516113c86020860182611335565b5060408301516113db6040860182611335565b50606083015184820360608601526113f38282611355565b9150506080830151611408608086018261138e565b5060a083015161141b60a0860182611326565b5060c083015161142e60c0860182611326565b508091505092915050565b6000611445838361139d565b905092915050565b6000602082019050919050565b6000611465826112fa565b61146f8185611305565b93508360208202850161148185611316565b8060005b858110156114bd578484038952815161149e8582611439565b94506114a98361144d565b925060208a01995050600181019050611485565b50829750879550505050505092915050565b600060208201905081810360008301526114e9818461145a565b905092915050565b7f4e6f7420617574686f72697a6564000000000000000000000000000000000000600082015250565b6000611527600e83611096565b9150611532826114f1565b602082019050919050565b600060208201905081810360008301526115568161151a565b9050919050565b7f52657175657374206e6f742070656e64696e6700000000000000000000000000600082015250565b6000611593601383611096565b915061159e8261155d565b602082019050919050565b600060208201905081810360008301526115c281611586565b9050919050565b7f4e487b7100000000000000000000000000000000000000000000000000000000600052602260045260246000fd5b6000600282049050600182168061161057607f821691505b602082108103611623576116226115c9565b5b50919050565b600060208201905061163e600083018461107c565b92915050565b600080fd5b7f4e487b7100000000000000000000000000000000000000000000000000000000600052604160045260246000fd5b611681826110d1565b810181811067ffffffffffffffff821117156116a05761169f611649565b5b80604052505050565b60006116b3610f5d565b90506116bf8282611678565b919050565b600067ffffffffffffffff8211156116df576116de611649565b5b6116e8826110d1565b9050602081019050919050565b6000611708611703846116c4565b6116a9565b90508281526020810184848401111561172457611723611644565b5b61172f8482856110a7565b509392505050565b600082601f83011261174c5761174b611208565b5b815161175c8482602086016116f5565b91505092915050565b60008115159050919050565b61177a81611765565b811461178557600080fd5b50565b60008151905061179781611771565b92915050565b6000815190506117ac81610fb9565b92915050565b600080600080608085870312156117cc576117cb610f67565b5b600085015167ffffffffffffffff8111156117ea576117e9610f6c565b5b6117f687828801611737565b945050602061180787828801611788565b93505060406118188782880161179d565b92505060606118298782880161179d565b91505092959194509250565b7f5573657220686173206e6f206964656e74697479000000000000000000000000600082015250565b600061186b601483611096565b915061187682611835565b602082019050919050565b6000602082019050818103600083015261189a8161185e565b9050919050565b7f4e487b7100000000000000000000000000000000000000000000000000000000600052601160045260246000fd5b60006118db82610faf565b91507fffffffffffffffffffffffffffffffffffffffffffffffffffffffffffffffff820361190d5761190c6118a1565b5b600182019050919050565b60008190508160005260206000209050919050565b60006020601f8301049050919050565b600082821b905092915050565b60006008830261197a7fffffffffffffffffffffffffffffffffffffffffffffffffffffffffffffffff8261193d565b611984868361193d565b95508019841693508086168417925050509392505050565b60006119b76119b26119ad84610faf565b610ee3565b610faf565b9050919050565b6000819050919050565b6119d18361199c565b6119e56119dd826119be565b84845461194a565b825550505050565b600090565b6119fa6119ed565b611a058184846119c8565b505050565b5b81811015611a2957611a1e6000826119f2565b600181019050611a0b565b5050565b601f821115611a6e57611a3f81611918565b611a488461192d565b81016020851015611a57578190505b611a6b611a638561192d565b830182611a0a565b50505b505050565b600082821c905092915050565b6000611a9160001984600802611a73565b1980831691505092915050565b6000611aaa8383611a80565b9150826002028217905092915050565b611ac38261108b565b67ffffffffffffffff811115611adc57611adb611649565b5b611ae682546115f8565b611af1828285611a2d565b600060209050601f831160018114611b245760008415611b12578287015190505b611b1c8582611a9e565b865550611b84565b601f198416611b3286611918565b60005b82811015611b5a57848901518255600182019150602085019450602081019050611b35565b86831015611b775784890151611b73601f891682611a80565b8355505b6001600288020188555050505b505050505050565b82818337600083830152505050565b6000611ba78385611096565b9350611bb4838584611b8c565b611bbd836110d1565b840190509392505050565b60006020820190508181036000830152611be3818486611b9b565b90509392505050565b7f4e487b7100000000000000000000000000000000000000000000000000000000600052603260045260246000fd5b7f4e6f7420746865206f726967696e616c20766572696669657200000000000000600082015250565b6000611c51601983611096565b9150611c5c82611c1b565b602082019050919050565b60006020820190508181036000830152611c8081611c44565b9050919050565b7f436f6e73656e74206e6f74206772616e74656400000000000000000000000000600082015250565b6000611cbd601383611096565b9150611cc882611c87565b602082019050919050565b60006020820190508181036000830152611cec81611cb0565b905091905056fea26469706673582212204ea800d2a747ec245b41318140b23256797d3c382a0f4bee64a8a8a6ab79639764736f6c63430008140033","opcodes":"PUSH1 0x80 PUSH1 0x40 MSTORE CALLVALUE DUP1 ISZERO PUSH3 0x11 JUMPI PUSH1 0x0 DUP1 REVERT JUMPDEST POP PUSH1 0x40 MLOAD PUSH3 0x1E5C CODESIZE SUB DUP1 PUSH3 0x1E5C DUP4 CODECOPY DUP2 DUP2 ADD PUSH1 0x40 MSTORE DUP2 ADD SWAP1 PUSH3 0x37 SWAP2 SWAP1 PUSH3 0xF1 JUMP JUMPDEST PUSH1 0x1 PUSH1 0x0 DUP2 SWAP1 SSTORE POP DUP1 PUSH1 0x1 PUSH1 0x0 PUSH2 0x100 EXP DUP2 SLOAD DUP2 PUSH20 0xFFFFFFFFFFFFFFFFFFFFFFFFFFFFFFFFFFFFFFFF MUL NOT AND SWAP1 DUP4 PUSH20 0xFFFFFFFFFFFFFFFFFFFFFFFFFFFFFFFFFFFFFFFF AND MUL OR SWAP1 SSTORE POP POP PUSH3 0x123 JUMP JUMPDEST PUSH1 0x0 DUP1 REVERT JUMPDEST PUSH1 0x0 PUSH20 0xFFFFFFFFFFFFFFFFFFFFFFFFFFFFFFFFFFFFFFFF DUP3 AND SWAP1 POP SWAP2 SWAP1 POP JUMP JUMPDEST PUSH1 0x0 PUSH3 0xB9 DUP3 PUSH3 0x8C JUMP JUMPDEST SWAP1 POP SWAP2 SWAP1 POP JUMP JUMPDEST PUSH3 0xCB DUP2 PUSH3 0xAC JUMP JUMPDEST DUP2 EQ PUSH3 0xD7 JUMPI PUSH1 0x0 DUP1 REVERT JUMPDEST POP JUMP JUMPDEST PUSH1 0x0 DUP2 MLOAD SWAP1 POP PUSH3 0xEB DUP2 PUSH3 0xC0 JUMP JUMPDEST SWAP3 SWAP2 POP POP JUMP JUMPDEST PUSH1 0x0 PUSH1 0x20 DUP3 DUP5 SUB SLT ISZERO PUSH3 0x10A JUMPI PUSH3 0x109 PUSH3 0x87 JUMP JUMPDEST JUMPDEST PUSH1 0x0 PUSH3 0x11A DUP5 DUP3 DUP6 ADD PUSH3 0xDA JUMP JUMPDEST SWAP2 POP POP SWAP3 SWAP2 POP POP JUMP JUMPDEST PUSH2 0x1D29 DUP1 PUSH3 0x133 PUSH1 0x0 CODECOPY PUSH1 0x0 RETURN INVALID PUSH1 0x80 PUSH1 0x40 MSTORE CALLVALUE DUP1 ISZERO PUSH2 0x10 JUMPI PUSH1 0x0 DUP1 REVERT JUMPDEST POP PUSH1 0x4 CALLDATASIZE LT PUSH2 0x88 JUMPI PUSH1 0x0 CALLDATALOAD PUSH1 0xE0 SHR DUP1 PUSH4 0x81D12C58 GT PUSH2 0x5B JUMPI DUP1 PUSH4 0x81D12C58 EQ PUSH2 0x127 JUMPI DUP1 PUSH4 0xA179D1C2 EQ PUSH2 0x15D JUMPI DUP1 PUSH4 0xB337CF74 EQ PUSH2 0x18D JUMPI DUP1 PUSH4 0xBABB55C5 EQ PUSH2 0x1BD JUMPI PUSH2 0x88 JUMP JUMPDEST DUP1 PUSH4 0x134E18F4 EQ PUSH2 0x8D JUMPI DUP1 PUSH4 0x263CB6B6 EQ PUSH2 0xAB JUMPI DUP1 PUSH4 0x2A26DE85 EQ PUSH2 0xDB JUMPI DUP1 PUSH4 0x577042CD EQ PUSH2 0xF7 JUMPI JUMPDEST PUSH1 0x0 DUP1 REVERT JUMPDEST PUSH2 0x95 PUSH2 0x1D9 JUMP JUMPDEST PUSH1 0x40 MLOAD PUSH2 0xA2 SWAP2 SWAP1 PUSH2 0xF42 JUMP JUMPDEST PUSH1 0x40 MLOAD DUP1 SWAP2 SUB SWAP1 RETURN JUMPDEST PUSH2 0xC5 PUSH1 0x4 DUP1 CALLDATASIZE SUB DUP2 ADD SWAP1 PUSH2 0xC0 SWAP2 SWAP1 PUSH2 0xFE5 JUMP JUMPDEST PUSH2 0x1FF JUMP JUMPDEST PUSH1 0x40 MLOAD PUSH2 0xD2 SWAP2 SWAP1 PUSH2 0x1034 JUMP JUMPDEST PUSH1 0x40 MLOAD DUP1 SWAP2 SUB SWAP1 RETURN JUMPDEST PUSH2 0xF5 PUSH1 0x4 DUP1 CALLDATASIZE SUB DUP2 ADD SWAP1 PUSH2 0xF0 SWAP2 SWAP1 PUSH2 0x104F JUMP JUMPDEST PUSH2 0x230 JUMP JUMPDEST STOP JUMPDEST PUSH2 0x111 PUSH1 0x4 DUP1 CALLDATASIZE SUB DUP2 ADD SWAP1 PUSH2 0x10C SWAP2 SWAP1 PUSH2 0xFE5 JUMP JUMPDEST PUSH2 0x3D6 JUMP JUMPDEST PUSH1 0x40 MLOAD PUSH2 0x11E SWAP2 SWAP1 PUSH2 0x1034 JUMP JUMPDEST PUSH1 0x40 MLOAD DUP1 SWAP2 SUB SWAP1 RETURN JUMPDEST PUSH2 0x141 PUSH1 0x4 DUP1 CALLDATASIZE SUB DUP2 ADD SWAP1 PUSH2 0x13C SWAP2 SWAP1 PUSH2 0x104F JUMP JUMPDEST PUSH2 0x407 JUMP JUMPDEST PUSH1 0x40 MLOAD PUSH2 0x154 SWAP8 SWAP7 SWAP6 SWAP5 SWAP4 SWAP3 SWAP2 SWAP1 PUSH2 0x1192 JUMP JUMPDEST PUSH1 0x40 MLOAD DUP1 SWAP2 SUB SWAP1 RETURN JUMPDEST PUSH2 0x177 PUSH1 0x4 DUP1 CALLDATASIZE SUB DUP2 ADD SWAP1 PUSH2 0x172 SWAP2 SWAP1 PUSH2 0x126D JUMP JUMPDEST PUSH2 0x51E JUMP JUMPDEST PUSH1 0x40 MLOAD PUSH2 0x184 SWAP2 SWAP1 PUSH2 0x1034 JUMP JUMPDEST PUSH1 0x40 MLOAD DUP1 SWAP2 SUB SWAP1 RETURN JUMPDEST PUSH2 0x1A7 PUSH1 0x4 DUP1 CALLDATASIZE SUB DUP2 ADD SWAP1 PUSH2 0x1A2 SWAP2 SWAP1 PUSH2 0x12CD JUMP JUMPDEST PUSH2 0x93A JUMP JUMPDEST PUSH1 0x40 MLOAD PUSH2 0x1B4 SWAP2 SWAP1 PUSH2 0x14CF JUMP JUMPDEST PUSH1 0x40 MLOAD DUP1 SWAP2 SUB SWAP1 RETURN JUMPDEST PUSH2 0x1D7 PUSH1 0x4 DUP1 CALLDATASIZE SUB DUP2 ADD SWAP1 PUSH2 0x1D2 SWAP2 SWAP1 PUSH2 0x104F JUMP JUMPDEST PUSH2 0xC3E JUMP JUMPDEST STOP JUMPDEST PUSH1 0x1 PUSH1 0x0 SWAP1 SLOAD SWAP1 PUSH2 0x100 EXP SWAP1 DIV PUSH20 0xFFFFFFFFFFFFFFFFFFFFFFFFFFFFFFFFFFFFFFFF AND DUP2 JUMP JUMPDEST PUSH1 0x4 PUSH1 0x20 MSTORE DUP2 PUSH1 0x0 MSTORE PUSH1 0x40 PUSH1 0x0 KECCAK256 DUP2 DUP2 SLOAD DUP2 LT PUSH2 0x21B JUMPI PUSH1 0x0 DUP1 REVERT JUMPDEST SWAP1 PUSH1 0x0 MSTORE PUSH1 0x20 PUSH1 0x0 KECCAK256 ADD PUSH1 0x0 SWAP2 POP SWAP2 POP POP SLOAD DUP2 JUMP JUMPDEST PUSH2 0x238 PUSH2 0xDF8 JUMP JUMPDEST PUSH1 0x0 PUSH1 0x3 PUSH1 0x0 DUP4 DUP2 MSTORE PUSH1 0x20 ADD SWAP1 DUP2 MSTORE PUSH1 0x20 ADD PUSH1 0x0 KECCAK256 SWAP1 POP DUP1 PUSH1 0x2 ADD PUSH1 0x0 SWAP1 SLOAD SWAP1 PUSH2 0x100 EXP SWAP1 DIV PUSH20 0xFFFFFFFFFFFFFFFFFFFFFFFFFFFFFFFFFFFFFFFF AND PUSH20 0xFFFFFFFFFFFFFFFFFFFFFFFFFFFFFFFFFFFFFFFF AND CALLER PUSH20 0xFFFFFFFFFFFFFFFFFFFFFFFFFFFFFFFFFFFFFFFF AND EQ PUSH2 0x2E1 JUMPI PUSH1 0x40 MLOAD PUSH32 0x8C379A000000000000000000000000000000000000000000000000000000000 DUP2 MSTORE PUSH1 0x4 ADD PUSH2 0x2D8 SWAP1 PUSH2 0x153D JUMP JUMPDEST PUSH1 0x40 MLOAD DUP1 SWAP2 SUB SWAP1 REVERT JUMPDEST PUSH1 0x0 PUSH1 0x3 DUP2 GT ISZERO PUSH2 0x2F5 JUMPI PUSH2 0x2F4 PUSH2 0x111B JUMP JUMPDEST JUMPDEST DUP2 PUSH1 0x4 ADD PUSH1 0x0 SWAP1 SLOAD SWAP1 PUSH2 0x100 EXP SWAP1 DIV PUSH1 0xFF AND PUSH1 0x3 DUP2 GT ISZERO PUSH2 0x319 JUMPI PUSH2 0x318 PUSH2 0x111B JUMP JUMPDEST JUMPDEST EQ PUSH2 0x359 JUMPI PUSH1 0x40 MLOAD PUSH32 0x8C379A000000000000000000000000000000000000000000000000000000000 DUP2 MSTORE PUSH1 0x4 ADD PUSH2 0x350 SWAP1 PUSH2 0x15A9 JUMP JUMPDEST PUSH1 0x40 MLOAD DUP1 SWAP2 SUB SWAP1 REVERT JUMPDEST PUSH1 0x1 DUP2 PUSH1 0x4 ADD PUSH1 0x0 PUSH2 0x100 EXP DUP2 SLOAD DUP2 PUSH1 0xFF MUL NOT AND SWAP1 DUP4 PUSH1 0x3 DUP2 GT ISZERO PUSH2 0x381 JUMPI PUSH2 0x380 PUSH2 0x111B JUMP JUMPDEST JUMPDEST MUL OR SWAP1 SSTORE POP CALLER PUSH20 0xFFFFFFFFFFFFFFFFFFFFFFFFFFFFFFFFFFFFFFFF AND DUP3 PUSH32 0xF3A34A7A216F396897A5BD0483C3B0B288E703D61C3C0F3A1C1CF6E04CB3130A PUSH1 0x40 MLOAD PUSH1 0x40 MLOAD DUP1 SWAP2 SUB SWAP1 LOG3 POP PUSH2 0x3D3 PUSH2 0xE3E JUMP JUMPDEST POP JUMP JUMPDEST PUSH1 0x5 PUSH1 0x20 MSTORE DUP2 PUSH1 0x0 MSTORE PUSH1 0x40 PUSH1 0x0 KECCAK256 DUP2 DUP2 SLOAD DUP2 LT PUSH2 0x3F2 JUMPI PUSH1 0x0 DUP1 REVERT JUMPDEST SWAP1 PUSH1 0x0 MSTORE PUSH1 0x20 PUSH1 0x0 KECCAK256 ADD PUSH1 0x0 SWAP2 POP SWAP2 POP POP SLOAD DUP2 JUMP JUMPDEST PUSH1 0x3 PUSH1 0x20 MSTORE DUP1 PUSH1 0x0 MSTORE PUSH1 0x40 PUSH1 0x0 KECCAK256 PUSH1 0x0 SWAP2 POP SWAP1 POP DUP1 PUSH1 0x0 ADD SLOAD SWAP1 DUP1 PUSH1 0x1 ADD PUSH1 0x0 SWAP1 SLOAD SWAP1 PUSH2 0x100 EXP SWAP1 DIV PUSH20 0xFFFFFFFFFFFFFFFFFFFFFFFFFFFFFFFFFFFFFFFF AND SWAP1 DUP1 PUSH1 0x2 ADD PUSH1 0x0 SWAP1 SLOAD SWAP1 PUSH2 0x100 EXP SWAP1 DIV PUSH20 0xFFFFFFFFFFFFFFFFFFFFFFFFFFFFFFFFFFFFFFFF AND SWAP1 DUP1 PUSH1 0x3 ADD DUP1 SLOAD PUSH2 0x47C SWAP1 PUSH2 0x15F8 JUMP JUMPDEST DUP1 PUSH1 0x1F ADD PUSH1 0x20 DUP1 SWAP2 DIV MUL PUSH1 0x20 ADD PUSH1 0x40 MLOAD SWAP1 DUP2 ADD PUSH1 0x40 MSTORE DUP1 SWAP3 SWAP2 SWAP1 DUP2 DUP2 MSTORE PUSH1 0x20 ADD DUP3 DUP1 SLOAD PUSH2 0x4A8 SWAP1 PUSH2 0x15F8 JUMP JUMPDEST DUP1 ISZERO PUSH2 0x4F5 JUMPI DUP1 PUSH1 0x1F LT PUSH2 0x4CA JUMPI PUSH2 0x100 DUP1 DUP4 SLOAD DIV MUL DUP4 MSTORE SWAP2 PUSH1 0x20 ADD SWAP2 PUSH2 0x4F5 JUMP JUMPDEST DUP3 ADD SWAP2 SWAP1 PUSH1 0x0 MSTORE PUSH1 0x20 PUSH1 0x0 KECCAK256 SWAP1 JUMPDEST DUP2 SLOAD DUP2 MSTORE SWAP1 PUSH1 0x1 ADD SWAP1 PUSH1 0x20 ADD DUP1 DUP4 GT PUSH2 0x4D8 JUMPI DUP3 SWAP1 SUB PUSH1 0x1F AND DUP3 ADD SWAP2 JUMPDEST POP POP POP POP POP SWAP1 DUP1 PUSH1 0x4 ADD PUSH1 0x0 SWAP1 SLOAD SWAP1 PUSH2 0x100 EXP SWAP1 DIV PUSH1 0xFF AND SWAP1 DUP1 PUSH1 0x5 ADD SLOAD SWAP1 DUP1 PUSH1 0x6 ADD SLOAD SWAP1 POP DUP8 JUMP JUMPDEST PUSH1 0x0 PUSH2 0x528 PUSH2 0xDF8 JUMP JUMPDEST PUSH1 0x0 PUSH1 0x1 PUSH1 0x0 SWAP1 SLOAD SWAP1 PUSH2 0x100 EXP SWAP1 DIV PUSH20 0xFFFFFFFFFFFFFFFFFFFFFFFFFFFFFFFFFFFFFFFF AND PUSH20 0xFFFFFFFFFFFFFFFFFFFFFFFFFFFFFFFFFFFFFFFF AND PUSH4 0x2FEA7B81 DUP7 PUSH1 0x40 MLOAD DUP3 PUSH4 0xFFFFFFFF AND PUSH1 0xE0 SHL DUP2 MSTORE PUSH1 0x4 ADD PUSH2 0x585 SWAP2 SWAP1 PUSH2 0x1629 JUMP JUMPDEST PUSH1 0x0 PUSH1 0x40 MLOAD DUP1 DUP4 SUB DUP2 DUP7 GAS STATICCALL ISZERO DUP1 ISZERO PUSH2 0x5A2 JUMPI RETURNDATASIZE PUSH1 0x0 DUP1 RETURNDATACOPY RETURNDATASIZE PUSH1 0x0 REVERT JUMPDEST POP POP POP POP PUSH1 0x40 MLOAD RETURNDATASIZE PUSH1 0x0 DUP3 RETURNDATACOPY RETURNDATASIZE PUSH1 0x1F NOT PUSH1 0x1F DUP3 ADD AND DUP3 ADD DUP1 PUSH1 0x40 MSTORE POP DUP2 ADD SWAP1 PUSH2 0x5CB SWAP2 SWAP1 PUSH2 0x17B2 JUMP JUMPDEST POP POP POP SWAP1 POP PUSH1 0x0 DUP2 MLOAD GT PUSH2 0x614 JUMPI PUSH1 0x40 MLOAD PUSH32 0x8C379A000000000000000000000000000000000000000000000000000000000 DUP2 MSTORE PUSH1 0x4 ADD PUSH2 0x60B SWAP1 PUSH2 0x1881 JUMP JUMPDEST PUSH1 0x40 MLOAD DUP1 SWAP2 SUB SWAP1 REVERT JUMPDEST PUSH1 0x2 PUSH1 0x0 DUP2 SLOAD DUP1 SWAP3 SWAP2 SWAP1 PUSH2 0x627 SWAP1 PUSH2 0x18D0 JUMP JUMPDEST SWAP2 SWAP1 POP SSTORE POP PUSH1 0x0 PUSH1 0x2 SLOAD SWAP1 POP PUSH1 0x40 MLOAD DUP1 PUSH1 0xE0 ADD PUSH1 0x40 MSTORE DUP1 DUP3 DUP2 MSTORE PUSH1 0x20 ADD CALLER PUSH20 0xFFFFFFFFFFFFFFFFFFFFFFFFFFFFFFFFFFFFFFFF AND DUP2 MSTORE PUSH1 0x20 ADD DUP8 PUSH20 0xFFFFFFFFFFFFFFFFFFFFFFFFFFFFFFFFFFFFFFFF AND DUP2 MSTORE PUSH1 0x20 ADD DUP7 DUP7 DUP1 DUP1 PUSH1 0x1F ADD PUSH1 0x20 DUP1 SWAP2 DIV MUL PUSH1 0x20 ADD PUSH1 0x40 MLOAD SWAP1 DUP2 ADD PUSH1 0x40 MSTORE DUP1 SWAP4 SWAP3 SWAP2 SWAP1 DUP2 DUP2 MSTORE PUSH1 0x20 ADD DUP4 DUP4 DUP1 DUP3 DUP5 CALLDATACOPY PUSH1 0x0 DUP2 DUP5 ADD MSTORE PUSH1 0x1F NOT PUSH1 0x1F DUP3 ADD AND SWAP1 POP DUP1 DUP4 ADD SWAP3 POP POP POP POP POP POP POP DUP2 MSTORE PUSH1 0x20 ADD PUSH1 0x0 PUSH1 0x3 DUP2 GT ISZERO PUSH2 0x6DA JUMPI PUSH2 0x6D9 PUSH2 0x111B JUMP JUMPDEST JUMPDEST DUP2 MSTORE PUSH1 0x20 ADD TIMESTAMP DUP2 MSTORE PUSH1 0x20 ADD PUSH1 0x0 DUP2 MSTORE POP PUSH1 0x3 PUSH1 0x0 DUP4 DUP2 MSTORE PUSH1 0x20 ADD SWAP1 DUP2 MSTORE PUSH1 0x20 ADD PUSH1 0x0 KECCAK256 PUSH1 0x0 DUP3 ADD MLOAD DUP2 PUSH1 0x0 ADD SSTORE PUSH1 0x20 DUP3 ADD MLOAD DUP2 PUSH1 0x1 ADD PUSH1 0x0 PUSH2 0x100 EXP DUP2 SLOAD DUP2 PUSH20 0xFFFFFFFFFFFFFFFFFFFFFFFFFFFFFFFFFFFFFFFF MUL NOT AND SWAP1 DUP4 PUSH20 0xFFFFFFFFFFFFFFFFFFFFFFFFFFFFFFFFFFFFFFFF AND MUL OR SWAP1 SSTORE POP PUSH1 0x40 DUP3 ADD MLOAD DUP2 PUSH1 0x2 ADD PUSH1 0x0 PUSH2 0x100 EXP DUP2 SLOAD DUP2 PUSH20 0xFFFFFFFFFFFFFFFFFFFFFFFFFFFFFFFFFFFFFFFF MUL NOT AND SWAP1 DUP4 PUSH20 0xFFFFFFFFFFFFFFFFFFFFFFFFFFFFFFFFFFFFFFFF AND MUL OR SWAP1 SSTORE POP PUSH1 0x60 DUP3 ADD MLOAD DUP2 PUSH1 0x3 ADD SWAP1 DUP2 PUSH2 0x7AA SWAP2 SWAP1 PUSH2 0x1ABA JUMP JUMPDEST POP PUSH1 0x80 DUP3 ADD MLOAD DUP2 PUSH1 0x4 ADD PUSH1 0x0 PUSH2 0x100 EXP DUP2 SLOAD DUP2 PUSH1 0xFF MUL NOT AND SWAP1 DUP4 PUSH1 0x3 DUP2 GT ISZERO PUSH2 0x7D6 JUMPI PUSH2 0x7D5 PUSH2 0x111B JUMP JUMPDEST JUMPDEST MUL OR SWAP1 SSTORE POP PUSH1 0xA0 DUP3 ADD MLOAD DUP2 PUSH1 0x5 ADD SSTORE PUSH1 0xC0 DUP3 ADD MLOAD DUP2 PUSH1 0x6 ADD SSTORE SWAP1 POP POP PUSH1 0x4 PUSH1 0x0 DUP8 PUSH20 0xFFFFFFFFFFFFFFFFFFFFFFFFFFFFFFFFFFFFFFFF AND PUSH20 0xFFFFFFFFFFFFFFFFFFFFFFFFFFFFFFFFFFFFFFFF AND DUP2 MSTORE PUSH1 0x20 ADD SWAP1 DUP2 MSTORE PUSH1 0x20 ADD PUSH1 0x0 KECCAK256 DUP2 SWAP1 DUP1 PUSH1 0x1 DUP2 SLOAD ADD DUP1 DUP3 SSTORE DUP1 SWAP2 POP POP PUSH1 0x1 SWAP1 SUB SWAP1 PUSH1 0x0 MSTORE PUSH1 0x20 PUSH1 0x0 KECCAK256 ADD PUSH1 0x0 SWAP1 SWAP2 SWAP1 SWAP2 SWAP1 SWAP2 POP SSTORE PUSH1 0x5 PUSH1 0x0 CALLER PUSH20 0xFFFFFFFFFFFFFFFFFFFFFFFFFFFFFFFFFFFFFFFF AND PUSH20 0xFFFFFFFFFFFFFFFFFFFFFFFFFFFFFFFFFFFFFFFF AND DUP2 MSTORE PUSH1 0x20 ADD SWAP1 DUP2 MSTORE PUSH1 0x20 ADD PUSH1 0x0 KECCAK256 DUP2 SWAP1 DUP1 PUSH1 0x1 DUP2 SLOAD ADD DUP1 DUP3 SSTORE DUP1 SWAP2 POP POP PUSH1 0x1 SWAP1 SUB SWAP1 PUSH1 0x0 MSTORE PUSH1 0x20 PUSH1 0x0 KECCAK256 ADD PUSH1 0x0 SWAP1 SWAP2 SWAP1 SWAP2 SWAP1 SWAP2 POP SSTORE DUP6 PUSH20 0xFFFFFFFFFFFFFFFFFFFFFFFFFFFFFFFFFFFFFFFF AND CALLER PUSH20 0xFFFFFFFFFFFFFFFFFFFFFFFFFFFFFFFFFFFFFFFF AND DUP3 PUSH32 0xBB1B2AF268537914F3A2746C815A9776725EC55681E2BF1C206DF55E92583B1A DUP9 DUP9 PUSH1 0x40 MLOAD PUSH2 0x91E SWAP3 SWAP2 SWAP1 PUSH2 0x1BC8 JUMP JUMPDEST PUSH1 0x40 MLOAD DUP1 SWAP2 SUB SWAP1 LOG4 DUP1 SWAP3 POP POP POP PUSH2 0x933 PUSH2 0xE3E JUMP JUMPDEST SWAP4 SWAP3 POP POP POP JUMP JUMPDEST PUSH1 0x60 PUSH1 0x0 PUSH1 0x4 PUSH1 0x0 DUP5 PUSH20 0xFFFFFFFFFFFFFFFFFFFFFFFFFFFFFFFFFFFFFFFF AND PUSH20 0xFFFFFFFFFFFFFFFFFFFFFFFFFFFFFFFFFFFFFFFF AND DUP2 MSTORE PUSH1 0x20 ADD SWAP1 DUP2 MSTORE PUSH1 0x20 ADD PUSH1 0x0 KECCAK256 DUP1 SLOAD DUP1 PUSH1 0x20 MUL PUSH1 0x20 ADD PUSH1 0x40 MLOAD SWAP1 DUP2 ADD PUSH1 0x40 MSTORE DUP1 SWAP3 SWAP2 SWAP1 DUP2 DUP2 MSTORE PUSH1 0x20 ADD DUP3 DUP1 SLOAD DUP1 ISZERO PUSH2 0x9C7 JUMPI PUSH1 0x20 MUL DUP3 ADD SWAP2 SWAP1 PUSH1 0x0 MSTORE PUSH1 0x20 PUSH1 0x0 KECCAK256 SWAP1 JUMPDEST DUP2 SLOAD DUP2 MSTORE PUSH1 0x20 ADD SWAP1 PUSH1 0x1 ADD SWAP1 DUP1 DUP4 GT PUSH2 0x9B3 JUMPI JUMPDEST POP POP POP POP POP SWAP1 POP PUSH1 0x0 DUP2 MLOAD PUSH8 0xFFFFFFFFFFFFFFFF DUP2 GT ISZERO PUSH2 0x9EB JUMPI PUSH2 0x9EA PUSH2 0x1649 JUMP JUMPDEST JUMPDEST PUSH1 0x40 MLOAD SWAP1 DUP1 DUP3 MSTORE DUP1 PUSH1 0x20 MUL PUSH1 0x20 ADD DUP3 ADD PUSH1 0x40 MSTORE DUP1 ISZERO PUSH2 0xA24 JUMPI DUP2 PUSH1 0x20 ADD JUMPDEST PUSH2 0xA11 PUSH2 0xE48 JUMP JUMPDEST DUP2 MSTORE PUSH1 0x20 ADD SWAP1 PUSH1 0x1 SWAP1 SUB SWAP1 DUP2 PUSH2 0xA09 JUMPI SWAP1 POP JUMPDEST POP SWAP1 POP PUSH1 0x0 JUMPDEST DUP3 MLOAD DUP2 LT ISZERO PUSH2 0xC33 JUMPI PUSH1 0x3 PUSH1 0x0 DUP5 DUP4 DUP2 MLOAD DUP2 LT PUSH2 0xA4A JUMPI PUSH2 0xA49 PUSH2 0x1BEC JUMP JUMPDEST JUMPDEST PUSH1 0x20 MUL PUSH1 0x20 ADD ADD MLOAD DUP2 MSTORE PUSH1 0x20 ADD SWAP1 DUP2 MSTORE PUSH1 0x20 ADD PUSH1 0x0 KECCAK256 PUSH1 0x40 MLOAD DUP1 PUSH1 0xE0 ADD PUSH1 0x40 MSTORE SWAP1 DUP2 PUSH1 0x0 DUP3 ADD SLOAD DUP2 MSTORE PUSH1 0x20 ADD PUSH1 0x1 DUP3 ADD PUSH1 0x0 SWAP1 SLOAD SWAP1 PUSH2 0x100 EXP SWAP1 DIV PUSH20 0xFFFFFFFFFFFFFFFFFFFFFFFFFFFFFFFFFFFFFFFF AND PUSH20 0xFFFFFFFFFFFFFFFFFFFFFFFFFFFFFFFFFFFFFFFF AND PUSH20 0xFFFFFFFFFFFFFFFFFFFFFFFFFFFFFFFFFFFFFFFF AND DUP2 MSTORE PUSH1 0x20 ADD PUSH1 0x2 DUP3 ADD PUSH1 0x0 SWAP1 SLOAD SWAP1 PUSH2 0x100 EXP SWAP1 DIV PUSH20 0xFFFFFFFFFFFFFFFFFFFFFFFFFFFFFFFFFFFFFFFF AND PUSH20 0xFFFFFFFFFFFFFFFFFFFFFFFFFFFFFFFFFFFFFFFF AND PUSH20 0xFFFFFFFFFFFFFFFFFFFFFFFFFFFFFFFFFFFFFFFF AND DUP2 MSTORE PUSH1 0x20 ADD PUSH1 0x3 DUP3 ADD DUP1 SLOAD PUSH2 0xB31 SWAP1 PUSH2 0x15F8 JUMP JUMPDEST DUP1 PUSH1 0x1F ADD PUSH1 0x20 DUP1 SWAP2 DIV MUL PUSH1 0x20 ADD PUSH1 0x40 MLOAD SWAP1 DUP2 ADD PUSH1 0x40 MSTORE DUP1 SWAP3 SWAP2 SWAP1 DUP2 DUP2 MSTORE PUSH1 0x20 ADD DUP3 DUP1 SLOAD PUSH2 0xB5D SWAP1 PUSH2 0x15F8 JUMP JUMPDEST DUP1 ISZERO PUSH2 0xBAA JUMPI DUP1 PUSH1 0x1F LT PUSH2 0xB7F JUMPI PUSH2 0x100 DUP1 DUP4 SLOAD DIV MUL DUP4 MSTORE SWAP2 PUSH1 0x20 ADD SWAP2 PUSH2 0xBAA JUMP JUMPDEST DUP3 ADD SWAP2 SWAP1 PUSH1 0x0 MSTORE PUSH1 0x20 PUSH1 0x0 KECCAK256 SWAP1 JUMPDEST DUP2 SLOAD DUP2 MSTORE SWAP1 PUSH1 0x1 ADD SWAP1 PUSH1 0x20 ADD DUP1 DUP4 GT PUSH2 0xB8D JUMPI DUP3 SWAP1 SUB PUSH1 0x1F AND DUP3 ADD SWAP2 JUMPDEST POP POP POP POP POP DUP2 MSTORE PUSH1 0x20 ADD PUSH1 0x4 DUP3 ADD PUSH1 0x0 SWAP1 SLOAD SWAP1 PUSH2 0x100 EXP SWAP1 DIV PUSH1 0xFF AND PUSH1 0x3 DUP2 GT ISZERO PUSH2 0xBD8 JUMPI PUSH2 0xBD7 PUSH2 0x111B JUMP JUMPDEST JUMPDEST PUSH1 0x3 DUP2 GT ISZERO PUSH2 0xBEA JUMPI PUSH2 0xBE9 PUSH2 0x111B JUMP JUMPDEST JUMPDEST DUP2 MSTORE PUSH1 0x20 ADD PUSH1 0x5 DUP3 ADD SLOAD DUP2 MSTORE PUSH1 0x20 ADD PUSH1 0x6 DUP3 ADD SLOAD DUP2 MSTORE POP POP DUP3 DUP3 DUP2 MLOAD DUP2 LT PUSH2 0xC15 JUMPI PUSH2 0xC14 PUSH2 0x1BEC JUMP JUMPDEST JUMPDEST PUSH1 0x20 MUL PUSH1 0x20 ADD ADD DUP2 SWAP1 MSTORE POP DUP1 DUP1 PUSH2 0xC2B SWAP1 PUSH2 0x18D0 JUMP JUMPDEST SWAP2 POP POP PUSH2 0xA2A JUMP JUMPDEST POP DUP1 SWAP3 POP POP POP SWAP2 SWAP1 POP JUMP JUMPDEST PUSH2 0xC46 PUSH2 0xDF8 JUMP JUMPDEST PUSH1 0x0 PUSH1 0x3 PUSH1 0x0 DUP4 DUP2 MSTORE PUSH1 0x20 ADD SWAP1 DUP2 MSTORE PUSH1 0x20 ADD PUSH1 0x0 KECCAK256 SWAP1 POP DUP1 PUSH1 0x1 ADD PUSH1 0x0 SWAP1 SLOAD SWAP1 PUSH2 0x100 EXP SWAP1 DIV PUSH20 0xFFFFFFFFFFFFFFFFFFFFFFFFFFFFFFFFFFFFFFFF AND PUSH20 0xFFFFFFFFFFFFFFFFFFFFFFFFFFFFFFFFFFFFFFFF AND CALLER PUSH20 0xFFFFFFFFFFFFFFFFFFFFFFFFFFFFFFFFFFFFFFFF AND EQ PUSH2 0xCEF JUMPI PUSH1 0x40 MLOAD PUSH32 0x8C379A000000000000000000000000000000000000000000000000000000000 DUP2 MSTORE PUSH1 0x4 ADD PUSH2 0xCE6 SWAP1 PUSH2 0x1C67 JUMP JUMPDEST PUSH1 0x40 MLOAD DUP1 SWAP2 SUB SWAP1 REVERT JUMPDEST PUSH1 0x1 PUSH1 0x3 DUP2 GT ISZERO PUSH2 0xD03 JUMPI PUSH2 0xD02 PUSH2 0x111B JUMP JUMPDEST JUMPDEST DUP2 PUSH1 0x4 ADD PUSH1 0x0 SWAP1 SLOAD SWAP1 PUSH2 0x100 EXP SWAP1 DIV PUSH1 0xFF AND PUSH1 0x3 DUP2 GT ISZERO PUSH2 0xD27 JUMPI PUSH2 0xD26 PUSH2 0x111B JUMP JUMPDEST JUMPDEST EQ PUSH2 0xD67 JUMPI PUSH1 0x40 MLOAD PUSH32 0x8C379A000000000000000000000000000000000000000000000000000000000 DUP2 MSTORE PUSH1 0x4 ADD PUSH2 0xD5E SWAP1 PUSH2 0x1CD3 JUMP JUMPDEST PUSH1 0x40 MLOAD DUP1 SWAP2 SUB SWAP1 REVERT JUMPDEST PUSH1 0x3 DUP2 PUSH1 0x4 ADD PUSH1 0x0 PUSH2 0x100 EXP DUP2 SLOAD DUP2 PUSH1 0xFF MUL NOT AND SWAP1 DUP4 PUSH1 0x3 DUP2 GT ISZERO PUSH2 0xD8F JUMPI PUSH2 0xD8E PUSH2 0x111B JUMP JUMPDEST JUMPDEST MUL OR SWAP1 SSTORE POP TIMESTAMP DUP2 PUSH1 0x6 ADD DUP2 SWAP1 SSTORE POP CALLER PUSH20 0xFFFFFFFFFFFFFFFFFFFFFFFFFFFFFFFFFFFFFFFF AND DUP3 PUSH32 0xC8FB91C035460E77A706805907D40A549C7BE443BACE051EDF7ED20B62936A1 TIMESTAMP PUSH1 0x40 MLOAD PUSH2 0xDE4 SWAP2 SWAP1 PUSH2 0x1034 JUMP JUMPDEST PUSH1 0x40 MLOAD DUP1 SWAP2 SUB SWAP1 LOG3 POP PUSH2 0xDF5 PUSH2 0xE3E JUMP JUMPDEST POP JUMP JUMPDEST PUSH1 0x2 PUSH1 0x0 SLOAD SUB PUSH2 0xE34 JUMPI PUSH1 0x40 MLOAD PUSH32 0x3EE5AEB500000000000000000000000000000000000000000000000000000000 DUP2 MSTORE PUSH1 0x4 ADD PUSH1 0x40 MLOAD DUP1 SWAP2 SUB SWAP1 REVERT JUMPDEST PUSH1 0x2 PUSH1 0x0 DUP2 SWAP1 SSTORE POP JUMP JUMPDEST PUSH1 0x1 PUSH1 0x0 DUP2 SWAP1 SSTORE POP JUMP JUMPDEST PUSH1 0x40 MLOAD DUP1 PUSH1 0xE0 ADD PUSH1 0x40 MSTORE DUP1 PUSH1 0x0 DUP2 MSTORE PUSH1 0x20 ADD PUSH1 0x0 PUSH20 0xFFFFFFFFFFFFFFFFFFFFFFFFFFFFFFFFFFFFFFFF AND DUP2 MSTORE PUSH1 0x20 ADD PUSH1 0x0 PUSH20 0xFFFFFFFFFFFFFFFFFFFFFFFFFFFFFFFFFFFFFFFF AND DUP2 MSTORE PUSH1 0x20 ADD PUSH1 0x60 DUP2 MSTORE PUSH1 0x20 ADD PUSH1 0x0 PUSH1 0x3 DUP2 GT ISZERO PUSH2 0xEAF JUMPI PUSH2 0xEAE PUSH2 0x111B JUMP JUMPDEST JUMPDEST DUP2 MSTORE PUSH1 0x20 ADD PUSH1 0x0 DUP2 MSTORE PUSH1 0x20 ADD PUSH1 0x0 DUP2 MSTORE POP SWAP1 JUMP JUMPDEST PUSH1 0x0 PUSH20 0xFFFFFFFFFFFFFFFFFFFFFFFFFFFFFFFFFFFFFFFF DUP3 AND SWAP1 POP SWAP2 SWAP1 POP JUMP JUMPDEST PUSH1 0x0 DUP2 SWAP1 POP SWAP2 SWAP1 POP JUMP JUMPDEST PUSH1 0x0 PUSH2 0xF08 PUSH2 0xF03 PUSH2 0xEFE DUP5 PUSH2 0xEC3 JUMP JUMPDEST PUSH2 0xEE3 JUMP JUMPDEST PUSH2 0xEC3 JUMP JUMPDEST SWAP1 POP SWAP2 SWAP1 POP JUMP JUMPDEST PUSH1 0x0 PUSH2 0xF1A DUP3 PUSH2 0xEED JUMP JUMPDEST SWAP1 POP SWAP2 SWAP1 POP JUMP JUMPDEST PUSH1 0x0 PUSH2 0xF2C DUP3 PUSH2 0xF0F JUMP JUMPDEST SWAP1 POP SWAP2 SWAP1 POP JUMP JUMPDEST PUSH2 0xF3C DUP2 PUSH2 0xF21 JUMP JUMPDEST DUP3 MSTORE POP POP JUMP JUMPDEST PUSH1 0x0 PUSH1 0x20 DUP3 ADD SWAP1 POP PUSH2 0xF57 PUSH1 0x0 DUP4 ADD DUP5 PUSH2 0xF33 JUMP JUMPDEST SWAP3 SWAP2 POP POP JUMP JUMPDEST PUSH1 0x0 PUSH1 0x40 MLOAD SWAP1 POP SWAP1 JUMP JUMPDEST PUSH1 0x0 DUP1 REVERT JUMPDEST PUSH1 0x0 DUP1 REVERT JUMPDEST PUSH1 0x0 PUSH2 0xF7C DUP3 PUSH2 0xEC3 JUMP JUMPDEST SWAP1 POP SWAP2 SWAP1 POP JUMP JUMPDEST PUSH2 0xF8C DUP2 PUSH2 0xF71 JUMP JUMPDEST DUP2 EQ PUSH2 0xF97 JUMPI PUSH1 0x0 DUP1 REVERT JUMPDEST POP JUMP JUMPDEST PUSH1 0x0 DUP2 CALLDATALOAD SWAP1 POP PUSH2 0xFA9 DUP2 PUSH2 0xF83 JUMP JUMPDEST SWAP3 SWAP2 POP POP JUMP JUMPDEST PUSH1 0x0 DUP2 SWAP1 POP SWAP2 SWAP1 POP JUMP JUMPDEST PUSH2 0xFC2 DUP2 PUSH2 0xFAF JUMP JUMPDEST DUP2 EQ PUSH2 0xFCD JUMPI PUSH1 0x0 DUP1 REVERT JUMPDEST POP JUMP JUMPDEST PUSH1 0x0 DUP2 CALLDATALOAD SWAP1 POP PUSH2 0xFDF DUP2 PUSH2 0xFB9 JUMP JUMPDEST SWAP3 SWAP2 POP POP JUMP JUMPDEST PUSH1 0x0 DUP1 PUSH1 0x40 DUP4 DUP6 SUB SLT ISZERO PUSH2 0xFFC JUMPI PUSH2 0xFFB PUSH2 0xF67 JUMP JUMPDEST JUMPDEST PUSH1 0x0 PUSH2 0x100A DUP6 DUP3 DUP7 ADD PUSH2 0xF9A JUMP JUMPDEST SWAP3 POP POP PUSH1 0x20 PUSH2 0x101B DUP6 DUP3 DUP7 ADD PUSH2 0xFD0 JUMP JUMPDEST SWAP2 POP POP SWAP3 POP SWAP3 SWAP1 POP JUMP JUMPDEST PUSH2 0x102E DUP2 PUSH2 0xFAF JUMP JUMPDEST DUP3 MSTORE POP POP JUMP JUMPDEST PUSH1 0x0 PUSH1 0x20 DUP3 ADD SWAP1 POP PUSH2 0x1049 PUSH1 0x0 DUP4 ADD DUP5 PUSH2 0x1025 JUMP JUMPDEST SWAP3 SWAP2 POP POP JUMP JUMPDEST PUSH1 0x0 PUSH1 0x20 DUP3 DUP5 SUB SLT ISZERO PUSH2 0x1065 JUMPI PUSH2 0x1064 PUSH2 0xF67 JUMP JUMPDEST JUMPDEST PUSH1 0x0 PUSH2 0x1073 DUP5 DUP3 DUP6 ADD PUSH2 0xFD0 JUMP JUMPDEST SWAP2 POP POP SWAP3 SWAP2 POP POP JUMP JUMPDEST PUSH2 0x1085 DUP2 PUSH2 0xF71 JUMP JUMPDEST DUP3 MSTORE POP POP JUMP JUMPDEST PUSH1 0x0 DUP2 MLOAD SWAP1 POP SWAP2 SWAP1 POP JUMP JUMPDEST PUSH1 0x0 DUP3 DUP3 MSTORE PUSH1 0x20 DUP3 ADD SWAP1 POP SWAP3 SWAP2 POP POP JUMP JUMPDEST PUSH1 0x0 JUMPDEST DUP4 DUP2 LT ISZERO PUSH2 0x10C5 JUMPI DUP1 DUP3 ADD MLOAD DUP2 DUP5 ADD MSTORE PUSH1 0x20 DUP2 ADD SWAP1 POP PUSH2 0x10AA JUMP JUMPDEST PUSH1 0x0 DUP5 DUP5 ADD MSTORE POP POP POP POP JUMP JUMPDEST PUSH1 0x0 PUSH1 0x1F NOT PUSH1 0x1F DUP4 ADD AND SWAP1 POP SWAP2 SWAP1 POP JUMP JUMPDEST PUSH1 0x0 PUSH2 0x10ED DUP3 PUSH2 0x108B JUMP JUMPDEST PUSH2 0x10F7 DUP2 DUP6 PUSH2 0x1096 JUMP JUMPDEST SWAP4 POP PUSH2 0x1107 DUP2 DUP6 PUSH1 0x20 DUP7 ADD PUSH2 0x10A7 JUMP JUMPDEST PUSH2 0x1110 DUP2 PUSH2 0x10D1 JUMP JUMPDEST DUP5 ADD SWAP2 POP POP SWAP3 SWAP2 POP POP JUMP JUMPDEST PUSH32 0x4E487B7100000000000000000000000000000000000000000000000000000000 PUSH1 0x0 MSTORE PUSH1 0x21 PUSH1 0x4 MSTORE PUSH1 0x24 PUSH1 0x0 REVERT JUMPDEST PUSH1 0x4 DUP2 LT PUSH2 0x115B JUMPI PUSH2 0x115A PUSH2 0x111B JUMP JUMPDEST JUMPDEST POP JUMP JUMPDEST PUSH1 0x0 DUP2 SWAP1 POP PUSH2 0x116C DUP3 PUSH2 0x114A JUMP JUMPDEST SWAP2 SWAP1 POP JUMP JUMPDEST PUSH1 0x0 PUSH2 0x117C DUP3 PUSH2 0x115E JUMP JUMPDEST SWAP1 POP SWAP2 SWAP1 POP JUMP JUMPDEST PUSH2 0x118C DUP2 PUSH2 0x1171 JUMP JUMPDEST DUP3 MSTORE POP POP JUMP JUMPDEST PUSH1 0x0 PUSH1 0xE0 DUP3 ADD SWAP1 POP PUSH2 0x11A7 PUSH1 0x0 DUP4 ADD DUP11 PUSH2 0x1025 JUMP JUMPDEST PUSH2 0x11B4 PUSH1 0x20 DUP4 ADD DUP10 PUSH2 0x107C JUMP JUMPDEST PUSH2 0x11C1 PUSH1 0x40 DUP4 ADD DUP9 PUSH2 0x107C JUMP JUMPDEST DUP2 DUP2 SUB PUSH1 0x60 DUP4 ADD MSTORE PUSH2 0x11D3 DUP2 DUP8 PUSH2 0x10E2 JUMP JUMPDEST SWAP1 POP PUSH2 0x11E2 PUSH1 0x80 DUP4 ADD DUP7 PUSH2 0x1183 JUMP JUMPDEST PUSH2 0x11EF PUSH1 0xA0 DUP4 ADD DUP6 PUSH2 0x1025 JUMP JUMPDEST PUSH2 0x11FC PUSH1 0xC0 DUP4 ADD DUP5 PUSH2 0x1025 JUMP JUMPDEST SWAP9 SWAP8 POP POP POP POP POP POP POP POP JUMP JUMPDEST PUSH1 0x0 DUP1 REVERT JUMPDEST PUSH1 0x0 DUP1 REVERT JUMPDEST PUSH1 0x0 DUP1 REVERT JUMPDEST PUSH1 0x0 DUP1 DUP4 PUSH1 0x1F DUP5 ADD SLT PUSH2 0x122D JUMPI PUSH2 0x122C PUSH2 0x1208 JUMP JUMPDEST JUMPDEST DUP3 CALLDATALOAD SWAP1 POP PUSH8 0xFFFFFFFFFFFFFFFF DUP2 GT ISZERO PUSH2 0x124A JUMPI PUSH2 0x1249 PUSH2 0x120D JUMP JUMPDEST JUMPDEST PUSH1 0x20 DUP4 ADD SWAP2 POP DUP4 PUSH1 0x1 DUP3 MUL DUP4 ADD GT ISZERO PUSH2 0x1266 JUMPI PUSH2 0x1265 PUSH2 0x1212 JUMP JUMPDEST JUMPDEST SWAP3 POP SWAP3 SWAP1 POP JUMP JUMPDEST PUSH1 0x0 DUP1 PUSH1 0x0 PUSH1 0x40 DUP5 DUP7 SUB SLT ISZERO PUSH2 0x1286 JUMPI PUSH2 0x1285 PUSH2 0xF67 JUMP JUMPDEST JUMPDEST PUSH1 0x0 PUSH2 0x1294 DUP7 DUP3 DUP8 ADD PUSH2 0xF9A JUMP JUMPDEST SWAP4 POP POP PUSH1 0x20 DUP5 ADD CALLDATALOAD PUSH8 0xFFFFFFFFFFFFFFFF DUP2 GT ISZERO PUSH2 0x12B5 JUMPI PUSH2 0x12B4 PUSH2 0xF6C JUMP JUMPDEST JUMPDEST PUSH2 0x12C1 DUP7 DUP3 DUP8 ADD PUSH2 0x1217 JUMP JUMPDEST SWAP3 POP SWAP3 POP POP SWAP3 POP SWAP3 POP SWAP3 JUMP JUMPDEST PUSH1 0x0 PUSH1 0x20 DUP3 DUP5 SUB SLT ISZERO PUSH2 0x12E3 JUMPI PUSH2 0x12E2 PUSH2 0xF67 JUMP JUMPDEST JUMPDEST PUSH1 0x0 PUSH2 0x12F1 DUP5 DUP3 DUP6 ADD PUSH2 0xF9A JUMP JUMPDEST SWAP2 POP POP SWAP3 SWAP2 POP POP JUMP JUMPDEST PUSH1 0x0 DUP2 MLOAD SWAP1 POP SWAP2 SWAP1 POP JUMP JUMPDEST PUSH1 0x0 DUP3 DUP3 MSTORE PUSH1 0x20 DUP3 ADD SWAP1 POP SWAP3 SWAP2 POP POP JUMP JUMPDEST PUSH1 0x0 DUP2 SWAP1 POP PUSH1 0x20 DUP3 ADD SWAP1 POP SWAP2 SWAP1 POP JUMP JUMPDEST PUSH2 0x132F DUP2 PUSH2 0xFAF JUMP JUMPDEST DUP3 MSTORE POP POP JUMP JUMPDEST PUSH2 0x133E DUP2 PUSH2 0xF71 JUMP JUMPDEST DUP3 MSTORE POP POP JUMP JUMPDEST PUSH1 0x0 DUP3 DUP3 MSTORE PUSH1 0x20 DUP3 ADD SWAP1 POP SWAP3 SWAP2 POP POP JUMP JUMPDEST PUSH1 0x0 PUSH2 0x1360 DUP3 PUSH2 0x108B JUMP JUMPDEST PUSH2 0x136A DUP2 DUP6 PUSH2 0x1344 JUMP JUMPDEST SWAP4 POP PUSH2 0x137A DUP2 DUP6 PUSH1 0x20 DUP7 ADD PUSH2 0x10A7 JUMP JUMPDEST PUSH2 0x1383 DUP2 PUSH2 0x10D1 JUMP JUMPDEST DUP5 ADD SWAP2 POP POP SWAP3 SWAP2 POP POP JUMP JUMPDEST PUSH2 0x1397 DUP2 PUSH2 0x1171 JUMP JUMPDEST DUP3 MSTORE POP POP JUMP JUMPDEST PUSH1 0x0 PUSH1 0xE0 DUP4 ADD PUSH1 0x0 DUP4 ADD MLOAD PUSH2 0x13B5 PUSH1 0x0 DUP7 ADD DUP3 PUSH2 0x1326 JUMP JUMPDEST POP PUSH1 0x20 DUP4 ADD MLOAD PUSH2 0x13C8 PUSH1 0x20 DUP7 ADD DUP3 PUSH2 0x1335 JUMP JUMPDEST POP PUSH1 0x40 DUP4 ADD MLOAD PUSH2 0x13DB PUSH1 0x40 DUP7 ADD DUP3 PUSH2 0x1335 JUMP JUMPDEST POP PUSH1 0x60 DUP4 ADD MLOAD DUP5 DUP3 SUB PUSH1 0x60 DUP7 ADD MSTORE PUSH2 0x13F3 DUP3 DUP3 PUSH2 0x1355 JUMP JUMPDEST SWAP2 POP POP PUSH1 0x80 DUP4 ADD MLOAD PUSH2 0x1408 PUSH1 0x80 DUP7 ADD DUP3 PUSH2 0x138E JUMP JUMPDEST POP PUSH1 0xA0 DUP4 ADD MLOAD PUSH2 0x141B PUSH1 0xA0 DUP7 ADD DUP3 PUSH2 0x1326 JUMP JUMPDEST POP PUSH1 0xC0 DUP4 ADD MLOAD PUSH2 0x142E PUSH1 0xC0 DUP7 ADD DUP3 PUSH2 0x1326 JUMP JUMPDEST POP DUP1 SWAP2 POP POP SWAP3 SWAP2 POP POP JUMP JUMPDEST PUSH1 0x0 PUSH2 0x1445 DUP4 DUP4 PUSH2 0x139D JUMP JUMPDEST SWAP1 POP SWAP3 SWAP2 POP POP JUMP JUMPDEST PUSH1 0x0 PUSH1 0x20 DUP3 ADD SWAP1 POP SWAP2 SWAP1 POP JUMP JUMPDEST PUSH1 0x0 PUSH2 0x1465 DUP3 PUSH2 0x12FA JUMP JUMPDEST PUSH2 0x146F DUP2 DUP6 PUSH2 0x1305 JUMP JUMPDEST SWAP4 POP DUP4 PUSH1 0x20 DUP3 MUL DUP6 ADD PUSH2 0x1481 DUP6 PUSH2 0x1316 JUMP JUMPDEST DUP1 PUSH1 0x0 JUMPDEST DUP6 DUP2 LT ISZERO PUSH2 0x14BD JUMPI DUP5 DUP5 SUB DUP10 MSTORE DUP2 MLOAD PUSH2 0x149E DUP6 DUP3 PUSH2 0x1439 JUMP JUMPDEST SWAP5 POP PUSH2 0x14A9 DUP4 PUSH2 0x144D JUMP JUMPDEST SWAP3 POP PUSH1 0x20 DUP11 ADD SWAP10 POP POP PUSH1 0x1 DUP2 ADD SWAP1 POP PUSH2 0x1485 JUMP JUMPDEST POP DUP3 SWAP8 POP DUP8 SWAP6 POP POP POP POP POP POP SWAP3 SWAP2 POP POP JUMP JUMPDEST PUSH1 0x0 PUSH1 0x20 DUP3 ADD SWAP1 POP DUP2 DUP2 SUB PUSH1 0x0 DUP4 ADD MSTORE PUSH2 0x14E9 DUP2 DUP5 PUSH2 0x145A JUMP JUMPDEST SWAP1 POP SWAP3 SWAP2 POP POP JUMP JUMPDEST PUSH32 0x4E6F7420617574686F72697A6564000000000000000000000000000000000000 PUSH1 0x0 DUP3 ADD MSTORE POP JUMP JUMPDEST PUSH1 0x0 PUSH2 0x1527 PUSH1 0xE DUP4 PUSH2 0x1096 JUMP JUMPDEST SWAP2 POP PUSH2 0x1532 DUP3 PUSH2 0x14F1 JUMP JUMPDEST PUSH1 0x20 DUP3 ADD SWAP1 POP SWAP2 SWAP1 POP JUMP JUMPDEST PUSH1 0x0 PUSH1 0x20 DUP3 ADD SWAP1 POP DUP2 DUP2 SUB PUSH1 0x0 DUP4 ADD MSTORE PUSH2 0x1556 DUP2 PUSH2 0x151A JUMP JUMPDEST SWAP1 POP SWAP2 SWAP1 POP JUMP JUMPDEST PUSH32 0x52657175657374206E6F742070656E64696E6700000000000000000000000000 PUSH1 0x0 DUP3 ADD MSTORE POP JUMP JUMPDEST PUSH1 0x0 PUSH2 0x1593 PUSH1 0x13 DUP4 PUSH2 0x1096 JUMP JUMPDEST SWAP2 POP PUSH2 0x159E DUP3 PUSH2 0x155D JUMP JUMPDEST PUSH1 0x20 DUP3 ADD SWAP1 POP SWAP2 SWAP1 POP JUMP JUMPDEST PUSH1 0x0 PUSH1 0x20 DUP3 ADD SWAP1 POP DUP2 DUP2 SUB PUSH1 0x0 DUP4 ADD MSTORE PUSH2 0x15C2 DUP2 PUSH2 0x1586 JUMP JUMPDEST SWAP1 POP SWAP2 SWAP1 POP JUMP JUMPDEST PUSH32 0x4E487B7100000000000000000000000000000000000000000000000000000000 PUSH1 0x0 MSTORE PUSH1 0x22 PUSH1 0x4 MSTORE PUSH1 0x24 PUSH1 0x0 REVERT JUMPDEST PUSH1 0x0 PUSH1 0x2 DUP3 DIV SWAP1 POP PUSH1 0x1 DUP3 AND DUP1 PUSH2 0x1610 JUMPI PUSH1 0x7F DUP3 AND SWAP2 POP JUMPDEST PUSH1 0x20 DUP3 LT DUP2 SUB PUSH2 0x1623 JUMPI PUSH2 0x1622 PUSH2 0x15C9 JUMP JUMPDEST JUMPDEST POP SWAP2 SWAP1 POP JUMP JUMPDEST PUSH1 0x0 PUSH1 0x20 DUP3 ADD SWAP1 POP PUSH2 0x163E PUSH1 0x0 DUP4 ADD DUP5 PUSH2 0x107C JUMP JUMPDEST SWAP3 SWAP2 POP POP JUMP JUMPDEST PUSH1 0x0 DUP1 REVERT JUMPDEST PUSH32 0x4E487B7100000000000000000000000000000000000000000000000000000000 PUSH1 0x0 MSTORE PUSH1 0x41 PUSH1 0x4 MSTORE PUSH1 0x24 PUSH1 0x0 REVERT JUMPDEST PUSH2 0x1681 DUP3 PUSH2 0x10D1 JUMP JUMPDEST DUP2 ADD DUP2 DUP2 LT PUSH8 0xFFFFFFFFFFFFFFFF DUP3 GT OR ISZERO PUSH2 0x16A0 JUMPI PUSH2 0x169F PUSH2 0x1649 JUMP JUMPDEST JUMPDEST DUP1 PUSH1 0x40 MSTORE POP POP POP JUMP JUMPDEST PUSH1 0x0 PUSH2 0x16B3 PUSH2 0xF5D JUMP JUMPDEST SWAP1 POP PUSH2 0x16BF DUP3 DUP3 PUSH2 0x1678 JUMP JUMPDEST SWAP2 SWAP1 POP JUMP JUMPDEST PUSH1 0x0 PUSH8 0xFFFFFFFFFFFFFFFF DUP3 GT ISZERO PUSH2 0x16DF JUMPI PUSH2 0x16DE PUSH2 0x1649 JUMP JUMPDEST JUMPDEST PUSH2 0x16E8 DUP3 PUSH2 0x10D1 JUMP JUMPDEST SWAP1 POP PUSH1 0x20 DUP2 ADD SWAP1 POP SWAP2 SWAP1 POP JUMP JUMPDEST PUSH1 0x0 PUSH2 0x1708 PUSH2 0x1703 DUP5 PUSH2 0x16C4 JUMP JUMPDEST PUSH2 0x16A9 JUMP JUMPDEST SWAP1 POP DUP3 DUP2 MSTORE PUSH1 0x20 DUP2 ADD DUP5 DUP5 DUP5 ADD GT ISZERO PUSH2 0x1724 JUMPI PUSH2 0x1723 PUSH2 0x1644 JUMP JUMPDEST JUMPDEST PUSH2 0x172F DUP5 DUP3 DUP6 PUSH2 0x10A7 JUMP JUMPDEST POP SWAP4 SWAP3 POP POP POP JUMP JUMPDEST PUSH1 0x0 DUP3 PUSH1 0x1F DUP4 ADD SLT PUSH2 0x174C JUMPI PUSH2 0x174B PUSH2 0x1208 JUMP JUMPDEST JUMPDEST DUP2 MLOAD PUSH2 0x175C DUP5 DUP3 PUSH1 0x20 DUP7 ADD PUSH2 0x16F5 JUMP JUMPDEST SWAP2 POP POP SWAP3 SWAP2 POP POP JUMP JUMPDEST PUSH1 0x0 DUP2 ISZERO ISZERO SWAP1 POP SWAP2 SWAP1 POP JUMP JUMPDEST PUSH2 0x177A DUP2 PUSH2 0x1765 JUMP JUMPDEST DUP2 EQ PUSH2 0x1785 JUMPI PUSH1 0x0 DUP1 REVERT JUMPDEST POP JUMP JUMPDEST PUSH1 0x0 DUP2 MLOAD SWAP1 POP PUSH2 0x1797 DUP2 PUSH2 0x1771 JUMP JUMPDEST SWAP3 SWAP2 POP POP JUMP JUMPDEST PUSH1 0x0 DUP2 MLOAD SWAP1 POP PUSH2 0x17AC DUP2 PUSH2 0xFB9 JUMP JUMPDEST SWAP3 SWAP2 POP POP JUMP JUMPDEST PUSH1 0x0 DUP1 PUSH1 0x0 DUP1 PUSH1 0x80 DUP6 DUP8 SUB SLT ISZERO PUSH2 0x17CC JUMPI PUSH2 0x17CB PUSH2 0xF67 JUMP JUMPDEST JUMPDEST PUSH1 0x0 DUP6 ADD MLOAD PUSH8 0xFFFFFFFFFFFFFFFF DUP2 GT ISZERO PUSH2 0x17EA JUMPI PUSH2 0x17E9 PUSH2 0xF6C JUMP JUMPDEST JUMPDEST PUSH2 0x17F6 DUP8 DUP3 DUP9 ADD PUSH2 0x1737 JUMP JUMPDEST SWAP5 POP POP PUSH1 0x20 PUSH2 0x1807 DUP8 DUP3 DUP9 ADD PUSH2 0x1788 JUMP JUMPDEST SWAP4 POP POP PUSH1 0x40 PUSH2 0x1818 DUP8 DUP3 DUP9 ADD PUSH2 0x179D JUMP JUMPDEST SWAP3 POP POP PUSH1 0x60 PUSH2 0x1829 DUP8 DUP3 DUP9 ADD PUSH2 0x179D JUMP JUMPDEST SWAP2 POP POP SWAP3 SWAP6 SWAP2 SWAP5 POP SWAP3 POP JUMP JUMPDEST PUSH32 0x5573657220686173206E6F206964656E74697479000000000000000000000000 PUSH1 0x0 DUP3 ADD MSTORE POP JUMP JUMPDEST PUSH1 0x0 PUSH2 0x186B PUSH1 0x14 DUP4 PUSH2 0x1096 JUMP JUMPDEST SWAP2 POP PUSH2 0x1876 DUP3 PUSH2 0x1835 JUMP JUMPDEST PUSH1 0x20 DUP3 ADD SWAP1 POP SWAP2 SWAP1 POP JUMP JUMPDEST PUSH1 0x0 PUSH1 0x20 DUP3 ADD SWAP1 POP DUP2 DUP2 SUB PUSH1 0x0 DUP4 ADD MSTORE PUSH2 0x189A DUP2 PUSH2 0x185E JUMP JUMPDEST SWAP1 POP SWAP2 SWAP1 POP JUMP JUMPDEST PUSH32 0x4E487B7100000000000000000000000000000000000000000000000000000000 PUSH1 0x0 MSTORE PUSH1 0x11 PUSH1 0x4 MSTORE PUSH1 0x24 PUSH1 0x0 REVERT JUMPDEST PUSH1 0x0 PUSH2 0x18DB DUP3 PUSH2 0xFAF JUMP JUMPDEST SWAP2 POP PUSH32 0xFFFFFFFFFFFFFFFFFFFFFFFFFFFFFFFFFFFFFFFFFFFFFFFFFFFFFFFFFFFFFFFF DUP3 SUB PUSH2 0x190D JUMPI PUSH2 0x190C PUSH2 0x18A1 JUMP JUMPDEST JUMPDEST PUSH1 0x1 DUP3 ADD SWAP1 POP SWAP2 SWAP1 POP JUMP JUMPDEST PUSH1 0x0 DUP2 SWAP1 POP DUP2 PUSH1 0x0 MSTORE PUSH1 0x20 PUSH1 0x0 KECCAK256 SWAP1 POP SWAP2 SWAP1 POP JUMP JUMPDEST PUSH1 0x0 PUSH1 0x20 PUSH1 0x1F DUP4 ADD DIV SWAP1 POP SWAP2 SWAP1 POP JUMP JUMPDEST PUSH1 0x0 DUP3 DUP3 SHL SWAP1 POP SWAP3 SWAP2 POP POP JUMP JUMPDEST PUSH1 0x0 PUSH1 0x8 DUP4 MUL PUSH2 0x197A PUSH32 0xFFFFFFFFFFFFFFFFFFFFFFFFFFFFFFFFFFFFFFFFFFFFFFFFFFFFFFFFFFFFFFFF DUP3 PUSH2 0x193D JUMP JUMPDEST PUSH2 0x1984 DUP7 DUP4 PUSH2 0x193D JUMP JUMPDEST SWAP6 POP DUP1 NOT DUP5 AND SWAP4 POP DUP1 DUP7 AND DUP5 OR SWAP3 POP POP POP SWAP4 SWAP3 POP POP POP JUMP JUMPDEST PUSH1 0x0 PUSH2 0x19B7 PUSH2 0x19B2 PUSH2 0x19AD DUP5 PUSH2 0xFAF JUMP JUMPDEST PUSH2 0xEE3 JUMP JUMPDEST PUSH2 0xFAF JUMP JUMPDEST SWAP1 POP SWAP2 SWAP1 POP JUMP JUMPDEST PUSH1 0x0 DUP2 SWAP1 POP SWAP2 SWAP1 POP JUMP JUMPDEST PUSH2 0x19D1 DUP4 PUSH2 0x199C JUMP JUMPDEST PUSH2 0x19E5 PUSH2 0x19DD DUP3 PUSH2 0x19BE JUMP JUMPDEST DUP5 DUP5 SLOAD PUSH2 0x194A JUMP JUMPDEST DUP3 SSTORE POP POP POP POP JUMP JUMPDEST PUSH1 0x0 SWAP1 JUMP JUMPDEST PUSH2 0x19FA PUSH2 0x19ED JUMP JUMPDEST PUSH2 0x1A05 DUP2 DUP5 DUP5 PUSH2 0x19C8 JUMP JUMPDEST POP POP POP JUMP JUMPDEST JUMPDEST DUP2 DUP2 LT ISZERO PUSH2 0x1A29 JUMPI PUSH2 0x1A1E PUSH1 0x0 DUP3 PUSH2 0x19F2 JUMP JUMPDEST PUSH1 0x1 DUP2 ADD SWAP1 POP PUSH2 0x1A0B JUMP JUMPDEST POP POP JUMP JUMPDEST PUSH1 0x1F DUP3 GT ISZERO PUSH2 0x1A6E JUMPI PUSH2 0x1A3F DUP2 PUSH2 0x1918 JUMP JUMPDEST PUSH2 0x1A48 DUP5 PUSH2 0x192D JUMP JUMPDEST DUP2 ADD PUSH1 0x20 DUP6 LT ISZERO PUSH2 0x1A57 JUMPI DUP2 SWAP1 POP JUMPDEST PUSH2 0x1A6B PUSH2 0x1A63 DUP6 PUSH2 0x192D JUMP JUMPDEST DUP4 ADD DUP3 PUSH2 0x1A0A JUMP JUMPDEST POP POP JUMPDEST POP POP POP JUMP JUMPDEST PUSH1 0x0 DUP3 DUP3 SHR SWAP1 POP SWAP3 SWAP2 POP POP JUMP JUMPDEST PUSH1 0x0 PUSH2 0x1A91 PUSH1 0x0 NOT DUP5 PUSH1 0x8 MUL PUSH2 0x1A73 JUMP JUMPDEST NOT DUP1 DUP4 AND SWAP2 POP POP SWAP3 SWAP2 POP POP JUMP JUMPDEST PUSH1 0x0 PUSH2 0x1AAA DUP4 DUP4 PUSH2 0x1A80 JUMP JUMPDEST SWAP2 POP DUP3 PUSH1 0x2 MUL DUP3 OR SWAP1 POP SWAP3 SWAP2 POP POP JUMP JUMPDEST PUSH2 0x1AC3 DUP3 PUSH2 0x108B JUMP JUMPDEST PUSH8 0xFFFFFFFFFFFFFFFF DUP2 GT ISZERO PUSH2 0x1ADC JUMPI PUSH2 0x1ADB PUSH2 0x1649 JUMP JUMPDEST JUMPDEST PUSH2 0x1AE6 DUP3 SLOAD PUSH2 0x15F8 JUMP JUMPDEST PUSH2 0x1AF1 DUP3 DUP3 DUP6 PUSH2 0x1A2D JUMP JUMPDEST PUSH1 0x0 PUSH1 0x20 SWAP1 POP PUSH1 0x1F DUP4 GT PUSH1 0x1 DUP2 EQ PUSH2 0x1B24 JUMPI PUSH1 0x0 DUP5 ISZERO PUSH2 0x1B12 JUMPI DUP3 DUP8 ADD MLOAD SWAP1 POP JUMPDEST PUSH2 0x1B1C DUP6 DUP3 PUSH2 0x1A9E JUMP JUMPDEST DUP7 SSTORE POP PUSH2 0x1B84 JUMP JUMPDEST PUSH1 0x1F NOT DUP5 AND PUSH2 0x1B32 DUP7 PUSH2 0x1918 JUMP JUMPDEST PUSH1 0x0 JUMPDEST DUP3 DUP2 LT ISZERO PUSH2 0x1B5A JUMPI DUP5 DUP10 ADD MLOAD DUP3 SSTORE PUSH1 0x1 DUP3 ADD SWAP2 POP PUSH1 0x20 DUP6 ADD SWAP5 POP PUSH1 0x20 DUP2 ADD SWAP1 POP PUSH2 0x1B35 JUMP JUMPDEST DUP7 DUP4 LT ISZERO PUSH2 0x1B77 JUMPI DUP5 DUP10 ADD MLOAD PUSH2 0x1B73 PUSH1 0x1F DUP10 AND DUP3 PUSH2 0x1A80 JUMP JUMPDEST DUP4 SSTORE POP JUMPDEST PUSH1 0x1 PUSH1 0x2 DUP9 MUL ADD DUP9 SSTORE POP POP POP JUMPDEST POP POP POP POP POP POP JUMP JUMPDEST DUP3 DUP2 DUP4 CALLDATACOPY PUSH1 0x0 DUP4 DUP4 ADD MSTORE POP POP POP JUMP JUMPDEST PUSH1 0x0 PUSH2 0x1BA7 DUP4 DUP6 PUSH2 0x1096 JUMP JUMPDEST SWAP4 POP PUSH2 0x1BB4 DUP4 DUP6 DUP5 PUSH2 0x1B8C JUMP JUMPDEST PUSH2 0x1BBD DUP4 PUSH2 0x10D1 JUMP JUMPDEST DUP5 ADD SWAP1 POP SWAP4 SWAP3 POP POP POP JUMP JUMPDEST PUSH1 0x0 PUSH1 0x20 DUP3 ADD SWAP1 POP DUP2 DUP2 SUB PUSH1 0x0 DUP4 ADD MSTORE PUSH2 0x1BE3 DUP2 DUP5 DUP7 PUSH2 0x1B9B JUMP JUMPDEST SWAP1 POP SWAP4 SWAP3 POP POP POP JUMP JUMPDEST PUSH32 0x4E487B7100000000000000000000000000000000000000000000000000000000 PUSH1 0x0 MSTORE PUSH1 0x32 PUSH1 0x4 MSTORE PUSH1 0x24 PUSH1 0x0 REVERT JUMPDEST PUSH32 0x4E6F7420746865206F726967696E616C20766572696669657200000000000000 PUSH1 0x0 DUP3 ADD MSTORE POP JUMP JUMPDEST PUSH1 0x0 PUSH2 0x1C51 PUSH1 0x19 DUP4 PUSH2 0x1096 JUMP JUMPDEST SWAP2 POP PUSH2 0x1C5C DUP3 PUSH2 0x1C1B JUMP JUMPDEST PUSH1 0x20 DUP3 ADD SWAP1 POP SWAP2 SWAP1 POP JUMP JUMPDEST PUSH1 0x0 PUSH1 0x20 DUP3 ADD SWAP1 POP DUP2 DUP2 SUB PUSH1 0x0 DUP4 ADD MSTORE PUSH2 0x1C80 DUP2 PUSH2 0x1C44 JUMP JUMPDEST SWAP1 POP SWAP2 SWAP1 POP JUMP JUMPDEST PUSH32 0x436F6E73656E74206E6F74206772616E74656400000000000000000000000000 PUSH1 0x0 DUP3 ADD MSTORE POP JUMP JUMPDEST PUSH1 0x0 PUSH2 0x1CBD PUSH1 0x13 DUP4 PUSH2 0x1096 JUMP JUMPDEST SWAP2 POP PUSH2 0x1CC8 DUP3 PUSH2 0x1C87 JUMP JUMPDEST PUSH1 0x20 DUP3 ADD SWAP1 POP SWAP2 SWAP1 POP JUMP JUMPDEST PUSH1 0x0 PUSH1 0x20 DUP3 ADD SWAP1 POP DUP2 DUP2 SUB PUSH1 0x0 DUP4 ADD MSTORE PUSH2 0x1CEC DUP2 PUSH2 0x1CB0 JUMP JUMPDEST SWAP1 POP SWAP2 SWAP1 POP JUMP INVALID LOG2 PUSH5 0x6970667358 0x22 SLT KECCAK256 0x4E 0xA8 STOP 0xD2 0xA7 SELFBALANCE 0xEC 0x24 JUMPDEST COINBASE BALANCE DUP2 BLOCKHASH 0xB2 ORIGIN JUMP PUSH26 0x7D3C382A0F4BEE64A8A8A6AB79639764736F6C63430008140033 "},"methodIdentifiers":{"getUserRequests(address)":"b337cf74","grantConsent(uint256)":"2a26de85","identityRegistry()":"134e18f4","requestVerification(address,string)":"a179d1c2","requests(uint256)":"81d12c58","userRequests(address,uint256)":"263cb6b6","verifierRequests(address,uint256)":"577042cd","verifyIdentity(uint256)":"babb55c5"}}}}}